:100000000C9462000C94C2090C949B090C948A0015
:100010000C948A000C948A000C948A000C948A0038
:100020000C948A000C948A000C948A000C948A0028
:100030000C948A000C948A000C948A000C948A0018
:100040000C9451090C948A000C941F090C94F90823
:100050000C948A000C948A000C948A000C948A00F8
:100060000C94E9090C948A0000000000230026008B
:10007000290000000000240027002A0000000000E2
:10008000250028002B0004040404040404040202D4
:100090000202020203030303030301020408102007
:1000A0004080010204081020010204081020000012
:1000B0000008000201000003040700000000000027
:1000C0000000080B11241FBECFEFD8E0DEBFCDBF6C
:1000D00023E0A4EFB1E001C01D92A038B207E1F720
:1000E00011E0A0E0B1E0EAEDFDE102C005900D9263
:1000F000A43FB107D9F710E0C2E6D0E004C02197D1
:10010000FE010E94F30CC136D107C9F70E94500BC3
:100110000C94EB0E0C940000FC01538D448D252FA4
:1001200030E0842F90E0821B930B541710F0CF9691
:10013000089501970895FC01918D828D981761F0C3
:10014000A28DAE0FBF2FB11D5D968C91928D9F5FDA
:100150009F73928F90E008958FEF9FEF0895FC01B9
:10016000918D828D981731F0828DE80FF11D858D6C
:1001700090E008958FEF9FEF0895FC01918D228DFF
:10018000892F90E0805C9F4F821B91098F73992784
:100190000895FC01A48DA80FB92FB11DA35ABF4F1C
:1001A0002C91848D90E001968F739927848FA68976
:1001B000B7892C93A089B1898C91837080648C93CA
:1001C000938D848D981306C00288F389E02D808179
:1001D0008F7D80830895EF92FF920F931F93CF93AB
:1001E000DF93EC0181E0888F9B8D8C8D98131AC072
:1001F000E889F989808185FF15C09FB7F894EE8959
:10020000FF896083E889F9898081837080648083B5
:100210009FBF81E090E0DF91CF911F910F91FF9000
:10022000EF900895F62E0B8D10E00F5F1F4F0F73A8
:100230001127E02E8C8D8E110CC00FB607FCFACF63
:10024000E889F989808185FFF5CFCE010E94C90038
:10025000F1CFEB8DEC0FFD2FF11DE35AFF4FF08234
:100260009FB7F8940B8FEA89FB8980818062CFCF9A
:10027000CF93DF93EC01888D8823B9F0AA89BB89DD
:10028000E889F9898C9185FD03C0808186FD0DC0C8
:100290000FB607FCF7CF8C9185FFF2CF808185FFE9
:1002A000EDCFCE010E94C900E9CFDF91CF91089533
:1002B00087EC92E00E94BD0021E0892B09F420E048
:1002C000822F089580E090E0892B29F00E94580148
:1002D00081110C940000089508950895AF92BF9283
:1002E000CF92DF92EF92FF920F931F93CF93DF9302
:1002F0006C017B018B01040F151FEB015E01AE1831
:10030000BF08C017D10759F06991D601ED91FC9152
:100310000190F081E02DC6010995892B79F7C5017F
:10032000DF91CF911F910F91FF90EF90DF90CF90D1
:10033000BF90AF900895833081F028F4813099F018
:100340008230A9F008958730A9F08830C9F0843050
:10035000B1F4809180008F7D03C0809180008F7701
:1003600080938000089584B58F7784BD089584B507
:100370008F7DFBCF8091B0008F778093B000089580
:100380008091B0008F7DF9CF1F93CF93DF93282FFB
:1003900030E0F901E255FF4F8491F901E656FF4F35
:1003A000D491F901EA57FF4FC491CC23A9F0162F3D
:1003B00081110E949B01EC2FF0E0EE0FFF1FE4582B
:1003C000FF4FA591B4918FB7F894EC91111108C02B
:1003D000D095DE23DC938FBFDF91CF911F910895DD
:1003E000DE2BF8CFCF93DF9390E0FC01E656FF4F72
:1003F00024918A579F4FFC0184918823C9F090E093
:10040000880F991FFC01EE58FF4FA591B491FC0194
:10041000E458FF4FC591D49161110DC09FB7F89476
:100420008C91209582238C938881282328839FBFD9
:10043000DF91CF910895623051F49FB7F8943C91C9
:10044000822F809583238C93E8812E2BEFCF8FB75B
:10045000F894EC912E2B2C938FBFEACF3FB7F894F2
:100460008091BB029091BC02A091BD02B091BE02EE
:1004700026B5A89B05C02F3F19F00196A11DB11DFF
:100480003FBFBA2FA92F982F8827BC01CD01620F3B
:10049000711D811D911D42E0660F771F881F991FF6
:1004A0004A95D1F708958F929F92AF92BF92CF92C3
:1004B000DF92EF92FF924B015C010E942E026B01D2
:1004C0007C010E942E026C197D098E099F09683EED
:1004D000734081059105A8F321E0821A9108A108D3
:1004E000B10888EEC80E83E0D81EE11CF11C81140F
:1004F0009104A104B10429F7FF90EF90DF90CF9011
:10050000BF90AF909F908F90089508950895209187
:100510004502260F3327331F21323105ECF4209199
:100520008E02FC0190E080E0243069F082E00895C2
:10053000A09145022191AC014B5D5D4FA40FB52FF9
:10054000B11D2C930196861798F380914502680F90
:100550006093450280E0089581E0089510928E0234
:1005600081E080938D021092680261E082E10E9436
:10057000C40161E083E10E94C401E9EBF0E0808105
:100580008E7F808380818D7F808388E48093B80014
:1005900085E48093BC000895CF93DF9391E090931E
:1005A00024028823B9F0C091B800D091BA0080919C
:1005B000BC008A7B8093BC0060E082E10E94C401A1
:1005C00060E083E10E94C4010E94AE02D093BA00B1
:1005D000C093B800DF91CF9108950895E091C602CD
:1005E0008091C502E81730F4F0E0EC5FFD4F8081A8
:1005F00090E008958FEF9FEF08959091C60280914B
:10060000C5022FEF3FEF981748F4E92FF0E0EC5FB9
:10061000FD4F208130E09F5F9093C602C90108958D
:100620008091C5029091C602891B990B0895CF92C3
:10063000DF92EF92FF920F931F93CF93DF937C0192
:10064000CB018A0120919402222389F0EB016B01F6
:10065000C40ED51ECC15DD0569F06991D701ED9169
:10066000FC910190F081E02DC7010995F3CF642F33
:100670000E948702C801DF91CF911F910F91FF90D7
:10068000EF90DF90CF900895CF93DF931F92CDB777
:10069000DEB76983209194022223F9F02091C302EE
:1006A000203258F021E030E0FC013383228390E0D7
:1006B00080E00F90DF91CF9108958091C402E82FE0
:1006C000F0E0EB56FD4F998190838F5F8093C402D9
:1006D0008093C30281E090E0ECCF61E0CE0101960F
:1006E0000E948702F7CFCF92DF92EF92FF920F9393
:1006F0001F93CF93DF93FC01C48121E020939402E8
:10070000C093B5021092C4021092C3028385682B75
:1007100084E693E00E944403D091C302D13208F0F2
:1007200092C00E942E026B017C0180918E02811189
:1007300065C082E080938E0281E080938D028FEF0E
:1007400080938C0210928B02D0938A02A5E9B2E0CA
:10075000EAE6F2E080E0D81385C010926902809149
:100760006902CC0FC82BC093690280916802813066
:1007700009F07CC0109268020E942E026B017C017D
:10078000809169028093BB008091900290919102C8
:10079000A0919202B0919302892B8A2B8B2B99F016
:1007A0000E942E02009190021091910220919202DB
:1007B000309193026C197D098E099F09061717075E
:1007C00028073907E0F18091BC0083FDD9CF85EC83
:1007D0008093BC000E942E026B017C0180918E02EE
:1007E000823009F445C080918C028F3F61F1809185
:1007F0008C02803241F180918C0225C08091900260
:1008000090919102A0919202B0919302892B8A2B30
:100810008B2B09F48ACF0E942E0200919002109136
:10082000910220919202309193026C197D098E09F8
:100830009F09061717072807390708F076CF809118
:100840008F020E94CC021092C4021092C302109236
:100850009402DF91CF911F910F91FF90EF90DF9065
:10086000CF9008959D9191938F5F75CF85EEB0CF16
:100870008091900290919102A0919202B091930286
:10088000892B8A2B8B2B09F4A9CF0E942E02009171
:1008900090021091910220919202309193026C1972
:1008A0007D098E099F09061717072807390708F0E1
:1008B00095CFC5CF90E080E008950F931F938FB739
:1008C000F8944091B7025091B8026091B9027091CA
:1008D000BA028FBF8091FA019091FB01A091FC01B7
:1008E000B091FD018A019B01081B190B2A0B3B0BE0
:1008F000D901C8010697A105B10558F18091F80109
:100900009091F9018330910509F48BC02CF5813069
:10091000910509F454C00CF06AC0892BB1F18091A3
:100920000002909101029093F9018093F8011092D6
:1009300003021092020281E090E0909305018093FF
:1009400004014093FA015093FB016093FC01709302
:10095000FD011F910F9108958B309105E1F13CF459
:100960000697E9F6809102029091030261C08531F9
:10097000910509F448C08F36910589F680910202ED
:1009800090910302892B59F623C080910202909125
:10099000030281309105F1F134F4892B09F0BFCFC6
:1009A00081E090E039C08230910531F0059709F07F
:1009B000B6CF86E090E030C083E090E02DC080911B
:1009C000020290910302009799F1019709F0A7CFD5
:1009D0008BE090E021C08091020290910302009789
:1009E000F9F2019709F09BCF8FE690E015C0809156
:1009F0000202909103020097D9F0019709F08FCF7E
:100A000085E190E009C08091020290910302892B58
:100A100009F085CF82E090E090930102809300027C
:100A20007ECF8091020290910302892B09F077CF4B
:100A3000109201021092000272CFCF92DF92EF92D9
:100A4000FF92CF93DF938FB7F894C090B702D09006
:100A5000B802E090B902F090BA028FBF8091F40121
:100A60009091F501A091F601B091F701A7019601CF
:100A7000281B390B4A0B5B0BDA01C9010697A1054C
:100A8000B10508F446C0E2EBF0E08491EEE9F0E055
:100A9000D491EAE8F0E0C491CC2309F447C0811175
:100AA0000E949B01EC2FF0E0EE0FFF1FE859FF4F73
:100AB000A591B491EC91DE23C9F18091020290914D
:100AC0000302019790930302809302028091020235
:100AD0009091030297FD07C080910202909103025A
:100AE000853691054CF5809102029091030297FDA5
:100AF00026C080910202909103029093030280939A
:100B00000202C092F401D092F501E092F601F09257
:100B1000F70181E090E09093050180930401DF915B
:100B2000CF91FF90EF90DF90CF90089580910202D7
:100B3000909103020196C6CF84E690E0DECF90E06C
:100B400080E0DBCF0F931F93CF938C01C62F0E94C1
:100B500073036C2F6460C8010E9473036C2F6B7F5A
:100B6000C8010E94730383EC90E00197F1F7CF91E5
:100B70001F910F9108950F931F93CF93DF938C01D3
:100B8000D62FC42F607F642B0E94A20580E1D89FDE
:100B9000B00111246C2BC801DF91CF911F910F91EF
:100BA0000C94A205CF93DF93CDB7DEB728970FB68D
:100BB000F894DEBF0FBECDBF98E0ECE0F1E0DE01BF
:100BC000119601900D929A95E1F7909178039617FE
:100BD00010F46FEF690F262F30E0220F331F41E032
:100BE00050E04C0F5D1F240F351FF9016081680F25
:100BF000606840E080E793E028960FB6F894DEBF87
:100C00000FBECDBFDF91CF910C94BB0540E061E0FA
:100C100080E793E00E94BB058BE39FE10197F1F72A
:100C2000089541E00E94BB0581E090E00895FC0139
:100C300080819181009711F00C94950D0895FB012E
:100C400001900020E9F73197AF01461B570BDC01FB
:100C5000ED91FC910280F381E02D09944F925F9217
:100C60006F927F92AF92BF92CF92DF92EF92FF92FC
:100C70000F931F93CF93DF93CDB7DEB7A1970FB636
:100C8000F894DEBF0FBECDBF5C016A017B01F7FEA9
:100C900047C0DC01ED91FC910190F081E02D6DE207
:100CA00009958C0122273327A9012C193D094E09EA
:100CB0005F0919A2FE01B1967F019AE0492E512CDD
:100CC000612C712CCA01B901A30192010E94D10CBF
:100CD000605DD7016E937D012115310541055105F8
:100CE00089F790E080E0109721F0BD01C5010E94D6
:100CF0001F06800F911FA1960FB6F894DEBF0FBE9E
:100D0000CDBFDF91CF911F910F91FF90EF90DF90BA
:100D1000CF90BF90AF907F906F905F904F9008956D
:100D2000AB01960119A28E010F5D1F4F8AE0C82EFC
:100D3000D12CE12CF12CCA01B901A70196010E9426
:100D4000D10C605DF80162938F01211531054105D9
:100D5000510589F790E080E0309769F2BF01C50145
:100D60000E941F06C8CF0C941F06AF92BF92DF925D
:100D7000EF92FF920F931F93CF93DF93EC017B01D0
:100D80000E94060660E080E00E94D2058091020287
:100D90009091030297FD08C0809102029091030296
:100DA000E816F9060CF43FC080910202909103020C
:100DB00097FD3BC080910202909103029093030241
:100DC00080930202809102029091030210E000E001
:100DD000049794F1A0900202B090030285010350A1
:100DE000110926E0209FC001219F900D1124C80FFA
:100DF000D91FD12C0E151F050CF045C0A016B10649
:100E00000CF441C06D2D82E00E94D2054C815D81C1
:100E10006881798180E793E00E946E010F5F1F4F28
:100E2000D3942696E7CFC701C9CF90E080E0C6CF24
:100E300026960430110589F0602F82E00E94D205C9
:100E40004C815D816881798180E793E00E946E0129
:100E50000F5F1F4FE016F10659F760910202709183
:100E6000030280E00E94D20564E471E080E793E031
:100E7000DF91CF911F910F91FF90EF90DF90BF9086
:100E8000AF900C94B30663E0ECCFEF92FF920F9318
:100E90001F93CF93DF93EC017B01198218821B8291
:100EA0001A821D821C82FB0101900020E9F7319714
:100EB0008F01061B170BB8016F5F7F4F90E080E03A
:100EC0000E941E0E0097B9F0998388831B830A83C2
:100ED0002C813D81232B11F4FC0110821D830C8396
:100EE000B70188819981DF91CF911F910F91FF9078
:100EF000EF900C94E40E88819981009711F00E9484
:100F0000950D198218821D821C821B821A82DF9124
:100F1000CF911F910F91FF90EF900895EF92FF9264
:100F20000F931F93CF93DF93CDB7DEB7A4970FB680
:100F3000F894DEBF0FBECDBF1092050110920401E0
:100F40004091020250910302052E000C660B770BB4
:100F500087EC92E00E942E066DEB71E087EC92E048
:100F60000E94B3064091000250910102052E000C30
:100F7000660B770B87EC92E00E942E0666E471E028
:100F800087EC92E00E941F0680910002909101027E
:100F9000892B09F042C069E471E0CE0101967C0121
:100FA0000E94450761E571E0CE0107960E94450762
:100FB00069E571E0CE010D960E94450761E671E09A
:100FC000CE0143960E94450769E671E0CE0149963D
:100FD0000E94450761E771E0CE014F960E944507E8
:100FE00066E070E0C7010E94B5068E010B5D1F4FE1
:100FF00006501109C8010E941706E016F106C1F754
:10100000A4960FB6F894DEBF0FBECDBFDF91CF918F
:101010001F910F91FF90EF900895809100029091A1
:1010200001020197D9F469E771E0CE0101960E94AF
:1010300045076FE771E0CE0107960E94450762E021
:1010400070E0CE0101960E94B506CE0107960E947F
:101050001706CE0101960E941706D2CF809100029A
:10106000909101020B9749F469E771E0CE01019676
:101070000E94450768E871E0DECF80910002909100
:1010800001028F36910569F469E771E0CE0101969E
:101090000E94450761E070E0CE0101960E94B5060E
:1010A000D8CF8091000290910102029749F469E73C
:1010B00071E0CE0101960E94450762E971E0BBCF65
:1010C00080910002909101024597F1F28091000217
:1010D000909101020397C1F2809100029091010268
:1010E000069709F08DCF8091FE019091FF019093BA
:1010F0000302809302020E94060660E080E00E94E4
:10110000D2056BE971E080E793E00E94B30661E0ED
:1011100085E00E94D2056FEA71E080E793E00E94CB
:10112000B3068091000290910102069709F068CF02
:1011300080910202909103029093FF018093FE013F
:1011400062E088E00E94D20569EB71E080E793E0FD
:101150000E94B30662E088E00E94D2054091FE0141
:101160005091FF01052E000C660B770B80E793E092
:101170000E942E0662E370E080E090E00E9453023D
:10118000D0CF85ED8093BC00809190029091910228
:10119000A0919202B09193020796A11DB11D23E088
:1011A000B695A795979587952A95D1F72091BC007C
:1011B00024FD03C010928E02089540919002509138
:1011C00091026091920270919302452B462B472B1E
:1011D00069F30097A105B10541F025E32A95F1F7E0
:1011E00000000197A109B109E1CF80918F020C9411
:1011F000CC021F920F920FB60F9211242F933F93A0
:101200004F935F936F937F938F939F93AF93BF930E
:10121000EF93FF9387EC92E00E94C900FF91EF915A
:10122000BF91AF919F918F917F916F915F914F91FE
:101230003F912F910F900FBE0F901F9018951F9206
:101240000F920FB60F9211242F938F939F93EF93CA
:10125000FF93E091D702F091D8028081E091DD0206
:10126000F091DE0282FD1BC090818091E0028F5FD1
:101270008F732091E102821741F0E091E002F0E0EB
:10128000E953FD4F958F8093E002FF91EF919F917D
:101290008F912F910F900FBE0F901F901895808106
:1012A000F4CF1F920F920FB60F9211242F933F93FA
:1012B0008F939F93AF93BF938091B7029091B802A1
:1012C000A091B902B091BA023091B60223E0230F87
:1012D0002D3758F50196A11DB11D2093B6028093BC
:1012E000B7029093B802A093B902B093BA0280916A
:1012F000BB029091BC02A091BD02B091BE020196CA
:10130000A11DB11D8093BB029093BC02A093BD02AE
:10131000B093BE02BF91AF919F918F913F912F915A
:101320000F900FBE0F901F90189526E8230F02967E
:10133000A11DB11DD2CF1F920F920FB60F92112493
:101340002F933F934F935F936F937F938F939F93CD
:10135000AF93BF93EF93FF93E0910201F0910301EC
:101360000995FF91EF91BF91AF919F918F917F91DF
:101370006F915F914F913F912F910F900FBE0F9002
:101380001F9018951F920F920FB60F9211242F9352
:101390003F934F935F936F937F938F939F93AF93FD
:1013A000BF93EF93FF93E0910001F0910101099544
:1013B000FF91EF91BF91AF919F918F917F916F912D
:1013C0005F914F913F912F910F900FBE0F901F9003
:1013D00018951F920F920FB60F9211242F933F93DF
:1013E0004F935F936F937F938F939F93AF93BF932D
:1013F000EF93FF938091B900887F803609F44AC04B
:10140000F0F5883209F4A7C018F5803109F49BC0C3
:10141000B8F4882309F4F9C0883009F494C0FF9126
:10142000EF91BF91AF919F918F917F916F915F915C
:101430004F913F912F910F900FBE0F901F901895D5
:10144000883109F488C0803251F780938C0214C02F
:10145000803409F49DC040F48033B9F38833F9F641
:1014600080938C0285ECB0C0803509F485C0883546
:1014700009F496C0883499F60E94C108D0CF883903
:1014800009F48CC038F5883729F050F4883611F00B
:10149000803729F683E080938E021092670257C04E
:1014A000883809F47BC0803919F0803809F0B7CF4B
:1014B00080916702803208F071C0E091670281E09C
:1014C0008E0F809367028091BB00F0E0E95BFD4FD7
:1014D00080833DC0803B39F0E0F4803A09F479C064
:1014E000883A09F09CCF84E080938E0210924602E5
:1014F00010924502E091C102F091C20209958091DB
:10150000450281110FC081E08093450210922502AF
:1015100009C0803C09F4A6CF883C09F4A3CF883BDE
:1015200009F07DCFE091460281E08E0F8093460264
:10153000F0E0EB5DFD4F80818093BB00909146020F
:101540008091450229C0809169028093BB0085EC9F
:101550008093BC0064CF90918B0280918A0298178F
:1015600058F5E0918B0281E08E0F80938B02F0E0C2
:10157000E659FD4F8081E9CFE0918B0281E08E0F2B
:1015800080938B028091BB00F0E0E659FD4F808391
:1015900090918B0280918A029817C8F285E8D8CF83
:1015A000E0918B0281E08E0F80938B028091BB00D3
:1015B000F0E0E659FD4F808380918D0281115CCF70
:1015C00081E08093680284EA8093BC0010928E02CE
:1015D00026CF85EC8093BC0010928E02809167022A
:1015E000803230F4E0916702F0E0E95BFD4F108259
:1015F0006091670270E0E091BF02F091C00287E461
:1016000092E00995109267020ACF10928C0234CFB3
:10161000E7ECF2E01382128288EE93E0A0E0B0E003
:1016200084839583A683B78328E131E031832083C7
:1016300025EC30E03587248724EC30E03787268797
:1016400020EC30E0318B208B21EC30E0338B228B8F
:1016500022EC30E0358B248B26EC30E0378B268B68
:10166000118E128E138E148EE4E6F3E01382128232
:1016700084839583A683B7838AE291E091838083F4
:10168000E0E7F3E0138212828CE391E091838083A0
:1016900087E2848384E1818784E0828713860895CA
:1016A000789484B5826084BD84B5816084BD85B53D
:1016B000826085BD85B5816085BD80916E00816049
:1016C00080936E00109281008091810082608093EF
:1016D00081008091810081608093810080918000F1
:1016E0008160809380008091B10084608093B1001C
:1016F0008091B00081608093B00080917A00846016
:1017000080937A0080917A00826080937A00809141
:101710007A00816080937A0080917A00806880935B
:101720007A001092C1008DE195E0909301018093C1
:101730000001809169008C7F80936900E89A8DE5B3
:1017400094E0909303018093020180916900837F6C
:1017500080936900E99A60E082E00E94F20160E013
:1017600084E00E94F20162E083E00E94F2011092A4
:10177000C6021092C5021092C4021092C3020E94C7
:10178000AE028CE691E09093C2028093C1028DE696
:1017900091E09093C0028093BF02109275038091F4
:1017A0007A03823018F098E0909375038093780361
:1017B00062E370E080E090E00E94530260917B035E
:1017C00080E793E00E94730368EE73E080E090E0AE
:1017D0000E94530260E380E793E00E94A205CBE4FD
:1017E000D6E4CE010197F1F760E380E793E00E9431
:1017F000A2052197F1F760E380E793E00E94A2053C
:1018000083E592E00197F1F760E280E793E00E94C0
:10181000A20560917503606240E080E793E00E945A
:10182000BB0584E08093760340E06CE080E793E0C2
:101830000E94BB050E94060682E08093770340E089
:1018400066E080E793E00E94BB0540E062E080E74D
:1018500093E00E94BB058BE39FE10197F1F788E0DD
:1018600080937B0360E080E793E00E9473030E9413
:10187000060660E080E00E94D20561EC71E080E73E
:1018800093E00E94B30664EF71E080E090E00E9474
:10189000530260E080E00E94D2056CEC71E080E7CA
:1018A00093E00E94B30664EF71E080E090E00E9454
:1018B000530260E080E00E94D20568ED71E080E7AD
:1018C00093E00E94B30664EF71E080E090E00E9434
:1018D000530260E080E00E94D20565EE71E080E78F
:1018E00093E00E94B30664EF71E080E090E00E9414
:1018F00053028091040190910501019711F40E9417
:101900008E07C0E0D0E0809104019091050101971D
:1019100011F40E948E0762E370E080E090E00E9484
:101920005302209781F30E945801882361F30E949B
:101930000000E9CF2F923F924F925F926F927F9279
:101940008F929F92AF92BF92CF92DF92EF92FF92CF
:101950000F931F93CF93DF93CDB7DEB7CA1BDB0B7B
:101960000FB6F894DEBF0FBECDBF09942A88398820
:1019700048885F846E847D848C849B84AA84B98427
:10198000C884DF80EE80FD800C811B81AA81B98133
:10199000CE0FD11D0FB6F894DEBF0FBECDBFED0147
:1019A0000895A1E21A2EAA1BBB1BFD010DC0AA1FA0
:1019B000BB1FEE1FFF1FA217B307E407F50720F0B8
:1019C000A21BB30BE40BF50B661F771F881F991F33
:1019D0001A9469F760957095809590959B01AC017C
:1019E000BD01CF010895EE0FFF1F0590F491E02D8A
:1019F00009940F931F93CF93DF938230910510F4D6
:101A000082E090E0E0917E03F0917F0330E020E0FF
:101A1000B0E0A0E0309799F42115310509F44AC0EF
:101A2000281B390B24303105D8F58A819B8161153B
:101A3000710589F1FB0193838283FE0111C040810E
:101A400051810281138148175907E0F0481759075F
:101A500099F4109761F012960C93129713961C93B9
:101A60003296CF01DF91CF911F910F91089500938E
:101A70007E0310937F03F4CF2115310551F04217F7
:101A8000530738F0A901DB019A01BD01DF01F8011C
:101A9000C1CFEF01F9CF90937F0380937E03CDCF29
:101AA000FE01E20FF31F8193919322503109398394
:101AB0002883D7CF20917C0330917D03232B41F4E1
:101AC000209108013091090130937D0320937C031C
:101AD00020910601309107012115310541F42DB700
:101AE0003EB740910A0150910B01241B350BE09148
:101AF0007C03F0917D03E217F307A0F42E1B3F0B4C
:101B00002817390778F0AC014E5F5F4F241735076F
:101B100048F04E0F5F1F50937D0340937C038193E9
:101B200091939FCFF0E0E0E09CCFCF93DF930097BD
:101B3000E9F0FC01329713821282A0917E03B091EA
:101B40007F03ED0130E020E01097A1F42081318186
:101B5000820F931F20917C0330917D032817390752
:101B600009F061C0F0937D03E0937C03DF91CF9196
:101B70000895EA01CE17DF07E8F54A815B819E01EF
:101B800041155105B1F7E901FB83EA834991599168
:101B9000C40FD51FEC17FD0761F480819181029677
:101BA000840F951FE90199838883828193819B83A8
:101BB0008A83F0E0E0E012968D919C911397009754
:101BC000B9F52D913C911197CD010296820F931F8B
:101BD00020917C0330917D032817390739F630971F
:101BE00051F510927F0310927E03B0937D03A09372
:101BF0007C03BCCFD383C28340815181840F951F66
:101C0000C817D90761F44E5F5F4F88819981480FEB
:101C1000591F518340838A819B819383828321153D
:101C2000310509F0B0CFF0937F03E0937E039ECFA0
:101C3000FD01DC01C0CF13821282D7CFB0E0A0E05B
:101C4000E4E2FEE00C949C0C8C01009751F4CB0173
:101C50000E94F90C8C01C801CDB7DEB7E0E10C940D
:101C6000B80CFC01E60FF71F9C0122503109E21766
:101C7000F30708F49DC0D901CD91DC911197C617E7
:101C8000D70798F0C530D10530F3CE0104978617F9
:101C9000970708F3C61BD70B2297C193D1936D9377
:101CA0007C93CF010E94950DD6CF5B01AC1ABD0A83
:101CB0004C018C0E9D1EA0917E03B0917F03512C90
:101CC000412CF12CE12C109731F580917C039091FF
:101CD0007D038815990509F05CC04616570608F083
:101CE00058C08091060190910701009741F48DB78B
:101CF0009EB740910A0150910B01841B950BE81788
:101D0000F90708F055C0F0937D03E0937C03F901D7
:101D100071836083A0CF8D919C91119712966C90E6
:101D2000129713967C901397A815B90559F56C0175
:101D300042E0C40ED11CCA14DB0420F1AC014A19E4
:101D40005B09DA011296159780F0628273825183E3
:101D50004083D9016D937C93E114F10471F0D701B4
:101D60001396FC93EE93129776CF22968C0F9D1FBD
:101D7000F90191838083F301EFCFF0937F03E09328
:101D80007E0369CF4816590608F42C017D01D30162
:101D90009ACFCB010E94F90C7C01009749F0AE016B
:101DA000B8010E94DB0EC8010E94950D870153CF38
:101DB00010E000E050CFFB01DC0102C001900D9269
:101DC00041505040D8F70895FB01DC0101900D927D
:0A1DD0000020E1F70895F894FFCF1A
:101DDA0085028502010000008003800000004000A7
:101DEA001400540000000000EB006E018C00380162
:101DFA00BD009B00AF0000000000440317035A0413
:101E0A00ED021003FD02EE020000000011066E0151
:101E1A005A0486023E000D0A004F7063696F6E31E4
:101E2A00004F7063696F6E32004F7063696F6E3373
:101E3A00004F7063696F6E34004F7063696F6E355F
:101E4A00004F7063696F6E36004174726173004FA0
:101E5A007063696F6E3131004F7063696F6E313133
:101E6A0031004F7063696F6E32310050756C736167
:101E7A0020706173612073616C69722E2E2E00438B
:101E8A006F6E7461646F723A002020202020202037
:101E9A000020494E494349414E444F0020494E498A
:101EAA004349414E444F2E0020494E494349414E31
:101EBA00444F2E2E0020494E494349414E444F2E4D
:041ECA002E2E0000B8
:00000001FF
