:020000040000FA
:100000000C945D000C9485000C9485000C94850084
:100010000C9485000C9485000C9485000C9485004C
:100020000C9485000C9485000C9485000C9485003C
:100030000C9485000C94A1020C9485000C9485000E
:100040000C94FF010C9485000C946F020C944902EF
:100050000C9485000C9485000C9485000C9485000C
:100060000C9485000C94850000000008000201003B
:100070000003040700000000000000000000000072
:10008000250028002B0000000000240027002A0083
:10009000040404040404040402020202020203032E
:1000A0000303030301020408102040800102040836
:1000B0001020010204081020810311241FBECFEF7D
:1000C000D8E0DEBFCDBF11E0A0E0B1E0ECE6F7E0A4
:1000D00002C005900D92A034B107D9F721E0A0E449
:1000E000B1E001C01D92AA3EB207E1F710E0CDE5F4
:1000F000D0E004C02197FE010E94AE03CC35D107A9
:10010000C9F70E94C8020C94B4030C940000AF928B
:10011000BF92CF92DF92EF92FF920F931F93CF93F4
:10012000DF936C017B018B01040F151FEB015E0156
:10013000AE18BF08C017D10759F06991D601ED91EB
:10014000FC910190F081E02DC6010995892B79F78A
:10015000C501DF91CF911F910F91FF90EF90DF903C
:10016000CF90BF90AF900895FC01538D448D252F03
:1001700030E0842F90E0821B930B541710F0CF9641
:10018000089501970895FC01918D828D981761F073
:10019000A28DAE0FBF2FB11D5D968C91928D9F5F8A
:1001A0009F73928F90E008958FEF9FEF0895FC0169
:1001B000918D828D981731F0828DE80FF11D858D1C
:1001C00090E008958FEF9FEF0895FC01918D228DAF
:1001D000892F90E0805C9F4F821B91098F73992734
:1001E000089582E491E00E94E50021E0892B09F462
:1001F00020E0822F089580E090E0892B29F00E9472
:10020000F10081110C9400000895FC01A48DA80F49
:10021000B92FB11DA35ABF4F2C91848D90E0019648
:100220008F739927848FA689B7892C93A089B18968
:100230008C91837080648C93938D848D981306C009
:100240000288F389E02D80818F7D80830895EF926D
:10025000FF920F931F93CF93DF93EC0181E0888F80
:100260009B8D8C8D98131AC0E889F989808185FF50
:1002700015C09FB7F894EE89FF896083E889F989F2
:1002800080818370806480839FBF81E090E0DF91F4
:10029000CF911F910F91FF90EF900895F62E0B8D47
:1002A00010E00F5F1F4F0F731127E02E8C8D8E1102
:1002B0000CC00FB607FCFACFE889F989808185FF69
:1002C000F5CFCE010E940501F1CFEB8DEC0FFD2F94
:1002D000F11DE35AFF4FF0829FB7F8940B8FEA8924
:1002E000FB8980818062CFCFCF93DF93EC01888D33
:1002F0008823B9F0AA89BB89E889F9898C9185FDA1
:1003000003C0808186FD0DC00FB607FCF7CF8C912E
:1003100085FFF2CF808185FFEDCFCE010E940501E0
:10032000E9CFDF91CF9108954AE250E062E171E0B8
:1003300082E491E00E94870042E050E06DE371E0CA
:1003400082E491E00E9487008091400190914101F8
:10035000892B69F581E090E0909341018093400101
:10036000E5E7F0E09491E1EBF0E08491EDE9F0E075
:10037000E491EE23D9F020914001992339F0933094
:1003800029F1D0F4913041F1923051F1F0E0EE0FCB
:10039000FF1FE458FF4FA591B4919FB7F894EC91DB
:1003A00021112BC080958E238C939FBF08951092AE
:1003B000410110924001D4CF9730A9F09830C9F094
:1003C000943021F7909180009F7D03C09091800030
:1003D0009F7790938000DACF94B59F7794BDD6CF66
:1003E00094B59F7DFBCF9091B0009F779093B00024
:1003F000CDCF9091B0009F7DF9CF8E2BD5CF1F929E
:100400000F920FB60F9211242F933F938F939F93C8
:10041000AF93BF938091E6019091E701A091E8012D
:10042000B091E9013091E50123E0230F2D3758F514
:100430000196A11DB11D2093E5018093E6019093E3
:10044000E701A093E801B093E9018091E101909167
:10045000E201A091E301B091E4010196A11DB11D5B
:100460008093E1019093E201A093E301B093E40152
:10047000BF91AF919F918F913F912F910F900FBEA0
:100480000F901F90189526E8230F0296A11DB11D0D
:10049000D2CF1F920F920FB60F9211242F933F933A
:1004A0004F935F936F937F938F939F93AF93BF937C
:1004B000EF93FF9382E491E00E940501FF91EF9199
:1004C000BF91AF919F918F917F916F915F914F916C
:1004D0003F912F910F900FBE0F901F9018951F9274
:1004E0000F920FB60F9211242F938F939F93EF9338
:1004F000FF93E0915201F09153018081E091580106
:10050000F091590182FD1BC0908180915B018F5F4A
:100510008F7320915C01821741F0E0915B01F0E064
:10052000EE5BFE4F958F80935B01FF91EF919F9162
:100530008F912F910F900FBE0F901F901895808173
:10054000F4CF1F920F920FB60F9211242F933F9367
:100550004F935F936F937F938F939F93AF93BF93CB
:10056000EF93FF93E091DF01F091E0010995FF9196
:10057000EF91BF91AF919F918F917F916F915F911B
:100580004F913F912F910F900FBE0F901F90189594
:10059000789484B5826084BD84B5816084BD85B55E
:1005A000826085BD85B5816085BD80916E0081606A
:1005B00080936E0010928100809181008260809310
:1005C0008100809181008160809381008091800012
:1005D0008160809380008091B10084608093B1003D
:1005E0008091B00081608093B00080917A00846037
:1005F00080937A0080917A00826080937A00809163
:100600007A00816080937A0080917A00806880937C
:100610007A001092C100E1EBF0E02491EDE9F0E006
:100620008491882399F090E0880F991FFC01EA5784
:10063000FF4FA591B491FC01E458FF4F859194912F
:100640008FB7F894EC91E22BEC938FBF80E180930D
:1006500081001092800024E234EF309387002093D1
:10066000860093E19093810024E931E03093E0012A
:100670002093DF0191E090936F00E0915201F0919F
:10068000530192E09083E0915201F0915301108266
:10069000E0914E01F0914F011082E0915001F091F4
:1006A0005101808310925A01E0915601F091570157
:1006B00086E08083E0915401F09155018081806152
:1006C0008083E0915401F09155018081886080839E
:1006D000E0915401F0915501808180688083E09120
:1006E0005401F091550180818F7D8083C0E0D0E07E
:1006F0002097F1F30E94F1008823D1F30E940000BB
:10070000F7CFE2E4F1E01382128288EE93E0A0E0FA
:10071000B0E084839583A683B78384E091E09183DE
:10072000808385EC90E09587848784EC90E09787C0
:10073000868780EC90E0918B808B81EC90E0938BAE
:10074000828B82EC90E0958B848B86EC90E0978B8B
:10075000868B118E128E138E148E0895EE0FFF1F4E
:100760000590F491E02D0994F894FFCF000000006B
:1007700027018700B4007401E500C300D7002D2DC8
:100780002D496E74657272757063696F6E20646551
:10079000207469656D706F20286361646120353055
:0C07A000306D73292D2D2D20000D0A0056
:107E0000112484B714BE81FFF0D085E080938100F7
:107E100082E08093C00088E18093C10086E0809377
:107E2000C20080E18093C4008EE0C9D0259A86E02C
:107E300020E33CEF91E0309385002093840096BBD3
:107E4000B09BFECF1D9AA8958150A9F7CC24DD24C4
:107E500088248394B5E0AB2EA1E19A2EF3E0BF2EE7
:107E6000A2D0813461F49FD0082FAFD0023811F036
:107E7000013811F484E001C083E08DD089C08234E0
:107E800011F484E103C0853419F485E0A6D080C0E4
:107E9000853579F488D0E82EFF2485D0082F10E0AE
:107EA000102F00270E291F29000F111F8ED06801E7
:107EB0006FC0863521F484E090D080E0DECF843638
:107EC00009F040C070D06FD0082F6DD080E0C81688
:107ED00080E7D80618F4F601B7BEE895C0E0D1E017
:107EE00062D089930C17E1F7F0E0CF16F0E7DF06D8
:107EF00018F0F601B7BEE89568D007B600FCFDCFD4
:107F0000A601A0E0B1E02C9130E011968C91119780
:107F100090E0982F8827822B932B1296FA010C0160
:107F200087BEE89511244E5F5F4FF1E0A038BF0790
:107F300051F7F601A7BEE89507B600FCFDCF97BE46
:107F4000E89526C08437B1F42ED02DD0F82E2BD052
:107F50003CD0F601EF2C8F010F5F1F4F84911BD097
:107F6000EA94F801C1F70894C11CD11CFA94CF0C13
:107F7000D11C0EC0853739F428D08EE10CD085E9AC
:107F80000AD08FE07ACF813511F488E018D01DD067
:107F900080E101D065CF982F8091C00085FFFCCF94
:107FA0009093C60008958091C00087FFFCCF809118
:107FB000C00084FD01C0A8958091C6000895E0E648
:107FC000F0E098E1908380830895EDDF803219F02E
:107FD00088E0F5DFFFCF84E1DECF1F93182FE3DFCA
:107FE0001150E9F7F2DF1F91089580E0E8DFEE27F6
:047FF000FF270994CA
:027FFE00040479
:00000001FF
