:100000000C9462000C94D9070C94B2070C948A00EB
:100010000C948A000C948A000C948A000C948A0038
:100020000C948A000C948A000C948A000C948A0028
:100030000C948A000C948A000C948A000C948A0018
:100040000C9468070C948A000C948A000C948A0023
:100050000C948A000C948A000C948A000C948A00F8
:100060000C9400080C948A00000000002400270073
:100070002A0000000000250028002B0000000000DE
:1000800023002600290004040404040404040202DA
:100090000202020203030303030301020408102007
:1000A0004080010204081020010204081020000012
:1000B0000008000201000003040700000000000027
:1000C00000001F0911241FBECFEFD8E0DEBFCDBF57
:1000D00022E0A6EDB1E001C01D92A13CB207E1F71C
:1000E00011E0A0E0B1E0EAEDF9E102C005900D9267
:1000F000A63DB107D9F710E0C2E6D0E004C02197D1
:10010000FE010E94F30AC136D107C9F70E943F09D8
:100110000C94EB0C0C94000008950895AF92BF92DC
:10012000CF92DF92EF92FF920F931F93CF93DF93C3
:100130006C017B018B01040F151FEB015E01AE18F2
:10014000BF08C017D10759F06991D601ED91FC9114
:100150000190F081E02DC6010995892B79F7C50141
:10016000DF91CF911F910F91FF90EF90DF90CF9093
:10017000BF90AF900895833081F028F4813099F0DA
:100180008230A9F008958730A9F08830C9F0843012
:10019000B1F4809180008F7D03C0809180008F77C3
:1001A00080938000089584B58F7784BD089584B5C9
:1001B0008F7DFBCF8091B0008F778093B000089542
:1001C0008091B0008F7DF9CFCF93DF93282F30E05F
:1001D000F901E255FF4F8491F901E656FF4FD491A2
:1001E000F901EA57FF4FC491CC23A1F081110E947D
:1001F000BB00EC2FF0E0EE0FFF1FE458FF4FA5917E
:10020000B491EC91ED2381E090E009F480E0DF917E
:10021000CF91089580E090E0FACF1F93CF93DF93C2
:10022000282F30E0F901E255FF4F8491F901E6569D
:10023000FF4FD491F901EA57FF4FC491CC23A9F0A5
:10024000162F81110E94BB00EC2FF0E0EE0FFF1F74
:10025000EE58FF4FA591B4918FB7F894EC9111111E
:1002600008C0D095DE23DC938FBFDF91CF911F9123
:100270000895DE2BF8CFCF93DF9390E0FC01E65694
:10028000FF4F24918A579F4FFC0184918823C9F026
:1002900090E0880F991FFC01E859FF4FA591B49198
:1002A000FC01EE58FF4FC591D49161110DC09FB76D
:1002B000F8948C91209582238C938881282328831D
:1002C0009FBFDF91CF910895623051F49FB7F894AA
:1002D0003C91822F809583238C93E8812E2BEFCF46
:1002E0008FB7F894EC912E2B2C938FBFEACF3FB7AA
:1002F000F8948091970290919802A0919902B09100
:100300009A0226B5A89B05C02F3F19F00196A11DA2
:10031000B11D3FBFBA2FA92F982F8827BC01CD014F
:10032000620F711D811D911D42E0660F771F881FAE
:10033000991F4A95D1F708958F929F92AF92BF92DD
:10034000CF92DF92EF92FF924B015C010E94770106
:100350006B017C010E9477016C197D098E099F0950
:10036000683E734081059105A8F321E0821A910847
:10037000A108B10888EEC80E83E0D81EE11CF11C6C
:1003800081149104A104B10429F7FF90EF90DF904C
:10039000CF90BF90AF909F908F900895089508954B
:1003A00020912102260F3327331F21323105ECF42F
:1003B00020916A02FC0190E080E0243069F082E044
:1003C0000895A09121022191AC014F5F5D4FA40FD0
:1003D000B52FB11D2C930196861798F380912102B9
:1003E000680F6093210280E0089581E008951092E3
:1003F0006A0281E0809369021092440261E082E126
:100400000E940D0161E083E10E940D01E9EBF0E043
:1004100080818E7F808380818D7F808388E480933C
:10042000B80085E48093BC000895CF93DF9391E0FA
:10043000909300028823B9F0C091B800D091BA001F
:100440008091BC008A7B8093BC0060E082E10E94C6
:100450000D0160E083E10E940D010E94F701D0933D
:10046000BA00C093B800DF91CF9108950895E0914C
:10047000A2028091A102E81730F4F0E0E052FE4FB2
:10048000808190E008958FEF9FEF08959091A202F0
:100490008091A1022FEF3FEF981748F4E92FF0E089
:1004A000E052FE4F208130E09F5F9093A202C9018D
:1004B00008958091A1029091A202891B990B089541
:1004C000CF92DF92EF92FF920F931F93CF93DF9320
:1004D0007C01CB018A0120917002222389F0EB017B
:1004E0006B01C40ED51ECC15DD0569F06991D701ED
:1004F000ED91FC910190F081E02DC7010995F3CFBA
:10050000642F0E94D001C801DF91CF911F910F91FC
:10051000FF90EF90DF90CF900895CF93DF931F92DD
:10052000CDB7DEB76983209170022223F9F02091C4
:100530009F02203258F021E030E0FC013383228317
:1005400090E080E00F90DF91CF9108958091A0021C
:10055000E82FF0E0EF58FD4F998190838F5F8093F3
:10056000A00280939F0281E090E0ECCF61E0CE0199
:1005700001960E94D001F7CFCF92DF92EF92FF92C7
:100580000F931F93CF93DF93FC01C48121E020934D
:100590007002C09391021092A00210929F02838574
:1005A000682B85EA92E00E948D02D0919F02D132A1
:1005B00008F092C00E9477016B017C0180916A0271
:1005C000811165C082E080936A0281E080936902B4
:1005D0008FEF8093680210926702D0936602A1E7C2
:1005E000B2E0E6E4F2E080E0D81385C01092450264
:1005F00080914502CC0FC82BC093450280914402E4
:10060000813009F07CC0109244020E9477016B0196
:100610007C01809145028093BB0080916C02909197
:100620006D02A0916E02B0916F02892B8A2B8B2BE9
:1006300099F00E94770100916C0210916D02209157
:100640006E0230916F026C197D098E099F090617A1
:10065000170728073907E0F18091BC0083FDD9CF47
:1006600085EC8093BC000E9477016B017C01809136
:100670006A02823009F445C0809168028F3F61F1BF
:1006800080916802803241F18091680225C080919A
:100690006C0290916D02A0916E02B0916F02892B55
:1006A0008A2B8B2B09F48ACF0E94770100916C0270
:1006B00010916D0220916E0230916F026C197D09CC
:1006C0008E099F09061717072807390708F076CF04
:1006D00080916B020E9415021092A00210929F025C
:1006E00010927002DF91CF911F910F91FF90EF90C8
:1006F000DF90CF9008959D9191938F5F75CF85EE98
:10070000B0CF80916C0290916D02A0916E02B09179
:100710006F02892B8A2B8B2B09F4A9CF0E947701BA
:1007200000916C0210916D0220916E0230916F0267
:100730006C197D098E099F090617170728073907C5
:1007400008F095CFC5CF90E080E008950F931F93F8
:100750008FB7F89440919302509194026091950262
:10076000709196028FBF8091DC019091DD01A09184
:10077000DE01B091DF018A019B01081B190B2A0BD6
:100780003B0BD901C8010697A105B105D0F18091B5
:10079000DA019091DB018330910509F49BC0A4F547
:1007A0008130910509F464C00CF07AC0892B09F4FA
:1007B00045C08091D8019091D9019093DB0180933D
:1007C000DA011092A4021092A3028091D8019091B4
:1007D000D901069741F48091D6019091D701909369
:1007E000A4028093A30281E090E09093050180939E
:1007F00004014093DC015093DD016093DE017093AE
:10080000DF011F910F9108958B309105E9F13CF4C0
:10081000069779F68091A3029091A40262C0853177
:10082000910509F449C08F36910519F68091A3020C
:100830009091A402892B09F0BCCF23C08091A30220
:100840009091A40281309105F1F134F4892B09F0E3
:10085000B0CF81E090E039C08230910531F005974A
:1008600009F0A7CF86E090E030C083E090E02DC093
:100870008091A3029091A402009799F1019709F049
:1008800098CF8BE090E021C08091A3029091A402C8
:100890000097F9F2019709F08CCF8FE690E015C030
:1008A0008091A3029091A4020097D9F0019709F0DA
:1008B00080CF85E190E009C08091A3029091A402CD
:1008C000892B09F076CF82E090E09093D901809354
:1008D000D8016FCF8091A3029091A402892B09F0D7
:1008E00068CF1092D9011092D80163CF8F929F9256
:1008F000AF92BF920F931F93CF93DF93CDB7DEB725
:10090000A1970FB6F894DEBF0FBECDBF19A242303B
:1009100008F44AE08E010F5D1F4F842E912CB12CFC
:10092000A12CA50194010E94D10AE62FB901CA01A8
:10093000EA3044F5E05DD801EE938D01232B242BA2
:10094000252B79F790E080E0109769F0FD01019088
:100950000020E9F73197AF014A1B5B0BBD0181EB2A
:1009600092E00E948E00A1960FB6F894DEBF0FBEF3
:10097000CDBFDF91CF911F910F91BF90AF909F900E
:100980008F900895E95CD7CFFC0101900020E9F732
:100990003197AF01481B590BBC0181EB92E00C94DD
:1009A0008E00FC0180819181009711F00C94950BD1
:1009B0000895EF92FF920F931F93CF93DF93EC0173
:1009C0007B01198218821B821A821D821C82FB0104
:1009D00001900020E9F731978F01061B170BB80132
:1009E0006F5F7F4F90E080E00E941E0C0097B9F08F
:1009F000998388831B830A832C813D81232B11F4E7
:100A0000FC0110821D830C83B70188819981DF91DD
:100A1000CF911F910F91FF90EF900C94E40C88817F
:100A20009981009711F00E94950B198218821D82FE
:100A30001C821B821A82DF91CF911F910F91FF9030
:100A4000EF9008950F931F93CF938C01C62F0E94B0
:100A5000BC026C2F6460C8010E94BC026C2F6B7FCB
:100A6000C8010E94BC0283EC90E00197F1F7CF919E
:100A70001F910F9108950F931F93CF93DF938C01D4
:100A8000D62FC42F607F642B0E94220580E1D89F5F
:100A9000B00111246C2BC801DF91CF911F910F91F0
:100AA0000C942205CF93DF93CDB7DEB728970FB60E
:100AB000F894DEBF0FBECDBF98E0ECE0F1E0DE01C0
:100AC000119601900D929A95E1F79091B9029617BF
:100AD00010F46FEF690F262F30E0220F331F41E033
:100AE00050E04C0F5D1F240F351FF9016081680F26
:100AF000606840E081EB92E028960FB6F894DEBF84
:100B00000FBECDBFDF91CF910C943B0540E061E07B
:100B100081EB92E00E943B058BE39FE10197F1F7A7
:100B20000895AF92BF92DF92EF92FF920F931F93BF
:100B3000CF93DF93EC017B010E94860560E080E0AB
:100B40000E9452058091A3029091A40297FD08C0D3
:100B50008091A3029091A402E816F9060CF43FC01C
:100B60008091A3029091A40297FD3BC08091A302C3
:100B70009091A4029093A4028093A3028091A30277
:100B80009091A40210E000E0049794F1A090A302D9
:100B9000B090A40285010350110926E0209FC001F6
:100BA000219F900D1124C80FD91FD12C0E151F05A0
:100BB0000CF043C0A016B1060CF43FC06D2D82E0CE
:100BC0000E9452054C815D816881798181EB92E0C0
:100BD0000E948E000F5F1F4FD3942696E7CFC70168
:100BE000C9CF90E080E0C6CF26960430110589F089
:100BF000602F82E00E9452054C815D81688179817D
:100C000081EB92E00E948E000F5F1F4FE016F1060D
:100C100059F76091A3027091A40280E00E945205EE
:100C200082E391E0DF91CF911F910F91FF90EF90C0
:100C3000DF90BF90AF900C94C40463E0EECF41E02E
:100C40000E943B0581E090E00895CF92DF92EF9201
:100C5000FF920F931F93CF93DF93CDB7DEB7A49787
:100C60000FB6F894DEBF0FBECDBF80910401909106
:100C70000501019709F043C010920501109204018B
:100C80008091D8019091D901892B09F047C064E384
:100C900071E08E010F5F1F4FC8010E94D9046CE301
:100CA00071E0CE0107960E94D90464E471E0CE01A0
:100CB0000D960E94D9046CE471E0CE0143960E9427
:100CC000D90464E571E0CE0149960E94D9046CE52F
:100CD00071E0CE014F960E94D90466E070E0C80131
:100CE0000E9491057E0185E2E80EF11C86E0E81A7B
:100CF000F108C7010E94D1040E151F05B9F7A4968B
:100D00000FB6F894DEBF0FBECDBFDF91CF911F911C
:100D10000F91FF90EF90DF90CF9008958091D801D0
:100D20009091D9010197D9F464E671E0CE01019662
:100D30000E94D9046AE671E0CE0107960E94D904A8
:100D400062E070E0CE0101960E949105CE01079607
:100D50000E94D104CE0101960E94D104D0CF80918F
:100D6000D8019091D9010B9749F464E671E0CE0166
:100D700001960E94D90463E771E0DECF8091D8012B
:100D80009091D9018F36910569F464E671E0CE0146
:100D900001960E94D90461E070E0CE0101960E94A4
:100DA0009105D8CF8091D8019091D901029749F44B
:100DB00064E671E0CE0101960E94D9046DE771E00E
:100DC000BBCF8091D8019091D9014597F1F28091E4
:100DD000D8019091D9010397C1F28091D8019091E7
:100DE000D901069709F08BCF0E94860560E080E06C
:100DF0000E94520586E891E00E94C40461E085E00B
:100E00000E9452058AE991E00E94C40462E088E0F1
:100E10000E945205C090D601D090D7010D2C000C35
:100E2000EE08FF084AE0C701B601F7FE0EC041E038
:100E30006DE281EB92E00E943B0566277727CB01AC
:100E40006C197D098E099F094AE00E947604809101
:100E5000A3029091A4029093D7018093D6014FCF23
:100E600085ED8093BC0080916C0290916D02A09101
:100E70006E02B0916F020796A11DB11D23E0B695D9
:100E8000A795979587952A95D1F72091BC0024FDC9
:100E900003C010926A02089540916C0250916D0255
:100EA00060916E0270916F02452B462B472B69F3C0
:100EB0000097A105B10541F025E32A95F1F700005F
:100EC0000197A109B109E1CF80916B020C94150241
:100ED0001F920F920FB60F9211242F933F938F936F
:100EE0009F93AF93BF938091930290919402A091AE
:100EF0009502B09196023091920223E0230F2D3794
:100F000058F50196A11DB11D209392028093930282
:100F100090939402A0939502B093960280919702C9
:100F200090919802A0919902B0919A020196A11D08
:100F3000B11D8093970290939802A0939902B09369
:100F40009A02BF91AF919F918F913F912F910F90F6
:100F50000FBE0F901F90189526E8230F0296A11D33
:100F6000B11DD2CF1F920F920FB60F9211242F9363
:100F70003F934F935F936F937F938F939F93AF9321
:100F8000BF93EF93FF93E0910201F0910301099564
:100F9000FF91EF91BF91AF919F918F917F916F9151
:100FA0005F914F913F912F910F900FBE0F901F9027
:100FB00018951F920F920FB60F9211242F933F9303
:100FC0004F935F936F937F938F939F93AF93BF9351
:100FD000EF93FF93E0910001F09101010995FF91DA
:100FE000EF91BF91AF919F918F917F916F915F91A1
:100FF0004F913F912F910F900FBE0F901F9018951A
:101000001F920F920FB60F9211242F933F934F937D
:101010005F936F937F938F939F93AF93BF93EF9360
:10102000FF938091B900887F803609F44AC0F0F5BB
:10103000883209F4A7C018F5803109F49BC0B8F4D0
:10104000882309F4F9C0883009F494C0FF91EF9126
:10105000BF91AF919F918F917F916F915F914F91D0
:101060003F912F910F900FBE0F901F9018958831D0
:1010700009F488C0803251F78093680214C080342C
:1010800009F49DC040F48033B9F38833F9F68093B6
:10109000680285ECB0C0803509F485C0883509F454
:1010A00096C0883499F60E943007D0CF883909F469
:1010B0008CC038F5883729F050F4883611F0803725
:1010C00029F683E080936A021092430257C0883861
:1010D00009F47BC0803919F0803809F0B7CF8091CE
:1010E0004302803208F071C0E091430281E08E0F2C
:1010F000809343028091BB00F0E0ED5DFD4F808363
:101100003DC0803B39F0E0F4803A09F479C0883A78
:1011100009F09CCF84E080936A0210922202109220
:101120002102E0919D02F0919E0209958091210299
:1011300081110FC081E0809321021092010209C049
:10114000803C09F4A6CF883C09F4A3CF883B09F082
:101150007DCFE091220281E08E0F80932202F0E0A9
:10116000EF5FFD4F80818093BB00909122028091C0
:10117000210229C0809145028093BB0085EC8093B9
:10118000BC0064CF9091670280916602981758F571
:10119000E091670281E08E0F80936702F0E0EA5BE6
:1011A000FD4F8081E9CFE091670281E08E0F80934F
:1011B00067028091BB00F0E0EA5BFD4F8083909175
:1011C0006702809166029817C8F285E8D8CFE0914F
:1011D000670281E08E0F809367028091BB00F0E090
:1011E000EA5BFD4F80838091690281115CCF81E0D1
:1011F0008093440284EA8093BC0010926A0226CF56
:1012000085EC8093BC0010926A0280914302803288
:1012100030F4E0914302F0E0ED5DFD4F108260910B
:10122000430270E0E0919B02F0919C0283E292E025
:101230000995109243020ACF1092680234CFE5EA72
:10124000F2E01382128288EE93E0A0E0B0E08483A3
:101250009583A683B78388E191E091838083E1EB56
:10126000F2E0138212828AE291E09183808387E226
:10127000848384E1818784E082871386089578944B
:1012800084B5826084BD84B5816084BD85B582608B
:1012900085BD85B5816085BD80916E00816080933C
:1012A0006E001092810080918100826080938100A5
:1012B00080918100816080938100809180008160B5
:1012C000809380008091B10084608093B100809110
:1012D000B00081608093B00080917A008460809338
:1012E0007A0080917A00826080937A0080917A00FF
:1012F000816080937A0080917A00806880937A0080
:101300001092C10086EA93E090930301809302015A
:1013100080916900837F80936900E99A60E084E0AE
:101320000E943B0160E082E00E943B0162E083E0BA
:101330000E943B011092A2021092A1021092A00200
:1013400010929F020E94F7018CE890E090939E0219
:1013500080939D028DE890E090939C0280939B0285
:101360001092B6028091BB02823018F098E0909300
:10137000B6028093B90262E370E080E090E00E94E0
:101380009C016091BC0281EB92E00E94BC0268EE7D
:1013900073E080E090E00E949C0160E381EB92E0CA
:1013A0000E942205CBE4D6E4CE010197F1F760E379
:1013B00081EB92E00E9422052197F1F760E381EB37
:1013C00092E00E94220583E592E00197F1F760E246
:1013D00081EB92E00E9422056091B602606240E0DB
:1013E00081EB92E00E943B0584E08093B70240E0ED
:1013F0006CE081EB92E00E943B050E94860582E052
:101400008093B80240E066E081EB92E00E943B05E9
:1014100040E062E081EB92E00E943B058BE39FE1BC
:101420000197F1F788E08093BC0260E081EB92E0E5
:101430000E94BC020E94860560E080E00E94520586
:1014400084EA91E00E94C40464EF71E080E090E0DF
:101450000E949C0160E080E00E9452058FEA91E0CA
:101460000E94C40464EF71E080E090E00E949C015F
:1014700060E080E00E9452058BEB91E00E94C40482
:1014800064EF71E080E090E00E949C0160E080E009
:101490000E94520588EC91E00E94C40464EF71E060
:1014A00080E090E00E949C010E942506C0E0D0E010
:1014B00084E00E94E40081309105A9F42091A30208
:1014C0003091A4021216130674F42091A3023091F5
:1014D000A402215031093093A4022093A3029093D7
:1014E00005018093040182E00E94E40081309105AF
:1014F000A1F42091A3023091A402243631056CF4AA
:1015000090930501809304018091A3029091A4021D
:1015100001969093A4028093A3020E94250662E3A1
:1015200070E080E090E00E949C01209709F20E9408
:101530000000BECF2F923F924F925F926F927F92A8
:101540008F929F92AF92BF92CF92DF92EF92FF92D3
:101550000F931F93CF93DF93CDB7DEB7CA1BDB0B7F
:101560000FB6F894DEBF0FBECDBF09942A88398824
:1015700048885F846E847D848C849B84AA84B9842B
:10158000C884DF80EE80FD800C811B81AA81B98137
:10159000CE0FD11D0FB6F894DEBF0FBECDBFED014B
:1015A0000895A1E21A2EAA1BBB1BFD010DC0AA1FA4
:1015B000BB1FEE1FFF1FA217B307E407F50720F0BC
:1015C000A21BB30BE40BF50B661F771F881F991F37
:1015D0001A9469F760957095809590959B01AC0180
:1015E000BD01CF010895EE0FFF1F0590F491E02D8E
:1015F00009940F931F93CF93DF938230910510F4DA
:1016000082E090E0E091BF02F091C00230E020E083
:10161000B0E0A0E0309799F42115310509F44AC0F3
:10162000281B390B24303105D8F58A819B8161153F
:10163000710589F1FB0193838283FE0111C0408112
:1016400051810281138148175907E0F04817590763
:1016500099F4109761F012960C93129713961C93BD
:101660003296CF01DF91CF911F910F910895009392
:10167000BF021093C002F4CF2115310551F042177B
:10168000530738F0A901DB019A01BD01DF01F80120
:10169000C1CFEF01F9CF9093C0028093BF02CDCFAD
:1016A000FE01E20FF31F8193919322503109398398
:1016B0002883D7CF2091BD023091BE02232B41F465
:1016C00020910801309109013093BE022093BD02A0
:1016D00020910601309107012115310541F42DB704
:1016E0003EB740910A0150910B01241B350BE0914C
:1016F000BD02F091BE02E217F307A0F42E1B3F0BD0
:101700002817390778F0AC014E5F5F4F2417350773
:1017100048F04E0F5F1F5093BE024093BD0281936D
:1017200091939FCFF0E0E0E09CCFCF93DF930097C1
:10173000E9F0FC01329713821282A091BF02B091AE
:10174000C002ED0130E020E01097A1F4208131814A
:10175000820F931F2091BD023091BE0228173907D6
:1017600009F061C0F093BE02E093BD02DF91CF911A
:101770000895EA01CE17DF07E8F54A815B819E01F3
:1017800041155105B1F7E901FB83EA83499159916C
:10179000C40FD51FEC17FD0761F48081918102967B
:1017A000840F951FE90199838883828193819B83AC
:1017B0008A83F0E0E0E012968D919C911397009758
:1017C000B9F52D913C911197CD010296820F931F8F
:1017D0002091BD023091BE022817390739F63097A3
:1017E00051F51092C0021092BF02B093BE02A093B6
:1017F000BD02BCCFD383C28340815181840F951F2A
:10180000C817D90761F44E5F5F4F88819981480FEF
:10181000591F518340838A819B8193838283211541
:10182000310509F0B0CFF093C002E093BF029ECF24
:10183000FD01DC01C0CF13821282D7CFB0E0A0E05F
:10184000E4E2FCE00C949C0A8C01009751F4CB017B
:101850000E94F90A8C01C801CDB7DEB7E0E10C9413
:10186000B80AFC01E60FF71F9C0122503109E2176C
:10187000F30708F49DC0D901CD91DC911197C617EB
:10188000D70798F0C530D10530F3CE0104978617FD
:10189000970708F3C61BD70B2297C193D1936D937B
:1018A0007C93CF010E94950BD6CF5B01AC1ABD0A89
:1018B0004C018C0E9D1EA091BF02B091C002512C14
:1018C000412CF12CE12C109731F58091BD029091C3
:1018D000BE028815990509F05CC04616570608F047
:1018E00058C08091060190910701009741F48DB78F
:1018F0009EB740910A0150910B01841B950BE8178C
:10190000F90708F055C0F093BE02E093BD02F9015B
:1019100071836083A0CF8D919C91119712966C90EA
:10192000129713967C901397A815B90559F56C0179
:1019300042E0C40ED11CCA14DB0420F1AC014A19E8
:101940005B09DA011296159780F0628273825183E7
:101950004083D9016D937C93E114F10471F0D701B8
:101960001396FC93EE93129776CF22968C0F9D1FC1
:10197000F90191838083F301EFCFF093C002E093EC
:10198000BF0269CF4816590608F42C017D01D30126
:101990009ACFCB010E94F90A7C01009749F0AE0171
:1019A000B8010E94DB0CC8010E94950B870153CF40
:1019B00010E000E050CFFB01DC0102C001900D926D
:1019C00041505040D8F70895FB01DC0101900D9281
:0A19D0000020E1F70895F894FFCF1E
:1019DA00CE01CE0101000000C102800000004000DB
:1019EA0014005400000000008D026002A3033602B6
:1019FA00590246023702000000001F068E00A303A8
:101A0A00CF013E004F7063696F6E31004F7063699A
:101A1A006F6E32004F7063696F6E33004F70636987
:101A2A006F6E34004F7063696F6E35004F70636973
:101A3A006F6E36004174726173004F7063696F6E26
:101A4A003131004F7063696F6E313131004F70630D
:101A5A00696F6E32310050756C7361207061736109
:101A6A002073616C69722E2E2E00436F6E7461644E
:101A7A006F723A0020494E494349414E444F002073
:101A8A00494E494349414E444F2E0020494E49434D
:101A9A0049414E444F2E2E0020494E494349414E5A
:061AAA00444F2E2E2E0019
:00000001FF
