:020000040000FA
:100000000C9463000C94770E0C94500E0C948B009F
:100010000C948B000C948B000C948B000C948B0034
:100020000C948B000C948B000C948B000C948B0024
:100030000C948B000C948B000C948B000C948B0014
:100040000C94060E0C948B000C94D40D0C94AE0DF5
:100050000C948B000C948B000C948B000C948B00F4
:100060000C949E0E0C948B000000000024002700CE
:100070002A0000000000250028002B0000000008D6
:10008000000201000003040700000000000000005F
:1000900000000000230026002900040404040404D6
:1000A0000404020202020202030303030303010227
:1000B00004081020408001020408102001020408F6
:1000C0001020BD0F831211241FBECFEFD8E0DEBF7A
:1000D000CDBF24E0A0E9B2E001C01D92A134B20777
:1000E000E1F712E0A0E0B1E0E2E9FEE202C0059033
:1000F0000D92A039B107D9F710E0C2E6D0E004C0F4
:100100002197FE010E944415C136D107C9F70E940C
:100110002A100C943C170C940000CF92DF92EF92BF
:10012000FF92CF93DF93B0912504A0E08111AB2F14
:100130008091260490E0880F991FAC0140575F4FD3
:10014000C0902B04D0902C04E0902D04F0902E044D
:1001500030E020E0FA01C591D491E881B90190E046
:1001600080E0EB23EA130AC02F5F3F4F6C157D053B
:100170008E059F0578F36FEF7FEFCB01DF91CF9175
:10018000FF90EF90DF90CF900895FC01538D448D48
:10019000252F30E0842F90E0821B930B541710F032
:1001A000CF96089501970895FC01918D828D98173F
:1001B00061F0A28DAE0FBF2FB11D5D968C91928D17
:1001C0009F5F9F73928F90E008958FEF9FEF089548
:1001D000FC01918D828D981731F0828DE80FF11D11
:1001E000858D90E008958FEF9FEF0895FC01918D2C
:1001F000228D892F90E0805C9F4F821B91098F7325
:1002000099270895FC01A48DA80FB92FB11DA35AF9
:10021000BF4F2C91848D90E001968F739927848F26
:10022000A689B7892C93A089B1898C918370806449
:100230008C93938D848D981306C00288F389E02DEA
:1002400080818F7D80830895EF92FF920F931F939B
:10025000CF93DF93EC0181E0888F9B8D8C8D981379
:100260001AC0E889F989808185FF15C09FB7F89485
:10027000EE89FF896083E889F989808183708064D1
:1002800080839FBF81E090E0DF91CF911F910F911C
:10029000FF90EF900895F62E0B8D10E00F5F1F4F2B
:1002A0000F731127E02E8C8D8E110CC00FB607FC3A
:1002B000FACFE889F989808185FFF5CFCE010E94C8
:1002C0000201F1CFEB8DEC0FFD2FF11DE35AFF4F33
:1002D000F0829FB7F8940B8FEA89FB898081806256
:1002E000CFCFCF93DF93EC01888D8823B9F0AA8913
:1002F000BB89E889F9898C9185FD03C0808186FDE1
:100300000DC00FB607FCF7CF8C9185FFF2CF80812F
:1003100085FFEDCFCE010E940201E9CFDF91CF91A1
:1003200008958FE693E00E94F60021E0892B09F4FE
:1003300020E0822F089580E090E0892B29F00E9430
:10034000910181110C940000089508950895AF92D1
:10035000BF92CF92DF92EF92FF920F931F93CF93B2
:10036000DF936C017B018B01040F151FEB015E0114
:10037000AE18BF08C017D10759F06991D601ED91A9
:10038000FC910190F081E02DC6010995892B79F748
:10039000C501DF91CF911F910F91FF90EF90DF90FA
:1003A000CF90BF90AF900895FC014481558160814A
:1003B000718181E394E00C94A701833081F028F4EB
:1003C000813099F08230A9F008958730A9F0883003
:1003D000C9F08430B1F4809180008F7D03C080919A
:1003E00080008F7780938000089584B58F7784BDD7
:1003F000089584B58F7DFBCF8091B0008F77809377
:10040000B00008958091B0008F7DF9CFCF93DF9336
:10041000282F30E0F901E458FF4F8491F901E255AB
:10042000FF4FD491F901E656FF4FC491CC23A1F0C0
:1004300081110E94DD01EC2FF0E0EE0FFF1FE0576D
:10044000FF4FA591B491EC91ED2381E090E009F488
:1004500080E0DF91CF91089580E090E0FACF1F9384
:10046000CF93DF93282F30E0F901E458FF4F8491B8
:10047000F901E255FF4FD491F901E656FF4FC491BF
:10048000CC23A9F0162F81110E94DD01EC2FF0E0A2
:10049000EE0FFF1FEE58FF4FA591B4918FB7F89460
:1004A000EC91111108C0D095DE23DC938FBFDF9152
:1004B000CF911F910895DE2BF8CFCF93DF9390E07B
:1004C000FC01E255FF4F249186569F4FFC01849119
:1004D0008823C9F090E0880F991FFC01E859FF4F6D
:1004E000A591B491FC01EE58FF4FC591D4916111D3
:1004F0000DC09FB7F8948C91209582238C938881AE
:10050000282328839FBFDF91CF910895623051F453
:100510009FB7F8943C91822F809583238C93E88138
:100520002E2BEFCF8FB7F894EC912E2B2C938FBFFF
:10053000EACF3FB7F89480914D0390914E03A0917C
:100540004F03B091500326B5A89B05C02F3F19F06B
:100550000196A11DB11D3FBFBA2FA92F982F882743
:10056000BC01CD01620F711D811D911D42E0660F1E
:10057000771F881F991F4A95D1F708958F929F92F0
:10058000AF92BF92CF92DF92EF92FF924B015C014C
:100590000E9499026B017C010E9499026C197D09ED
:1005A0008E099F09683E734081059105A8F321E0FB
:1005B000821A9108A108B10888EEC80E83E0D81EFF
:1005C000E11CF11C81149104A104B10429F7FF90EE
:1005D000EF90DF90CF90BF90AF909F908F90089555
:1005E0002FB7F8946091490370914A0380914B03AF
:1005F00090914C032FBF0895CF92DF92EF92FF921C
:100600000F931F93CF93DF93CDB7DEB7C054D14084
:100610000FB6F894DEBF0FBECDBF0E94F00200916E
:100620002704109128042091290430912A046B0199
:100630007C01C01AD10AE20AF30A97018601003D43
:1006400017402105310590F480912F04C05CDE4FE6
:100650000FB6F894DEBF0FBECDBFDF91CF911F91D3
:100660000F91FF90EF90DF90CF9008956093270453
:10067000709328048093290490932A0410922204F2
:10068000109221041092200410921F0410921E0454
:1006900062E0809123040E945D0261E070E080E0EE
:1006A00090E00E94BE0261E0809123040E945D02FE
:1006B00060E0809123040E942F02809124048551E0
:1006C000823020F58BE291E10197F1F762E08091B1
:1006D00023040E945D028091300490E082309105F5
:1006E00038F0880F991F880F991F05970197F1F728
:1006F000F89480E00E948D006F3F7F4F8F4F9F4F97
:1007000061F410922F04789480E0A0CF64E170E04F
:1007100080E090E00E94BE02D9CF81E00E948D006F
:100720006F3F7F4F8F4F9F4F61F38E010F5F1F4FC2
:100730006E012FEBC21A2EEFD20A780180E00E94E0
:100740008D00F701608371838283938381E00E942F
:100750008D00F7016483758386839783F8E0EF0E3D
:10076000F11CEC14FD0451F7789430E020E0F8011E
:10077000C080D180E280F380448155816681778199
:10078000FFEFCF16DF06EF06FF0631F04F3F8FEF8A
:1007900058076807780719F410922F04B5CFF901AC
:1007A00083E0F595E7958A95E1F7E25EFB4F80815E
:1007B000880FC416D506E606F70610F180832F5F72
:1007C0003F4F085F1F4F2832310589F640912204C0
:1007D00020911E0480911F04280F3327331F80911E
:1007E0002004280F311D80912104820F932F911D29
:1007F00099274817190681F681E080932F0426CFA8
:100800008160DCCF0F931F930E94F002AB01BC010B
:100810008091900290919102A0919202B0919302E6
:100820008A019B01081B190B2A0B3B0BD901C8013C
:100830000697A105B10590F1809100019091010109
:100840008C30910509F4D0C00CF043C08330910581
:1008500009F4E1C034F58130910509F48CC00CF045
:1008600097C0892B09F469C080910F019091100104
:10087000909301018093000110926E0310926D031A
:1008800081E090E0909312018093110140939002D7
:100890005093910260939202709393021F910F9173
:1008A00008958A30910509F473C00CF076C0843045
:1008B0009105D1F620916D0330916E032130310501
:1008C00009F44AC02230310509F4C5C0232B61F672
:1008D0005FC08137910509F484C0DCF48F3691053F
:1008E00009F478C00CF07DC08F31910509F0BCCFC0
:1008F00020916D0330916E032130310569F1223072
:10090000310509F496C0232B09F0AECF83E090E0C7
:1009100023C08A37910571F08B37910559F08937DB
:10092000910509F0A1CF80916D0390916E03892B01
:1009300009F09ACF8CE090E00FC080916D03909108
:100940006E038230910511F364F4009789F10197E9
:1009500009F08ACF82E090E09093100180930F011C
:1009600083CF8330910509F476C0059709F07CCFD9
:100970008AE090E0F1CF80916D0390916E03813019
:10098000910579F182309105A9F2892B09F06CCF9C
:100990001092100110920F0167CF80916D0390911A
:1009A0006E038130910581F034F4892B09F05CCF1E
:1009B00081E090E0D1CF8230910549F0039709F0B2
:1009C00053CF81E790E0C8CF8FE690E0C5CF80E7B6
:1009D00090E0C2CF80916D0390916E03892B09F056
:1009E00043CF8BE090E0B8CF80916D0390916E0380
:1009F0008130910551F0CCF28230910549F0039796
:100A000009F032CF8BE790E0A7CF89E790E0A4CF41
:100A10008AE790E0A1CF80916D0390916E038230C0
:100A2000910599F04CF4009709F4B2CF019709F0C1
:100A30001BCF8FE190E090CF8330910549F0049770
:100A400009F012CF82E290E087CF80E290E084CF7D
:100A500081E290E081CF84E090E07ECF0895089518
:100A60002091D702260F3327331F21323105ECF4B2
:100A700020912003FC0190E080E0243069F082E0C6
:100A80000895A091D7022191AC0149545D4FA40F64
:100A9000B52FB11D2C930196861798F38091D7023C
:100AA000680F6093D70280E0089581E00895109266
:100AB000200381E080931F031092FA0261E082E13B
:100AC0000E942F0261E083E10E942F02E9EBF0E037
:100AD00080818E7F808380818D7F808388E4809376
:100AE000B80085E48093BC000895CF93DF9391E034
:100AF0009093B6028823B9F0C091B800D091BA00A3
:100B00008091BC008A7B8093BC0060E082E10E94FF
:100B10002F0260E083E10E942F020E945705D093CC
:100B2000BA00C093B800DF91CF9108950895E09185
:100B3000580380915703E81730F4F0E0EA56FD4F70
:100B4000808190E008958FEF9FEF08959091580372
:100B5000809157032FEF3FEF981748F4E92FF0E00B
:100B6000EA56FD4F208130E09F5F90935803C90102
:100B700008958091570390915803891B990B08950C
:100B8000CF92DF92EF92FF920F931F93CF93DF9359
:100B90007C01CB018A0120912603222389F0EB01FD
:100BA0006B01C40ED51ECC15DD0569F06991D70126
:100BB000ED91FC910190F081E02DC7010995F3CFF3
:100BC000642F0E943005C801DF91CF911F910F91D2
:100BD000FF90EF90DF90CF900895CF93DF931F9217
:100BE000CDB7DEB76983209126032223F9F0209147
:100BF0005503203258F021E030E0FC01338322839A
:100C000090E080E00F90DF91CF910895809156039E
:100C1000E82FF0E0E95DFC4F998190838F5F80932E
:100C200056038093550381E090E0ECCF61E0CE0164
:100C300001960E943005F7CFCF92DF92EF92FF929C
:100C40000F931F93CF93DF93FC01C48121E0209386
:100C50002603C093470310925603109255038385D1
:100C6000682B8CE094E00E94ED05D0915503D132C1
:100C700008F092C00E9499026B017C0180912003D0
:100C8000811165C082E08093200381E080931F037F
:100C90008FEF80931E0310921D03D0931C03A7E2D5
:100CA000B3E0ECEFF2E080E0D81385C01092FB02D5
:100CB0008091FB02CC0FC82BC093FB028091FA02FB
:100CC000813009F07CC01092FA020E9499026B01F7
:100CD0007C018091FB028093BB0080912203909164
:100CE0002303A0912403B0912503892B8A2B8B2BFE
:100CF00099F00E9499020091220310912303209100
:100D00002403309125036C197D098E099F0906176C
:100D1000170728073907E0F18091BC0083FDD9CF80
:100D200085EC8093BC000E9499026B017C0180914C
:100D30002003823009F445C080911E038F3F61F18A
:100D400080911E03803241F180911E0325C0809165
:100D5000220390912303A0912403B0912503892BB2
:100D60008A2B8B2B09F48ACF0E94990200912203CF
:100D70001091230320912403309125036C197D09E0
:100D80008E099F09061717072807390708F076CF3D
:100D9000809121030E94750510925603109255030D
:100DA00010922603DF91CF911F910F91FF90EF904A
:100DB000DF90CF9008959D9191938F5F75CF85EED1
:100DC000B0CF8091220390912303A0912403B0918E
:100DD0002503892B8A2B8B2B09F4A9CF0E9499021A
:100DE00000912203109123032091240330912503C5
:100DF0006C197D098E099F090617170728073907FF
:100E000008F095CFC5CF90E080E008959093100151
:100E100080930F01909301018093000181E090E0A5
:100E2000909312018093110110926E0310926D0342
:100E300008950F931F93CF938C01C62F0E941C0619
:100E40006C2F6460C8010E941C066C2F6B7FC80168
:100E50000E941C0683EC90E00197F1F7CF911F915F
:100E60000F9108950F931F93CF93DF938C01D62F8B
:100E7000C42F607F642B0E94190780E1D89FB001C6
:100E800011246C2BC801DF91CF911F910F910C940D
:100E90001907CF93DF93CDB7DEB728970FB6F89435
:100EA000DEBF0FBECDBF98E0E9E1F1E0DE011196B3
:100EB00001900D929A95E1F790913904961710F4EC
:100EC0006FEF690F262F30E0220F331F41E050E013
:100ED0004C0F5D1F240F351FF9016081680F60689A
:100EE00040E081E394E028960FB6F894DEBF0FBE91
:100EF000CDBFDF91CF910C94320740E061E081E3F8
:100F000094E00E9432078BE39FE10197F1F7089587
:100F100041E00E94320781E090E00895FC010190D9
:100F20000020E9F73197AF01481B590BBC0181E361
:100F300094E00C94A7018F929F92AF92BF920F936F
:100F40001F93CF93DF93CDB7DEB7A1970FB6F89479
:100F5000DEBF0FBECDBF19A2423008F44AE08E01B9
:100F60000F5D1F4F842E912CB12CA12CA501940153
:100F70000E940E15E62FB901CA01EA30F4F4E05DD3
:100F8000D801EE938D01232B242B252B79F790E0AC
:100F900080E0109719F0CD010E948E07A1960FB640
:100FA000F894DEBF0FBECDBFDF91CF911F910F919F
:100FB000BF90AF909F908F900895E95CE1CFCF9262
:100FC000DF92EF92FF926C01990FEE08FF08F7FE97
:100FD00016C041E06DE281E394E00E94320766278B
:100FE0007727CB016C197D098E099F094AE00E9481
:100FF0009B070196FF90EF90DF90CF9008954AE015
:10100000C701B601FF90EF90DF90CF900C949B0743
:101010000C948E07CF93DF939B01AC0180916D03FD
:1010200090916E03892B81F4C0916D03D0916E0372
:1010300068EE73E080E090E00E940E152C0F3D1FDB
:1010400030936E0320936D030E947D0760E080E083
:101050000E94490781E591E00E94080861E081E073
:101060000E94490785E691E00E94080862E088E056
:101070000E94490780916D0390916E030E94DF07E3
:1010800060916D0370916E0388EE93E00E94FA14F4
:10109000072E000C880B990BDF91CF9108959F923A
:1010A000AF92BF92CF92DF92EF92FF920F931F9376
:1010B000CF93DF938C017B010E947D0760E080E08D
:1010C0000E94490780916D0390916E0397FD08C0BF
:1010D00080916D0390916E03E816F9060CF441C0FF
:1010E00080916D0390916E0397FD3DC080916D03DB
:1010F00090916E0390936E0380936D0380916D03C6
:1011000090916E03D0E0C0E00497ACF1C0906D0305
:10111000D0906E03560183E0A81AB108D0E0C0E079
:1011200086E0982E02511109AE14BF040CF044C0A1
:10113000CA14DB040CF440C06C2F82E00E94490703
:1011400096012C0F3D1F929EC001939E900D11247D
:10115000800F911F0E94D4018FEFA81AB80A219620
:10116000E3CFC701C7CF90E080E0C4CF0A5F1F4F35
:10117000C430D10559F06C2F82E00E944907C801A4
:101180000E94D4012196EC16FD0681F760916D0353
:1011900070916E0380E00E94490789E791E0DF913A
:1011A000CF911F910F91FF90EF90DF90CF90BF9064
:1011B000AF909F900C94080863E0ECCF4F925F9241
:1011C0006F927F928F929F92AF92BF92CF92DF9257
:1011D000EF92FF920F931F93CF936B017C01742EBC
:1011E000AC019B010E94F514882399F08BE791E0F4
:1011F000CF911F910F91FF90EF90DF90CF90BF9014
:10120000AF909F908F907F906F905F904F900C94D5
:101210008E0746015701E894B7F82FEF3FEF4FE7ED
:101220005FE7C501B4010E94F51481110DC02FEFD5
:101230003FEF4FE75FE7C501B4010E948712181620
:101240001CF48FE791E0D4CF2FEF3FEF4FE75FE43F
:10125000C701B6010E94F01418161CF483E891E04F
:10126000C7CF2FEF3FEF4FE75FECC701B6010E94FA
:10127000871287FDF3CF20E030E0A901C701B60156
:101280000E94871210E000E087FF0CC041E06DE291
:1012900081E394E00E943207F7FAF094F7F8F094B3
:1012A00001E010E0C0E060E070E080E09FE37C16C9
:1012B00041F020E030E040E251E40E944F14CF5F63
:1012C000F6CFA70196010E94E3134B015C010E9437
:1012D000C1142B013C014AE00E949B07080F191F13
:1012E000CC23C9F1C301B2010E948C129B01AC0155
:1012F000C501B4010E94E2134B015C0141E06EE2C2
:1013000081E394E00E9432070F5F1F4FC15018F134
:1013100020E030E040E251E4C501B4010E94ED124A
:101320002B013C010E94C1144B01B12CA12C4AE0BD
:10133000C501B4010E949B07080F191FC501B40124
:101340000E948C129B01AC01C301B2010E94E21306
:101350004B015C01DBCFC801CF911F910F91FF9032
:10136000EF90DF90CF90BF90AF909F908F907F9045
:101370006F905F904F900895FC018081918100975C
:1013800011F00C94E61508950F931F93CF93DF93FC
:10139000EC0188819981009759F02A813B812617B9
:1013A000370730F081E0DF91CF911F910F910895C1
:1013B0008B016F5F7F4F0E946F16009759F09983E2
:1013C00088831B830A832C813D81232B59F7FC01E1
:1013D0001082E8CF80E0E7CFEF92FF920F931F9348
:1013E000CF93DF93EC017B01198218821B821A8252
:1013F0001D821C82FB0101900020E9F731978F01CB
:10140000061B170BB8010E94C4092881398181117C
:1014100013C02115310519F0C9010E94E615198282
:1014200018821D821C821B821A82DF91CF911F912C
:101430000F91FF90EF9008951D830C83B701C901B0
:10144000DF91CF911F910F91FF90EF900C94351782
:101450000F931F93CF93DF938C01EC010990002031
:10146000E9F72197C81BD90BBE0188E194E00E94DF
:10147000C4092091180430911904811117C0211555
:10148000310519F0C9010E94E61510921904109255
:10149000180410921D0410921C0410921B04109248
:1014A0001A04DF91CF911F910F910895D0931D04DD
:1014B000C0931C04B801C901DF91CF911F910F9116
:1014C0000C9435178F929F92AF92BF92CF92DF927A
:1014D000EF92FF920F931F93CF93DF93CDB7DEB7B9
:1014E000A4970FB6F894DEBF0FBECDBF81E0809306
:1014F0000601109212011092110180910F0190913A
:1015000010010A9709F0ECC00E94FC02882349F000
:10151000809124048B3028F08D3050F0855182303A
:10152000C8F1812C912C20ECA22E2FE7B22E1EC0E8
:1015300060911F0470E090E080E00E948E122DEC1C
:101540003CEC4CEC5DE30E94ED126B017C01609180
:101550001E0470E090E080E00E948E129B01AC01BE
:10156000C701B6010E94E3134B015C010E94FC021B
:10157000882309F474C0809124048C3009F402C1DA
:10158000D8F48B3091F1C12CD12C80ECE82E8FE770
:10159000F82E55C060911E0470911F0476276727AE
:1015A000762790E080E00E948C122DEC3CEC4CEC15
:1015B0005DE30E94ED12D8CF8551823020F7109163
:1015C0002004612F70E0762F662766277F77809151
:1015D0002104682B90E080E00E948C122DEC3CEC02
:1015E0004CEC5DE30E94ED12E9C06091200470E0D4
:1015F00090E080E00E948C126B017C01109121042C
:1016000017FF0AC0AC019B0160E070E080E89FEB2F
:101610000E94E2136B017C011F70612F70E090E06B
:1016200080E00E948E122DEC3CEC4CEC5DE30E94BD
:10163000ED12A70196010E94E3136B017C01A50145
:101640009401C501B4010E94F514811108C0A701DD
:101650009601C701B6010E94F514882329F0C12C18
:10166000D12C7601460157010E947D0760E080E0A1
:101670000E94490787E891E00E94080861E083E042
:101680000E94490785E991E00E94080861E08CE02A
:101690000E94490742E0C701B6010E94DE0862E0ED
:1016A00083E00E9449078CE991E00E94080862E00B
:1016B0008CE00E94490742E0C501B4010E94DE08A7
:1016C00063E081E00E94490784EA91E00E940808F3
:1016D00063E086E00E94490788E194E00E94D4011B
:1016E00080910F0190911001892B09F070C06AEA76
:1016F00071E08E010F5F1F4FC8010E94EC0969EB7A
:1017000071E0CE0107960E94EC0962EC71E0CE0117
:101710000D960E94EC096AEC71E0CE0143960E949E
:10172000EC0962ED71E0CE0149960E94EC096AED88
:1017300071E0CE014F960E94EC0966E070E0C801AE
:101740000E944F087E0185E2E80EF11C86E0E81A4F
:10175000F108C7010E94BC090E151F05B9F7A49630
:101760000FB6F894DEBF0FBECDBFDF91CF911F91B2
:101770000F91FF90EF90DF90CF90BF90AF909F9030
:101780008F90089510912004612F70E090E080E028
:101790000E948C126B017C01609121046F7070E0DB
:1017A00090E080E00E948E122DEC3CEC4CEC5DE36E
:1017B0000E94ED12A70196010E94E3136B017C01C8
:1017C00017FF3DCFF7FAF094F7F8F09438CF8091F7
:1017D0000F01909110010197C9F465EE71E0CE01FF
:1017E00001960E94EC0964EF71E0CE0107960E9419
:1017F000EC096BE172E0CE010D960E94EC0963E00A
:1018000070E0CE0101960E944F0828C080910F0120
:10181000909110010B9779F56BEE71E0CE01019676
:101820000E94EC0969EF71E0CE0107960E94EC0975
:1018300067E072E0CE010D960E94EC0960E072E074
:10184000CE0143960E94EC0964E070E0CE0101965F
:101850000E944F08CE0143960E94BC09CE010D960E
:101860000E94BC09CE0107960E94BC09CE010196D8
:101870000E94BC0974CF80910F01909110018F36A6
:10188000910589F41091630381E01827612F88E0A6
:101890000E942F0210936303109268038BE090E084
:1018A0000E9406075CCF80910F0190911001803754
:1018B000910599F460910B0170910C0180910D01DB
:1018C00090910E010E940A0860930B0170930C0125
:1018D00080930D0190930E0142CF80910F01909162
:1018E00010018137910559F48091680391E08927AF
:1018F0008093680360E088E00E942F02CFCF809140
:101900000F01909110010C9749F462E172E0CE0151
:1019100001960E94EC0960E272E086CF80910F018F
:10192000909110018937910579F41092620310911A
:101930005D0381E01827612F89E00E942F02109338
:101940005D038CE090E0ACCF80910F01909110018D
:101950008A37910599F4609107017091080180918F
:10196000090190910A010E940A086093070170938F
:1019700008018093090190930A01F1CE80910F0133
:10198000909110018B37910559F48091620391E099
:1019900089278093620360E089E00E942F02D1CF03
:1019A00080910F0190911001029799F580916D033C
:1019B00090916E03892B41F480919402909195024D
:1019C00090936E0380936D030E947D0760E080E03A
:1019D0000E94490781E591E00E94080861E085E0E6
:1019E0000E94490788E292E00E94080862E088E0CD
:1019F0000E94490780916D0390916E030E94DF075A
:101A000080916D0390916E03909395028093940260
:101A1000A6CE80910F0190911001039749F565EED4
:101A200071E0CE0101960E94EC0962E372E0CE0102
:101A300007960E94EC0969E372E0CE010D960E94C0
:101A4000EC096FE372E0CE0143960E94EC0966E474
:101A500072E0CE0149960E94EC0965E070E0CE018B
:101A600001960E944F08CE0149960E94BC09F2CE11
:101A700080910F01909110014F9739F482E392E029
:101A80000E94280A8AE090E00BCF80910F0190918C
:101A90001001809719F489E392E0F2CF80910F0151
:101AA00090911001819719F48FE392E0E9CF809132
:101AB0000F0190911001829719F486E492E0E0CF33
:101AC00080910F0190911001049709F048CE65EEC6
:101AD00071E0CE0101960E94EC096BE472E0CE0148
:101AE00007960E94EC0964E572E085CE85ED80934F
:101AF000BC008091220390912303A0912403B09114
:101B000025030796A11DB11D23E0B695A7959795CE
:101B100087952A95D1F72091BC0024FD03C010922F
:101B200020030895409122035091230360912403E0
:101B300070912503452B462B472B69F30097A10590
:101B4000B10541F025E32A95F1F700000197A109BD
:101B5000B109E1CF809121030C9475051F920F927A
:101B60000FB60F9211242F933F934F935F936F9370
:101B70007F938F939F93AF93BF93EF93FF938FE6E2
:101B800093E00E940201FF91EF91BF91AF919F916D
:101B90008F917F916F915F914F913F912F910F9016
:101BA0000FBE0F901F9018951F920F920FB60F92B5
:101BB00011242F938F939F93EF93FF93E0917F03D3
:101BC000F09180038081E0918503F091860382FD8E
:101BD0001BC09081809188038F5F8F732091890350
:101BE000821741F0E0918803F0E0E159FC4F958FB6
:101BF00080938803FF91EF919F918F912F910F9088
:101C00000FBE0F901F9018958081F4CF1F920F92F6
:101C10000FB60F9211242F933F938F939F93AF93FF
:101C2000BF938091490390914A03A0914B03B091D7
:101C30004C033091480323E0230F2D3758F50196CC
:101C4000A11DB11D209348038093490390934A033B
:101C5000A0934B03B0934C0380914D0390914E039E
:101C6000A0914F03B09150030196A11DB11D809327
:101C70004D0390934E03A0934F03B0935003BF9135
:101C8000AF919F918F913F912F910F900FBE0F9029
:101C90001F90189526E8230F0296A11DB11DD2CFE3
:101CA0001F920F920FB60F9211242F933F934F93D1
:101CB0005F936F937F938F939F93AF93BF93EF93B4
:101CC000FF93E0910401F09105010995FF91EF91D7
:101CD000BF91AF919F918F917F916F915F914F9144
:101CE0003F912F910F900FBE0F901F9018951F924C
:101CF0000F920FB60F9211242F933F934F935F9340
:101D00006F937F938F939F93AF93BF93EF93FF93C3
:101D1000E0910201F09103010995FF91EF91BF91CC
:101D2000AF919F918F917F916F915F914F913F9173
:101D30002F910F900FBE0F901F9018951F920F922A
:101D40000FB60F9211242F933F934F935F936F938E
:101D50007F938F939F93AF93BF93EF93FF93809164
:101D6000B900887F803609F44AC0F0F5883209F45A
:101D7000A7C018F5803109F49BC0B8F4882309F492
:101D8000F9C0883009F494C0FF91EF91BF91AF91F1
:101D90009F918F917F916F915F914F913F912F9183
:101DA0000F900FBE0F901F901895883109F488C0CE
:101DB000803251F780931E0314C0803409F49DC013
:101DC00040F48033B9F38833F9F680931E0385EC31
:101DD000B0C0803509F485C0883509F496C08834D0
:101DE00099F60E94760DD0CF883909F48CC038F569
:101DF000883729F050F4883611F0803729F683E0CF
:101E0000809320031092F90257C0883809F47BC0F0
:101E1000803919F0803809F0B7CF8091F90280320B
:101E200008F071C0E091F90281E08E0F8093F90211
:101E30008091BB00F0E0E752FD4F80833DC0803BC6
:101E400039F0E0F4803A09F479C0883A09F09CCF7F
:101E500084E0809320031092D8021092D702E09180
:101E60005303F091540309958091D70281110FC05B
:101E700081E08093D7021092B70209C0803C09F438
:101E8000A6CF883C09F4A3CF883B09F07DCFE09131
:101E9000D80281E08E0F8093D802F0E0E954FD4F24
:101EA00080818093BB009091D8028091D70229C095
:101EB0008091FB028093BB0085EC8093BC0064CFD3
:101EC00090911D0380911C03981758F5E0911D0314
:101ED00081E08E0F80931D03F0E0E450FD4F808180
:101EE000E9CFE0911D0381E08E0F80931D03809167
:101EF000BB00F0E0E450FD4F808390911D03809182
:101F00001C039817C8F285E8D8CFE0911D0381E043
:101F10008E0F80931D038091BB00F0E0E450FD4FD5
:101F2000808380911F0381115CCF81E08093FA024E
:101F300084EA8093BC001092200326CF85EC809326
:101F4000BC00109220038091F902803230F4E091BD
:101F5000F902F0E0E752FD4F10826091F90270E063
:101F6000E0915103F091520389ED92E009951092AE
:101F7000F9020ACF10921E0334CFEFE6F3E013828A
:101F8000128288EE93E0A0E0B0E084839583A6837C
:101F9000B78325E231E03183208325EC30E03587BB
:101FA000248724EC30E03787268720EC30E0318B23
:101FB000208B21EC30E0338B228B22EC30E0358B10
:101FC000248B26EC30E0378B268B118E128E138EED
:101FD000148EECE0F4E01382128284839583A6834E
:101FE000B78387E391E091838083E1E3F4E0138298
:101FF000128289E491E09183808387E2848384E183
:10200000818784E082871386AEE1B4E085E015968F
:102010008C9315978BE016968C931697E3EBF0E074
:10202000E4911796EC931797EFE9F0E0E491189696
:10203000EC93189740E85EE360E070E01D964D93E6
:102040005D936D937C9350976BE872E088E194E028
:102050000C94EC09789484B5826084BD84B5816069
:1020600084BD85B5826085BD85B5816085BD809163
:102070006E00816080936E001092810080918100DB
:1020800082608093810080918100816080938100D3
:10209000809180008160809380008091B100846095
:1020A0008093B1008091B00081608093B0008091F6
:1020B0007A00846080937A0080917A0082608093B5
:1020C0007A0080917A00816080937A0080917A0012
:1020D000806880937A001092C10062E080912304AE
:1020E0000E945D020E94F002605D774081099109C3
:1020F00060932704709328048093290490932A0402
:1021000087E38093300482E094E09093050180930C
:10211000040180916900837F80936900E99A60E0FF
:1021200084E00E945D0260E082E00E945D0262E065
:1021300083E00E945D0261E088E00E945D0261E050
:1021400089E00E945D0261E088E00E942F0261E068
:1021500089E00E942F0210925803109257031092A8
:102160005603109255030E94570585EA91E090931B
:1021700054038093530386EA91E090935203809333
:1021800051031092360480913B04823018F098E09D
:10219000909336048093390462E370E080E090E02D
:1021A0000E94BE0260913C0481E394E00E941C0600
:1021B00068EE73E080E090E00E94BE0260E381E39D
:1021C00094E00E941907CBE4D6E4CE010197F1F721
:1021D00060E381E394E00E9419072197F1F760E33F
:1021E00081E394E00E94190783E592E00197F1F7FB
:1021F00060E281E394E00E94190760913604606216
:1022000040E081E394E00E94320784E08093370449
:1022100040E06CE081E394E00E9432070E947D0779
:1022200082E08093380440E066E081E394E00E941D
:10223000320740E062E081E394E00E9432078BE3E2
:102240009FE10197F1F788E080933C0460E081E32F
:1022500094E00E941C060E947D0760E080E00E94DE
:1022600049078DE592E00E94080864EF71E080E084
:1022700090E00E94BE0260E080E00E94490788E68C
:1022800092E00E94080864EF71E080E090E00E9414
:10229000BE0260E080E00E94490784E792E00E946D
:1022A000080864EF71E080E090E00E94BE0260E008
:1022B00080E00E94490781E892E00E94080864EFEC
:1022C00071E080E090E00E94BE0260E088E00E9441
:1022D0002F0260E089E00E942F028091110190910D
:1022E0001201019711F40E94620AFF24F394C0E0E6
:1022F000D0E001E010E084E00E9406028130910508
:10230000A9F420916D0330916E031216130674F434
:1023100020916D0330916E032150310930936E038B
:1023200020936D03909312018093110182E00E942B
:10233000060281309105A1F420916D0330916E0366
:10234000243631056CF49093120180931101809131
:102350006D0390916E03019690936E0380936D03CD
:1023600080910F01909110010A9709F50E94F002E7
:102370008090690390906A03A0906B03B0906C0307
:10238000681979098A099B09643F714081059105A3
:1023900070F010931201009311010E94F0026093FB
:1023A000690370936A0380936B0390936C0380912D
:1023B000110190911201019711F40E94620A80911B
:1023C0006803882399F10E94F00280906403909042
:1023D0006503A0906603B0906703AB01BC01481988
:1023E00059096A097B0980910B0190910C01A09118
:1023F0000D01B0910E01B695A79597958795481751
:1024000059076A077B0790F0609163036F2560931B
:10241000630388E00E942F020E94F002609364032D
:1024200070936503809366039093670380916203C2
:10243000882399F10E94F00280905E0390905F03E0
:10244000A0906003B0906103AB01BC014819590929
:102450006A097B098091070190910801A091090107
:10246000B0910A01B695A795979587954817590792
:102470006A077B0790F060915D036F2560935D03B1
:1024800089E00E942F020E94F00260935E03709325
:102490005F0380936003909361038091060188231A
:1024A00061F0109206010E94F0026093590370934C
:1024B0005A0380935B0390935C030E94F002809028
:1024C000590390905A03A0905B03B0905C03681985
:1024D00079098A099B0969397A438105910520F0B8
:1024E0008AE090E00E94060780916D0390916E0350
:1024F000209709F400CF0E949101882309F4FBCEB4
:102500000E940000F8CE88E194E00C94BC090E947F
:10251000C91208F481E00895E89409C097FB3EF4DD
:1025200090958095709561957F4F8F4F9F4F992320
:10253000A9F0F92F96E9BB279395F695879577959E
:102540006795B795F111F8CFFAF4BB0F11F460FF5E
:102550001BC06F5F7F4F8F4F9F4F16C0882311F0B6
:1025600096E911C0772321F09EE8872F762F05C0CA
:10257000662371F096E8862F70E060E02AF09A9565
:10258000660F771F881FDAF7880F9695879597F95A
:102590000895990F0008550FAA0BE0E8FEEF1616F4
:1025A0001706E807F907C0F012161306E407F50747
:1025B00098F0621B730B840B950B39F40A2661F0BB
:1025C000232B242B252B21F408950A2609F4A1405E
:1025D000A6958FEF811D811D08950E9400130C9414
:1025E00071130E94631338F00E946A1320F0952340
:1025F00011F00C945A130C94601311240C94A5132D
:102600000E94821370F3959FC1F3950F50E0551F00
:10261000629FF001729FBB27F00DB11D639FAA2737
:10262000F00DB11DAA1F649F6627B00DA11D661F86
:10263000829F2227B00DA11D621F739FB00DA11DA7
:10264000621F839FA00D611D221F749F3327A00D61
:10265000611D231F849F600D211D822F762F6A2FFD
:1026600011249F5750409AF0F1F088234AF0EE0F62
:10267000FF1FBB1F661F771F881F91505040A9F78F
:102680009E3F510580F00C945A130C94A5135F3FA4
:10269000E4F3983ED4F3869577956795B795F795CB
:1026A000E7959F5FC1F7FE2B880F911D9695879543
:1026B00097F9089597F99F6780E870E060E00895C2
:1026C0009FEF80EC089500240A941616170618064A
:1026D0000906089500240A94121613061406050626
:1026E0000895092E0394000C11F4882352F0BB0FB7
:1026F00040F4BF2B11F460FF04C06F5F7F4F8F4F1A
:102700009F4F089557FD9058440F551F59F05F3F54
:1027100071F04795880F97FB991F61F09F3F79F003
:1027200087950895121613061406551FF2CF469585
:10273000F1DF08C0161617061806991FF1CF869507
:102740007105610508940895E894BB2766277727EB
:10275000CB0197F908952F923F924F925F926F921B
:102760007F928F929F92AF92BF92CF92DF92EF9221
:10277000FF920F931F93CF93DF93CDB7DEB7CA1BA2
:10278000DB0B0FB6F894DEBF0FBECDBF09942A88CD
:10279000398848885F846E847D848C849B84AA8475
:1027A000B984C884DF80EE80FD800C811B81AA8102
:1027B000B981CE0FD11D0FB6F894DEBF0FBECDBFCD
:1027C000ED0108955058BB27AA270E94FA130C94D4
:1027D00071130E94631338F00E946A1320F039F4D9
:1027E0009F3F19F426F40C9460130EF4E095E7FB78
:1027F0000C945A13E92F0E94821358F3BA176207F8
:1028000073078407950720F079F4A6F50C94A413B8
:102810000EF4E0950B2EBA2FA02D0B01B9019001FB
:102820000C01CA01A0011124FF27591B99F0593F3F
:1028300050F4503E68F11A16F040A22F232F342F87
:102840004427585FF3CF469537952795A795F040D5
:102850005395C9F77EF41F16BA0B620B730B840BEA
:10286000BAF09150A1F0FF0FBB1F661F771F881FA2
:10287000C2F70EC0BA0F621F731F841F48F48795FA
:1028800077956795B795F7959E3F08F0B0CF9395EC
:10289000880F08F09927EE0F9795879508950E9465
:1028A00063140C9471130E946A1358F00E9463130E
:1028B00040F029F45F3F29F00C945A1351110C9405
:1028C000A5130C9460130E94821368F39923B1F34B
:1028D000552391F3951B550BBB27AA276217730746
:1028E000840738F09F5F5F4F220F331F441FAA1FDA
:1028F000A9F335D00E2E3AF0E0E832D09150504096
:10290000E695001CCAF72BD0FE2F29D0660F771F43
:10291000881FBB1F261737074807AB07B0E809F029
:10292000BB0B802DBF01FF2793585F4F3AF09E3FAE
:10293000510578F00C945A130C94A5135F3FE4F3FF
:10294000983ED4F3869577956795B795F7959F5FF1
:10295000C9F7880F911D9695879597F90895E1E03D
:10296000660F771F881FBB1F621773078407BA079C
:1029700020F0621B730B840BBA0BEE1F88F7E095F7
:1029800008950E948A1388F09F5798F0B92F9927CD
:10299000B751B0F0E1F0660F771F881F991F1AF04A
:1029A000BA95C9F714C0B13091F00E94A413B1E0F8
:1029B00008950C94A413672F782F8827B85F39F0F7
:1029C000B93FCCF3869577956795B395D9F73EF4E3
:1029D00090958095709561957F4F8F4F9F4F08958B
:1029E0000E94C91208F48FEF08950E94C912880B43
:1029F000990B089597FB072E16F4009407D077FDE6
:102A000009D00E94301507FC05D03EF490958195C1
:102A10009F4F0895709561957F4F0895A1E21A2EFA
:102A2000AA1BBB1BFD010DC0AA1FBB1FEE1FFF1F72
:102A3000A217B307E407F50720F0A21BB30BE40BC2
:102A4000F50B661F771F881F991F1A9469F7609509
:102A50007095809590959B01AC01BD01CF010895C3
:102A6000AA1BBB1B51E107C0AA1FBB1FA617B707B4
:102A700010F0A61BB70B881F991F5A95A9F78095D0
:102A80009095BC01CD010895EE0FFF1F0590F491C4
:102A9000E02D09940F931F93CF93DF93823091051C
:102AA00010F482E090E0E0913F04F091400430E0C7
:102AB00020E0B0E0A0E0309799F42115310509F449
:102AC0004AC0281B390B24303105D8F58A819B81F7
:102AD0006115710589F1FB0193838283FE0111C0A9
:102AE000408151810281138148175907E0F048174E
:102AF000590799F4109761F012960C931297139658
:102B00001C933296CF01DF91CF911F910F910895C1
:102B100000933F0410934004F4CF2115310551F088
:102B20004217530738F0A901DB019A01BD01DF010B
:102B3000F801C1CFEF01F9CF9093400480933F0497
:102B4000CDCFFE01E20FF31F819391932250310903
:102B500039832883D7CF20913D0430913E04232B25
:102B600041F4209115013091160130933E042093D9
:102B70003D0420911301309114012115310541F4D8
:102B80002DB73EB74091170150911801241B350B0A
:102B9000E0913D04F0913E04E217F307A0F42E1BF0
:102BA0003F0B2817390778F0AC014E5F5F4F2417B1
:102BB000350748F04E0F5F1F50933E0440933D048D
:102BC000819391939FCFF0E0E0E09CCFCF93DF9390
:102BD0000097E9F0FC01329713821282A0913F0422
:102BE000B0914004ED0130E020E01097A1F4208185
:102BF0003181820F931F20913D0430913E042817AC
:102C0000390709F061C0F0933E04E0933D04DF9181
:102C1000CF910895EA01CE17DF07E8F54A815B817D
:102C20009E0141155105B1F7E901FB83EA83499102
:102C30005991C40FD51FEC17FD0761F48081918174
:102C40000296840F951FE90199838883828193817D
:102C50009B838A83F0E0E0E012968D919C9113971C
:102C60000097B9F52D913C911197CD010296820FF5
:102C7000931F20913D0430913E042817390739F6FF
:102C8000309751F51092400410923F04B0933E04E7
:102C9000A0933D04BCCFD383C28340815181840F74
:102CA000951FC817D90761F44E5F5F4F88819981DE
:102CB000480F591F518340838A819B81938382836C
:102CC0002115310509F0B0CFF0934004E0933F04A3
:102CD0009ECFFD01DC01C0CF13821282D7CFB0E0BE
:102CE000A0E0E5E7F6E10C94AD138C01009751F4F8
:102CF000CB010E944A158C01C801CDB7DEB7E0E1D7
:102D00000C94C913FC01E60FF71F9C0122503109F6
:102D1000E217F30708F49DC0D901CD91DC9111971A
:102D2000C617D70798F0C530D10530F3CE01049708
:102D30008617970708F3C61BD70B2297C193D19329
:102D40006D937C93CF010E94E615D6CF5B01AC1A40
:102D5000BD0A4C018C0E9D1EA0913F04B091400411
:102D6000512C412CF12CE12C109731F580913D0430
:102D700090913E048815990509F05CC046165706E7
:102D800008F058C08091130190911401009741F40C
:102D90008DB79EB74091170150911801841B950B78
:102DA000E817F90708F055C0F0933E04E0933D049E
:102DB000F90171836083A0CF8D919C911197129638
:102DC0006C90129713967C901397A815B90559F536
:102DD0006C0142E0C40ED11CCA14DB0420F1AC012A
:102DE0004A195B09DA011296159780F062827382A4
:102DF00051834083D9016D937C93E114F10471F008
:102E0000D7011396FC93EE93129776CF22968C0FF0
:102E10009D1FF90191838083F301EFCFF09340046C
:102E2000E0933F0469CF4816590608F42C017D0150
:102E3000D3019ACFCB010E944A157C01009749F03B
:102E4000AE01B8010E942C17C8010E94E615870147
:102E500053CF10E000E050CFFB01DC0102C0019035
:102E60000D9241505040D8F70895FB01DC010190CC
:102E70000D920020E1F7089510E0C2E6D0E004C012
:102E8000FE010E9444152196C336D107C9F7F89474
:102E9000FFCF0A002E052E0501E8030000E803001D
:102EA000000A0001000000410480000000400014FE
:102EB000005400000000002401A701C5007101F6C4
:102EC00000D400E80000000000ED05C005030796EF
:102ED00005B905A6059705000000008807A70103AE
:102EE000072F0550756C73612070617361207361E9
:102EF0006C69722E2E2E006672656375656E63694D
:102F0000612064656C204C45443A003E006E616E61
:102F100000696E66006F7666004C65637475726159
:102F2000204448543A200054202843293A0048209D
:102F30002825293A2000486F6C6120004D616E659C
:102F40006A6F206465204C45445300436F6E746182
:102F5000646F72005573756172696F004F706369B9
:102F60006F6E34006F7063696F6E350053616C690A
:102F700072206D656E750041747261730053616CEF
:102F80006972206465204C454431004F4E2F4F46F6
:102F900046004F4E2F4F4646206672656375656E3C
:102FA0006369610073616C6972206465204C4544FB
:102FB00032004F4E2F4F46462000436F6E746164BF
:102FC0006F723A004C617A61726F00457269636B8F
:102FD0000053657267696F005061636F00706F73B3
:102FE000696F6E3431006F7073696F6E3432002018
:102FF000494E494349414E444F0020494E494349B7
:10300000414E444F2E0020494E494349414E444FC2
:103010002E2E0020494E494349414E444F2E2E2E1C
:023020000000AE
:107800000C94343C0C94513C0C94513C0C94513CE1
:107810000C94513C0C94513C0C94513C0C94513CB4
:107820000C94513C0C94513C0C94513C0C94513CA4
:107830000C94513C0C94513C0C94513C0C94513C94
:107840000C94513C0C94513C0C94513C0C94513C84
:107850000C94513C0C94513C0C94513C0C94513C74
:107860000C94513C0C94513C11241FBECFEFD8E036
:10787000DEBFCDBF11E0A0E0B1E0ECE9FFE702C060
:1078800005900D92A230B107D9F712E0A2E0B1E065
:1078900001C01D92AD30B107E1F70E942D3D0C945F
:1078A000CC3F0C94003C982F959595959595959582
:1078B000905D8F708A307CF0282F295A8091C0000B
:1078C00085FFFCCF9093C6008091C00085FFFCCF60
:1078D0002093C6000895282F205DF0CF982F809127
:1078E000C00085FFFCCF9093C6000895EF92FF92F1
:1078F0000F931F93EE24FF2487018091C00087FD22
:1079000017C00894E11CF11C011D111D81E4E8164B
:1079100082E4F8068FE0080780E0180770F3E09132
:107920000401F091050109958091C00087FFE9CF1E
:107930008091C6001F910F91FF90EF9008950E94D3
:10794000763C982F8091C00085FFFCCF9093C600B5
:1079500091362CF490330CF09053892F089597555D
:10796000892F08951F930E949F3C182F0E949F3CCF
:107970001295107F810F1F9108951F93182F882350
:1079800021F00E94763C1150E1F71F9108951F935A
:10799000182F0E94763C803249F0809103018F5F5E
:1079A000809303018530C1F01F9108958091C0003C
:1079B00085FFFCCF84E18093C6008091C00085FFE5
:1079C000FCCF1093C6008091C00085FFFCCF80E102
:1079D0008093C6001F910895E0910401F091050184
:1079E00009951F9108950E94763C803241F0809164
:1079F00003018F5F80930301853081F008958091AA
:107A0000C00085FFFCCF84E18093C6008091C00058
:107A100085FFFCCF80E18093C6000895E0910401CA
:107A2000F09105010995089540E951E08823A1F0FE
:107A30002D9A28EE33E0FA013197F1F721503040CA
:107A4000D1F72D9828EE33E0FA013197F1F7215064
:107A50003040D1F7815061F708953F924F925F9285
:107A60006F927F928F929F92AF92BF92CF92DF924E
:107A7000EF92FF920F931F93CF93DF93000080E16B
:107A80008093C4001092C50088E18093C10086E015
:107A90008093C2005098589A259A81E00E94143D24
:107AA00024E1F22E9EE1E92E85E9D82E0FE0C02ECA
:107AB00010E1B12EAA24A394B1E49B2EA6E58A2E50
:107AC000F2E57F2EE0E26E2E79E4572E63E5462E36
:107AD00050E5352E0E94763C8033B1F18133B9F107
:107AE000803409F46FC0813409F476C0823409F41B
:107AF00085C0853409F488C0803531F1823521F1A3
:107B0000813511F1853509F485C0863509F48DC0BC
:107B1000843609F496C0843709F403C1853709F423
:107B200072C1863709F466C0809103018F5F80932C
:107B30000301853079F6E0910401F0910501099582
:107B40000E94763C803351F60E94F33CC3CF0E94E2
:107B5000763C803249F78091C00085FFFCCFF092DF
:107B6000C6008091C00085FFFCCF9092C600809136
:107B7000C00085FFFCCF8092C6008091C00085FFC9
:107B8000FCCF7092C6008091C00085FFFCCF609250
:107B9000C6008091C00085FFFCCF5092C600809146
:107BA000C00085FFFCCF4092C6008091C00085FFD9
:107BB000FCCF3092C6008091C00085FFFCCFB09210
:107BC000C60088CF0E94763C863808F4BDCF0E945C
:107BD000763C0E94F33C7ECF0E94763C803809F4CC
:107BE0009CC0813809F40BC1823809F43CC1883942
:107BF00009F48FC080E00E94C73C6CCF84E10E94F2
:107C0000BD3C0E94F33C66CF85E00E94BD3C0E94D3
:107C1000F33C60CF0E94763C809306010E94763C44
:107C2000809307010E94F33C55CF0E94763C80333D
:107C300009F41DC183E00E94BD3C80E00E94C73C66
:107C400049CF0E94763C809309020E94763C809343
:107C5000080280910C028E7F80930C020E94763C79
:107C6000853409F415C18091080290910902892B8D
:107C700089F000E010E00E94763CF801E85FFE4FDA
:107C800080830F5F1F4F80910802909109020817AF
:107C9000190788F30E94763C803209F045CF809125
:107CA0000C0280FF01C16091060170910701660F0F
:107CB000771F7093070160930601A0910802B091AD
:107CC00009021097C9F0E8E0F1E09B01AD014E0F09
:107CD0005F1FF999FECF32BD21BD819180BDFA9A17
:107CE000F99A2F5F3F4FE417F50799F76A0F7B1F4B
:107CF00070930701609306018091C00085FFFCCF5F
:107D0000F092C6008091C00085FFFCCFB092C60003
:107D1000E1CE83E00E94C73CDDCE82E00E94C73CFA
:107D2000D9CE0E94763C809309020E94763C8093D3
:107D300008028091060190910701880F991F909386
:107D40000701809306010E94763C853409F4A6C0A1
:107D500080910C028E7F80930C020E94763C8032D0
:107D600009F0B8CE8091C00085FFFCCFF092C6002C
:107D7000609108027091090261157105B9F140E046
:107D800050E080910C02A82FA170B82FB27011C0E2
:107D9000BB2309F45CC0E0910601F0910701319624
:107DA000F0930701E09306014F5F5F4F46175707B7
:107DB000E8F4AA2369F3F999FECF209106013091E6
:107DC000070132BD21BDF89A90B58091C00085FFB2
:107DD000FCCF9093C6002F5F3F4F30930701209355
:107DE00006014F5F5F4F4617570718F38091C00099
:107DF00085FDE5CE8091C00085FFF8CFE0CE81E023
:107E00000E94C73C67CE0E94763C803209F08CCE3F
:107E10008091C00085FFFCCFF092C6008091C00029
:107E200085FFFCCFE092C6008091C00085FFFCCFAB
:107E3000D092C6008091C00085FFFCCFC092C600E2
:107E40008091C00085FFFCCFB092C60043CEE09188
:107E50000601F091070194918091C00085FFFCCF4D
:107E60009093C6009CCF80E10E94C73C33CE0E9415
:107E7000763C0E94763C182F0E94763C112309F430
:107E800083C0113009F484C08FE00E94C73C22CE29
:107E900080910C02816080930C02E5CE80910C02EF
:107EA000816080930C0259CF809107018823880F4D
:107EB000880B8A2180930B02809106019091070123
:107EC000880F991F90930701809306018091080203
:107ED00080FF09C080910802909109020196909359
:107EE000090280930802F894F999FECF1127E091D6
:107EF0000601F0910701C8E0D1E08091080290915D
:107F00000902103091F40091570001700130D9F34B
:107F100003E000935700E89500915700017001308D
:107F2000D9F301E100935700E89509901990009169
:107F3000570001700130D9F301E000935700E89534
:107F40001395103498F011270091570001700130FB
:107F5000D9F305E000935700E895009157000170B0
:107F60000130D9F301E100935700E895329602976A
:107F700009F0C7CF103011F00296E5CF112480919F
:107F8000C00085FFB9CEBCCE8EE10E94C73CA2CD19
:0E7F900085E90E94C73C9ECDF894FFCF80008B
:00000001FF
