:020000040000FA
:100000000C9463000C94D30E0C94AC0E0C948B00E7
:100010000C948B000C948B000C948B000C948B0034
:100020000C948B000C948B000C948B000C948B0024
:100030000C948B000C948B000C948B000C948B0014
:100040000C94620E0C948B000C94300E0C940A0EDF
:100050000C948B000C948B000C948B000C948B00F4
:100060000C94FA0E0C948B00000000002400270072
:100070002A0000000000250028002B0000000008D6
:10008000000201000003040700000000000000005F
:1000900000000000230026002900040404040404D6
:1000A0000404020202020202030303030303010227
:1000B00004081020408001020408102001020408F6
:1000C00010201910B61211241FBECFEFD8E0DEBFEA
:1000D000CDBF24E0A0E9B2E001C01D92A534B20773
:1000E000E1F712E0A0E0B1E0E8EFFEE202C0059027
:1000F0000D92A039B107D9F710E0C2E6D0E004C0F4
:100100002197FE010E947715C136D107C9F70E94D9
:1001100086100C946F170C940000CF92DF92EF9230
:10012000FF92CF93DF93B0912904A0E08111AB2F10
:1001300080912A0490E0880F991FAC0140575F4FCF
:10014000C0902F04D0903004E0903104F09032043D
:1001500030E020E0FA01C591D491E881B90190E046
:1001600080E0EB23EA130AC02F5F3F4F6C157D053B
:100170008E059F0578F36FEF7FEFCB01DF91CF9175
:10018000FF90EF90DF90CF900895FC01538D448D48
:10019000252F30E0842F90E0821B930B541710F032
:1001A000CF96089501970895FC01918D828D98173F
:1001B00061F0A28DAE0FBF2FB11D5D968C91928D17
:1001C0009F5F9F73928F90E008958FEF9FEF089548
:1001D000FC01918D828D981731F0828DE80FF11D11
:1001E000858D90E008958FEF9FEF0895FC01918D2C
:1001F000228D892F90E0805C9F4F821B91098F7325
:1002000099270895FC01A48DA80FB92FB11DA35AF9
:10021000BF4F2C91848D90E001968F739927848F26
:10022000A689B7892C93A089B1898C918370806449
:100230008C93938D848D981306C00288F389E02DEA
:1002400080818F7D80830895EF92FF920F931F939B
:10025000CF93DF93EC0181E0888F9B8D8C8D981379
:100260001AC0E889F989808185FF15C09FB7F89485
:10027000EE89FF896083E889F989808183708064D1
:1002800080839FBF81E090E0DF91CF911F910F911C
:10029000FF90EF900895F62E0B8D10E00F5F1F4F2B
:1002A0000F731127E02E8C8D8E110CC00FB607FC3A
:1002B000FACFE889F989808185FFF5CFCE010E94C8
:1002C0000201F1CFEB8DEC0FFD2FF11DE35AFF4F33
:1002D000F0829FB7F8940B8FEA89FB898081806256
:1002E000CFCFCF93DF93EC01888D8823B9F0AA8913
:1002F000BB89E889F9898C9185FD03C0808186FDE1
:100300000DC00FB607FCF7CF8C9185FFF2CF80812F
:1003100085FFEDCFCE010E940201E9CFDF91CF91A1
:10032000089583E793E00E94F60021E0892B09F409
:1003300020E0822F089580E090E0892B29F00E9430
:10034000910181110C940000089508950895AF92D1
:10035000BF92CF92DF92EF92FF920F931F93CF93B2
:10036000DF936C017B018B01040F151FEB015E0114
:10037000AE18BF08C017D10759F06991D601ED91A9
:10038000FC910190F081E02DC6010995892B79F748
:10039000C501DF91CF911F910F91FF90EF90DF90FA
:1003A000CF90BF90AF900895FC014481558160814A
:1003B000718185E394E00C94A701833081F028F4E7
:1003C000813099F08230A9F008958730A9F0883003
:1003D000C9F08430B1F4809180008F7D03C080919A
:1003E00080008F7780938000089584B58F7784BDD7
:1003F000089584B58F7DFBCF8091B0008F77809377
:10040000B00008958091B0008F7DF9CF1F93CF93F6
:10041000DF93282F30E0F901E458FF4F8491F90170
:10042000E255FF4FD491F901E656FF4FC491CC231A
:10043000A9F0162F81110E94DD01EC2FF0E0EE0FE4
:10044000FF1FEE58FF4FA591B4918FB7F894EC9130
:10045000111108C0D095DE23DC938FBFDF91CF91BF
:100460001F910895DE2BF8CFCF93DF9390E0FC012E
:10047000E255FF4F249186569F4FFC0184918823BB
:10048000C9F090E0880F991FFC01E859FF4FA59132
:10049000B491FC01EE58FF4FC591D49161110DC08C
:1004A0009FB7F8948C91209582238C938881282380
:1004B00028839FBFDF91CF910895623051F49FB799
:1004C000F8943C91822F809583238C93E8812E2B86
:1004D000EFCF8FB7F894EC912E2B2C938FBFEACFF0
:1004E0003FB7F8948091510390915203A091530328
:1004F000B091540326B5A89B05C02F3F19F0019673
:10050000A11DB11D3FBFBA2FA92F982F8827BC016D
:10051000CD01620F711D811D911D42E0660F771F95
:10052000881F991F4A95D1F708958F929F92AF9295
:10053000BF92CF92DF92EF92FF924B015C010E943B
:1005400070026B017C010E9470026C197D098E099A
:100550009F09683E734081059105A8F321E0821A46
:100560009108A108B10888EEC80E83E0D81EE11CEE
:10057000F11C81149104A104B10429F7FF90EF90BC
:10058000DF90CF90BF90AF909F908F9008952FB73E
:10059000F89460914D0370914E0380914F039091B8
:1005A00050032FBF0895CF92DF92EF92FF920F93E7
:1005B0001F93CF93DF93CDB7DEB7C054D1400FB6B2
:1005C000F894DEBF0FBECDBF0E94C70200912B047E
:1005D00010912C0420912D0430912E046B017C018C
:1005E000C01AD10AE20AF30A97018601003D1740BA
:1005F0002105310590F480913304C05CDE4F0FB6C5
:10060000F894DEBF0FBECDBFDF91CF911F910F9148
:10061000FF90EF90DF90CF90089560932B0470933C
:100620002C0480932D0490932E0410922604109293
:10063000250410922404109223041092220462E0F4
:10064000809127040E94340261E070E080E090E035
:100650000E94950261E0809127040E94340260E0CC
:10066000809127040E9406028091280485518230DF
:1006700020F58BE291E10197F1F762E08091270488
:100680000E9434028091340490E08230910538F069
:10069000880F991F880F991F05970197F1F7F89414
:1006A00080E00E948D006F3F7F4F8F4F9F4F61F41E
:1006B00010923304789480E0A0CF64E170E080E091
:1006C00090E00E949502D9CF81E00E948D006F3F9B
:1006D0007F4F8F4F9F4F61F38E010F5F1F4F6E0152
:1006E0002FEBC21A2EEFD20A780180E00E948D0013
:1006F000F701608371838283938381E00E948D0080
:10070000F7016483758386839783F8E0EF0EF11C0D
:10071000EC14FD0451F7789430E020E0F801C0803B
:10072000D180E280F3804481558166817781FFEF3B
:10073000CF16DF06EF06FF0631F04F3F8FEF580769
:100740006807780719F410923304B5CFF90183E0F4
:10075000F595E7958A95E1F7EE5DFB4F8081880F6F
:10076000C416D506E606F70610F180832F5F3F4FCB
:10077000085F1F4F2832310589F6409126042091E9
:10078000220480912304280F3327331F80912404EF
:10079000280F311D80912504820F932F911D9927D9
:1007A0004817190681F681E08093330426CF8160D3
:1007B000DCCF0F931F930E94C702AB01BC01809155
:1007C000940290919502A0919602B09197028A01AD
:1007D0009B01081B190B2A0B3B0BD901C80106977B
:1007E000A105B10590F180910001909101018C303B
:1007F000910509F4D0C00CF043C08330910509F491
:10080000E1C034F58130910509F48CC00CF097C03B
:10081000892B09F469C08091110190911201909384
:10082000010180930001109262031092610381E044
:1008300090E09093100180930F01409394025093A5
:10084000950260939602709397021F910F910895FD
:100850008A30910509F473C00CF076C0843091059C
:10086000D1F620916103309162032130310509F402
:100870004AC02230310509F4C5C0232B61F65FC0A0
:100880008137910509F484C0DCF48F36910509F4B1
:1008900078C00CF07DC08F31910509F0BCCF20915C
:1008A0006103309162032130310569F12230310555
:1008B00009F496C0232B09F0AECF83E090E023C06B
:1008C0008A37910571F08B37910559F08937910579
:1008D00009F0A1CF8091610390916203892B09F007
:1008E0009ACF8CE090E00FC08091610390916203F9
:1008F0008230910511F364F4009789F1019709F0B2
:100900008ACF82E090E0909312018093110183CF0F
:100910008330910509F476C0059709F07CCF8AE011
:1009200090E0F1CF80916103909162038130910555
:1009300079F182309105A9F2892B09F06CCF1092E0
:1009400012011092110167CF8091610390916203AF
:100950008130910581F034F4892B09F05CCF81E07E
:1009600090E0D1CF8230910549F0039709F053CF41
:1009700081E790E0C8CF8FE690E0C5CF80E790E0B8
:10098000C2CF8091610390916203892B09F043CF1C
:100990008BE090E0B8CF8091610390916203813049
:1009A000910551F0CCF28230910549F0039709F09E
:1009B00032CF8BE790E0A7CF89E790E0A4CF8AE71A
:1009C00090E0A1CF80916103909162038230910504
:1009D00099F04CF4009709F4B2CF019709F01BCFBE
:1009E0008FE190E090CF8330910549F0049709F0B2
:1009F00012CF82E290E087CF80E290E084CF81E264
:100A000090E081CF84E090E07ECF0895089520911A
:100A1000DB02260F3327331F21323105ECF42091FE
:100A20002403FC0190E080E0243069F082E0089526
:100A3000A091DB022191AC0145545D4FA40FB52F6D
:100A4000B11D2C930196861798F38091DB02680FF5
:100A50006093DB0280E0089581E008951092240302
:100A600081E0809323031092FE0261E082E10E9404
:100A7000060261E083E10E940602E9EBF0E080817A
:100A80008E7F808380818D7F808388E48093B8000F
:100A900085E48093BC000895CF93DF9391E0909319
:100AA000BA028823B9F0C091B800D091BA00809101
:100AB000BC008A7B8093BC0060E082E10E94060259
:100AC00060E083E10E9406020E942E05D093BA00E6
:100AD000C093B800DF91CF9108950895E0915C0331
:100AE00080915B03E81730F4F0E0E656FD4F80811B
:100AF00090E008958FEF9FEF089590915C038091AF
:100B00005B032FEF3FEF981748F4E92FF0E0E6562C
:100B1000FD4F208130E09F5F90935C03C9010895F1
:100B200080915B0390915C03891B990B0895CF9290
:100B3000DF92EF92FF920F931F93CF93DF937C018D
:100B4000CB018A0120912A03222389F0EB016B015A
:100B5000C40ED51ECC15DD0569F06991D701ED9164
:100B6000FC910190F081E02DC7010995F3CF642F2E
:100B70000E940705C801DF91CF911F910F91FF904F
:100B8000EF90DF90CF900895CF93DF931F92CDB772
:100B9000DEB7698320912A032223F9F020915903BB
:100BA000203258F021E030E0FC013383228390E0D2
:100BB00080E00F90DF91CF91089580915A03E82F44
:100BC000F0E0E55DFC4F998190838F5F80935A033D
:100BD0008093590381E090E0ECCF61E0CE01019673
:100BE0000E940705F7CFCF92DF92EF92FF920F930B
:100BF0001F93CF93DF93FC01C48121E020932A034C
:100C0000C0934B0310925A03109259038385682BAB
:100C100080E194E00E94C405D0915903D13208F0DC
:100C200092C00E9470026B017C01809124038111AB
:100C300065C082E08093240381E0809323038FEFDB
:100C40008093220310922103D0932003ABE2B3E000
:100C5000E0E0F3E080E0D81385C01092FF028091BD
:100C6000FF02CC0FC82BC093FF028091FE0281309F
:100C700009F07CC01092FE020E9470026B017C01A0
:100C80008091FF028093BB008091260390912703FF
:100C9000A0912803B0912903892B8A2B8B2B99F0E3
:100CA0000E947002009126031091270320912803CF
:100CB000309129036C197D098E099F0906171707C2
:100CC00028073907E0F18091BC0083FDD9CF85EC7E
:100CD0008093BC000E9470026B017C018091240310
:100CE000823009F445C0809122038F3F61F18091E9
:100CF0002203803241F18091220325C08091260396
:100D000090912703A0912803B0912903892B8A2B66
:100D10008B2B09F48ACF0E94700200912603109158
:100D2000270320912803309129036C197D098E092E
:100D30009F09061717072807390708F076CF809113
:100D400025030E944C0510925A03109259031092E9
:100D50002A03DF91CF911F910F91FF90EF90DF90C9
:100D6000CF9008959D9191938F5F75CF85EEB0CF11
:100D70008091260390912703A0912803B091290325
:100D8000892B8A2B8B2B09F4A9CF0E94700200912A
:100D900026031091270320912803309129036C1911
:100DA0007D098E099F09061717072807390708F0DC
:100DB00095CFC5CF90E080E0089590931201809385
:100DC0001101909301018093000181E090E09093E4
:100DD000100180930F011092620310926103089535
:100DE000CF92DF92EF92FF92CF93DF930E94C702E0
:100DF0006B017C018091900290919102A0919202EE
:100E0000B0919302A7019601281B390B4A0B5B0B8B
:100E1000DA01C9010697A105B10508F44CC0E0E864
:100E2000F0E08491E2EBF0E0D491EEE9F0E0C491DF
:100E3000CC2309F447C081110E94DD01EC2FF0E0C2
:100E4000EE0FFF1FE057FF4FA591B491EC91DE2309
:100E5000C9F18091610390916203019790936203BD
:100E600080936103809161039091620397FD07C0B5
:100E70008091610390916203853691054CF58091D4
:100E800061039091620397FD26C080916103909168
:100E900062039093620380936103C0929002D092A8
:100EA0009102E0929202F092930281E090E090939E
:100EB000100180930F01DF91CF91FF90EF90DF90B1
:100EC000CF90089580916103909162030196C6CFFF
:100ED00084E690E0DECF90E080E0DBCF0F931F93BD
:100EE000CF938C01C62F0E94F3056C2F6460C8015C
:100EF0000E94F3056C2F6B7FC8010E94F30583EC01
:100F000090E00197F1F7CF911F910F9108950F9302
:100F10001F93CF93DF938C01D62FC42F607F642B58
:100F20000E946E0780E1D89FB00111246C2BC8018C
:100F3000DF91CF911F910F910C946E07CF93DF93A8
:100F4000CDB7DEB728970FB6F894DEBF0FBECDBF82
:100F500098E0E9E1F1E0DE01119601900D929A9599
:100F6000E1F790913D04961710F46FEF690F262F6B
:100F700030E0220F331F41E050E04C0F5D1F240F83
:100F8000351FF9016081680F606840E085E394E0F7
:100F900028960FB6F894DEBF0FBECDBFDF91CF917C
:100FA0000C94870740E061E085E394E00E948707A6
:100FB0008BE39FE10197F1F7089541E00E948707D5
:100FC00081E090E00895FC0101900020E9F731975D
:100FD000AF01481B590BBC0185E394E00C94A701B9
:100FE0008F929F92AF92BF920F931F93CF93DF93F5
:100FF000CDB7DEB7A1970FB6F894DEBF0FBECDBF59
:1010000019A2423008F44AE08E010F5D1F4F842E72
:10101000912CB12CA12CA50194010E944115E62F21
:10102000B901CA01EA30F4F4E05DD801EE938D0114
:10103000232B242B252B79F790E080E0109719F0D3
:10104000CD010E94E307A1960FB6F894DEBF0FBE54
:10105000CDBFDF91CF911F910F91BF90AF909F9027
:101060008F900895E95CE1CFCF92DF92EF92FF92EB
:101070006C01990FEE08FF08F7FE16C041E06DE223
:1010800085E394E00E94870766277727CB016C19D8
:101090007D098E099F094AE00E94F0070196FF90A2
:1010A000EF90DF90CF9008954AE0C701B601FF901E
:1010B000EF90DF90CF900C94F0070C94E307CF9360
:1010C000DF939B01AC018091610390916203892BB6
:1010D00081F4C0916103D091620368EE73E080E017
:1010E00090E00E9441152C0F3D1F30936203209326
:1010F00061030E94D20760E080E00E949E0781E5C4
:1011000091E00E945D0861E081E00E949E0785E613
:1011100091E00E945D0862E088E00E949E07809155
:101120006103909162030E943408609161037091A1
:10113000620388EE93E00E942D15072E000C880BA9
:10114000990BDF91CF9108959F92AF92BF92CF926A
:10115000DF92EF92FF920F931F93CF93DF938C0157
:101160007B010E94D20760E080E00E949E07809190
:1011700061039091620397FD08C080916103909193
:101180006203E816F9060CF441C080916103909166
:10119000620397FD3DC0809161039091620390933B
:1011A0006203809361038091610390916203D0E0B8
:1011B000C0E00497ACF1C0906103D0906203560187
:1011C00083E0A81AB108D0E0C0E086E0982E025172
:1011D0001109AE14BF040CF044C0CA14DB040CF4B3
:1011E00040C06C2F82E00E949E0796012C0F3D1F8D
:1011F000929EC001939E900D1124800F911F0E941A
:10120000D4018FEFA81AB80A2196E3CFC701C7CF40
:1012100090E080E0C4CF0A5F1F4FC430D10559F081
:101220006C2F82E00E949E07C8010E94D401219683
:10123000EC16FD0681F7609161037091620380E016
:101240000E949E0789E791E0DF91CF911F910F9156
:10125000FF90EF90DF90CF90BF90AF909F900C9455
:101260005D0863E0ECCF4F925F926F927F928F9216
:101270009F92AF92BF92CF92DF92EF92FF920F9325
:101280001F93CF936B017C01742EAC019B010E94D4
:101290002815882399F08BE791E0CF911F910F914A
:1012A000FF90EF90DF90CF90BF90AF909F908F9086
:1012B0007F906F905F904F900C94E3074601570129
:1012C000E894B7F82FEF3FEF4FE75FE7C501B401B0
:1012D0000E94281581110DC02FEF3FEF4FE75FE708
:1012E000C501B4010E94BA1218161CF48FE791E0F0
:1012F000D4CF2FEF3FEF4FE75FE4C701B6010E9465
:10130000231518161CF483E891E0C7CF2FEF3FEFA9
:101310004FE75FECC701B6010E94BA1287FDF3CF19
:1013200020E030E0A901C701B6010E94BA1210E026
:1013300000E087FF0CC041E06DE285E394E00E948D
:101340008707F7FAF094F7F8F09401E010E0C0E0B6
:1013500060E070E080E09FE37C1641F020E030E048
:1013600040E251E40E948214CF5FF6CFA7019601BC
:101370000E9416144B015C010E94F4142B013C01E5
:101380004AE00E94F007080F191FCC23C9F1C301DE
:10139000B2010E94BF129B01AC01C501B4010E94C1
:1013A00015144B015C0141E06EE285E394E00E947C
:1013B00087070F5F1F4FC15018F120E030E040E277
:1013C00051E4C501B4010E9420132B013C010E948D
:1013D000F4144B01B12CA12C4AE0C501B4010E94C8
:1013E000F007080F191FC501B4010E94BF129B012D
:1013F000AC01C301B2010E9415144B015C01DBCFAB
:10140000C801CF911F910F91FF90EF90DF90CF9087
:10141000BF90AF909F908F907F906F905F904F9014
:101420000895FC0180819181009711F00C941916A8
:1014300008950F931F93CF93DF93EC0188819981D7
:10144000009759F02A813B812617370730F081E059
:10145000DF91CF911F910F9108958B016F5F7F4FA7
:101460000E94A216009759F0998388831B830A83F0
:101470002C813D81232B59F7FC011082E8CF80E0BD
:10148000E7CF0F931F93CF93DF938C01EC0109906B
:101490000020E9F72197C81BD90BBE018CE194E02D
:1014A0000E94190A20911C0430911D04811117C05B
:1014B0002115310519F0C9010E94191610921D0459
:1014C00010921C04109221041092200410921F0408
:1014D00010921E04DF91CF911F910F910895D09328
:1014E0002104C0932004B801C901DF91CF911F915D
:1014F0000F910C946817EF92FF920F931F93CF9365
:10150000DF93EC017B01198218821B821A821D82F3
:101510001C82FB0101900020E9F731978F01061B27
:10152000170BB8010E94190A28813981811113C053
:101530002115310519F0C9010E9419161982188266
:101540001D821C821B821A82DF91CF911F910F9105
:10155000FF90EF9008951D830C83B701C901DF91BF
:10156000CF911F910F91FF90EF900C9468178F927D
:101570009F92AF92BF92CF92DF92EF92FF920F9322
:101580001F93CF93DF93CDB7DEB7A4970FB6F89430
:10159000DEBF0FBECDBF81E0809306011092100127
:1015A00010920F0180911101909112010A9709F098
:1015B000F3C00E94D302882349F0809128048B3025
:1015C00028F08D3050F085518230C8F1812C912C5B
:1015D00040ECA42E4FE7B42E1EC06091230470E0AF
:1015E00090E080E00E94C1122DEC3CEC4CEC5DE3FD
:1015F0000E9420136B017C016091220470E090E056
:1016000080E00E94C1129B01AC01C701B6010E949B
:1016100016144B015C010E94D302882309F474C0A4
:10162000809128048C3009F409C1D8F48B3091F1F1
:10163000C12CD12C20ECE22E2FE7F22E55C0609168
:1016400022047091230476276727762790E080E0B4
:101650000E94BF122DEC3CEC4CEC5DE30E94201389
:10166000D8CF8551823020F710912404612F70E08B
:10167000762F662766277F7780912504682B90E078
:1016800080E00E94BF122DEC3CEC4CEC5DE30E942C
:101690002013F0C06091240470E090E080E00E948C
:1016A000BF126B017C011091250417FF0AC0AC0129
:1016B0009B0160E070E080E89FEB0E9415146B01D5
:1016C0007C011F70612F70E090E080E00E94C112E9
:1016D0002DEC3CEC4CEC5DE30E942013A70196013D
:1016E0000E9416146B017C01A5019401C501B4018F
:1016F0000E942815811108C0A7019601C701B601F3
:101700000E942815882361F0C12CD12C80EFE82E8F
:1017100081E4F82E812C912C9CE8A92E92E4B92E1C
:101720000E94D20760E080E00E949E0787E891E077
:101730000E945D0861E083E00E949E0785E991E0D8
:101740000E945D0861E08CE00E949E0742E0C701B4
:10175000B6010E94330962E083E00E949E078CE993
:1017600091E00E945D0862E08CE00E949E0742E0EA
:10177000C501B4010E94330963E081E00E949E0725
:1017800084EA91E00E945D0863E086E00E949E0783
:101790008CE194E00E94D40180911101909112019A
:1017A000892B09F070C06AEA71E08E010F5F1F4F4C
:1017B000C8010E947B0A69EB71E0CE0107960E9486
:1017C0007B0A62EC71E0CE010D960E947B0A6AEC06
:1017D00071E0CE0143960E947B0A62ED71E0CE017A
:1017E00049960E947B0A6AED71E0CE014F960E94F5
:1017F0007B0A66E070E0C8010E94A4087E0185E2D1
:10180000E80EF11C86E0E81AF108C7010E94110AEF
:101810000E151F05B9F7A4960FB6F894DEBF0FBEDC
:10182000CDBFDF91CF911F910F91FF90EF90DF908F
:10183000CF90BF90AF909F908F9008951091240407
:10184000612F70E090E080E00E94BF126B017C018C
:10185000609125046F7070E090E080E00E94C112FA
:101860002DEC3CEC4CEC5DE30E942013A7019601AB
:101870000E9416146B017C0117FF36CFF7FAF09423
:10188000F7F8F09431CF80911101909112010197F6
:10189000C9F465EE71E0CE0101960E947B0A64EF07
:1018A00071E0CE0107960E947B0A6BE172E0CE01E7
:1018B0000D960E947B0A63E070E0CE0101960E94C3
:1018C000A40828C080911101909112010B9779F51D
:1018D0006BEE71E0CE0101960E947B0A69EF71E028
:1018E000CE0107960E947B0A67E072E0CE010D965A
:1018F0000E947B0A60E072E0CE0143960E947B0A60
:1019000064E070E0CE0101960E94A408CE014396E7
:101910000E94110ACE010D960E94110ACE0107966F
:101920000E94110ACE0101960E94110A74CF809183
:101930001101909112018F36910589F4109169037C
:1019400081E01827612F88E00E9406021093690346
:1019500010926E038BE090E00E94DD065CCF8091D8
:101960001101909112018037910599F460910B015A
:1019700070910C0180910D0190910E010E945F0801
:1019800060930B0170930C0180930D0190930E01F5
:1019900042CF80911101909112018137910559F444
:1019A00080916E0391E0892780936E0360E088E068
:1019B0000E940602CFCF80911101909112010C97E5
:1019C00049F462E172E0CE0101960E947B0A60E276
:1019D00072E086CF809111019091120189379105B3
:1019E00079F4109268031091630381E01827612F46
:1019F00089E00E940602109363038CE090E0ACCF74
:101A000080911101909112018A37910599F46091AA
:101A10000701709108018091090190910A010E94CB
:101A20005F08609307017093080180930901909308
:101A30000A01F1CE80911101909112018B3791052D
:101A400059F48091680391E089278093680360E0EE
:101A500089E00E940602D1CF80911101909112017C
:101A6000029799F58091610390916203892B41F46B
:101A70008091980290919902909362038093610300
:101A80000E94D20760E080E00E949E0781E591E01D
:101A90000E945D0861E085E00E949E0788E292E076
:101AA0000E945D0862E088E00E949E0780916103C9
:101AB000909162030E9434088091610390916203C7
:101AC0009093990280939802A6CE809111019091F3
:101AD0001201039749F565EE71E0CE0101960E946F
:101AE0007B0A62E372E0CE0107960E947B0A69E3FB
:101AF00072E0CE010D960E947B0A6FE372E0CE0188
:101B000043960E947B0A66E472E0CE0149960E94E9
:101B10007B0A65E070E0CE0101960E94A408CE0128
:101B200049960E94110AF2CE809111019091120102
:101B30004F9739F482E392E00E94410A8AE090E0F4
:101B40000BCF8091110190911201809719F489E3D4
:101B500092E0F2CF8091110190911201819719F4D6
:101B60008FE392E0E9CF8091110190911201829769
:101B700019F486E492E0E0CF809111019091120176
:101B8000049709F048CE65EE71E0CE0101960E94FF
:101B90007B0A6BE472E0CE0107960E947B0A64E543
:101BA00072E085CE85ED8093BC00809126039091F4
:101BB0002703A0912803B09129030796A11DB11D09
:101BC00023E0B695A795979587952A95D1F720910B
:101BD000BC0024FD03C01092240308954091260305
:101BE000509127036091280370912903452B462BC0
:101BF000472B69F30097A105B10541F025E32A952C
:101C0000F1F700000197A109B109E1CF8091250307
:101C10000C944C051F920F920FB60F9211242F9324
:101C20003F934F935F936F937F938F939F93AF9364
:101C3000BF93EF93FF9383E793E00E940201FF912C
:101C4000EF91BF91AF919F918F917F916F915F9134
:101C50004F913F912F910F900FBE0F901F901895AD
:101C60001F920F920FB60F9211242F938F939F9371
:101C7000EF93FF93E0918303F09184038081E091DF
:101C80008903F0918A0382FD1BC0908180918C03AF
:101C90008F5F8F7320918D03821741F0E0918C0349
:101CA000F0E0ED58FC4F958F80938C03FF91EF91FE
:101CB0009F918F912F910F900FBE0F901F901895AD
:101CC0008081F4CF1F920F920FB60F9211242F93A1
:101CD0003F938F939F93AF93BF9380914D039091C8
:101CE0004E03A0914F03B091500330914C0323E079
:101CF000230F2D3758F50196A11DB11D20934C03DC
:101D000080934D0390934E03A0934F03B0935003E1
:101D10008091510390915203A0915303B0915403C9
:101D20000196A11DB11D8093510390935203A0937E
:101D30005303B0935403BF91AF919F918F913F9103
:101D40002F910F900FBE0F901F90189526E8230F2C
:101D50000296A11DB11DD2CF1F920F920FB60F9206
:101D600011242F933F934F935F936F937F938F93A0
:101D70009F93AF93BF93EF93FF93E0910401F09192
:101D800005010995FF91EF91BF91AF919F918F91BF
:101D90007F916F915F914F913F912F910F900FBE67
:101DA0000F901F9018951F920F920FB60F9211244B
:101DB0002F933F934F935F936F937F938F939F9353
:101DC000AF93BF93EF93FF93E0910201F091030172
:101DD0000995FF91EF91BF91AF919F918F917F9165
:101DE0006F915F914F913F912F910F900FBE0F9088
:101DF0001F9018951F920F920FB60F9211242F93D8
:101E00003F934F935F936F937F938F939F93AF9382
:101E1000BF93EF93FF938091B900887F803609F4D8
:101E20004AC0F0F5883209F4A7C018F5803109F4EA
:101E30009BC0B8F4882309F4F9C0883009F494C031
:101E4000FF91EF91BF91AF919F918F917F916F9192
:101E50005F914F913F912F910F900FBE0F901F9068
:101E60001895883109F488C0803251F78093220395
:101E700014C0803409F49DC040F48033B9F3883332
:101E8000F9F68093220385ECB0C0803509F485C053
:101E9000883509F496C0883499F60E94D20DD0CFC7
:101EA000883909F48CC038F5883729F050F4883621
:101EB00011F0803729F683E0809324031092FD020D
:101EC00057C0883809F47BC0803919F0803809F090
:101ED000B7CF8091FD02803208F071C0E091FD0221
:101EE00081E08E0F8093FD028091BB00F0E0E35211
:101EF000FD4F80833DC0803B39F0E0F4803A09F427
:101F000079C0883A09F09CCF84E080932403109232
:101F1000DC021092DB02E0915703F091580309951F
:101F20008091DB0281110FC081E08093DB0210926F
:101F3000BB0209C0803C09F4A6CF883C09F4A3CFBA
:101F4000883B09F07DCFE091DC0281E08E0F809329
:101F5000DC02F0E0E554FD4F80818093BB0090915E
:101F6000DC028091DB0229C08091FF028093BB00DC
:101F700085EC8093BC0064CF909121038091200375
:101F8000981758F5E091210381E08E0F809321038B
:101F9000F0E0E050FD4F8081E9CFE091210381E046
:101FA0008E0F809321038091BB00F0E0E050FD4F45
:101FB000808390912103809120039817C8F285E8CF
:101FC000D8CFE091210381E08E0F8093210380918F
:101FD000BB00F0E0E050FD4F80838091230381112E
:101FE0005CCF81E08093FE0284EA8093BC00109273
:101FF000240326CF85EC8093BC00109224038091AB
:10200000FD02803230F4E091FD02F0E0E352FD4F3A
:1020100010826091FD0270E0E0915503F09156034B
:102020008DED92E009951092FD020ACF10922203E5
:1020300034CFE3E7F3E01382128288EE93E0A0E06E
:10204000B0E084839583A683B78325E231E03183B2
:10205000208325EC30E03587248724EC30E0378777
:10206000268720EC30E0318B208B21EC30E0338B65
:10207000228B22EC30E0358B248B26EC30E0378B42
:10208000268B118E128E138E148EE0E1F4E01382F3
:10209000128284839583A683B78387E391E091833B
:1020A0008083E5E3F4E01382128289E491E0918376
:1020B000808387E2848384E1818784E0828713863A
:1020C000A2E2B4E085E015968C9315978BE0169606
:1020D0008C931697E3EBF0E0E4911796EC93179747
:1020E000EFE9F0E0E4911896EC93189740E85EE38E
:1020F00060E070E01D964D935D936D937C935097D7
:102100006BE872E08CE194E00C947B0A789484B5DF
:10211000826084BD84B5816084BD85B5826085BDE3
:1021200085B5816085BD80916E00816080936E0071
:102130001092810080918100826080938100809163
:102140008100816080938100809180008160809314
:1021500080008091B10084608093B1008091B000D4
:1021600081608093B00080917A00846080937A00CF
:1021700080917A00826080937A0080917A008160F9
:1021800080937A0080917A00806880937A00109220
:10219000C10062E0809127040E9434020E94C702BD
:1021A000605D77408109910960932B0470932C0442
:1021B00080932D0490932E0487E38093340480EF62
:1021C00096E09093030180930201809169008C7FD7
:1021D00080936900E89A89ED93E0909305018093DC
:1021E000040180916900837F80936900E99A60E02F
:1021F00082E00E94340260E084E00E94340262E0E7
:1022000083E00E94340261E088E00E94340261E0D1
:1022100089E00E94340261E088E00E94060261E0E9
:1022200089E00E94060210925C0310925B031092F8
:102230005A03109259030E942E0585EA91E090936B
:1022400058038093570386EA91E090935603809356
:10225000550310923A0480913F04823018F098E0C0
:1022600090933A0480933D0462E370E080E090E054
:102270000E9495026091400485E394E00E94F3057A
:1022800068EE73E080E090E00E94950260E385E3F1
:1022900094E00E946E07CBE4D6E4CE010197F1F7FB
:1022A00060E385E394E00E946E072197F1F760E315
:1022B00085E394E00E946E0783E592E00197F1F7D1
:1022C00060E285E394E00E946E0760913A046062E8
:1022D00040E085E394E00E94870784E080933B041C
:1022E00040E06CE085E394E00E9487070E94D207FB
:1022F00082E080933C0440E066E085E394E00E9445
:10230000870740E062E085E394E00E9487078BE363
:102310009FE10197F1F788E08093400460E085E356
:1023200094E00E94F3050E94D20760E080E00E94E2
:102330009E078DE592E00E945D0864EF71E080E009
:1023400090E00E94950260E080E00E949E0788E68F
:1023500092E00E945D0864EF71E080E090E00E94EE
:10236000950260E080E00E949E0784E792E00E9470
:102370005D0864EF71E080E090E00E94950260E00B
:1023800080E00E949E0781E892E00E945D0864EF71
:1023900071E080E090E00E94950260E088E00E9499
:1023A000060260E089E00E94060280910F01909190
:1023B0001001019711F40E94B70AFF24F394C0E0C2
:1023C000D0E001E010E080911101909112010A9794
:1023D00009F50E94C70280906F0390907003A0904F
:1023E0007103B0907203681979098A099B09643FE7
:1023F00071408105910570F01093100100930F0159
:102400000E94C70260936F037093700380937103FF
:102410009093720380910F0190911001019711F434
:102420000E94B70A80916E03882399F10E94C70227
:1024300080906A0390906B03A0906C03B0906D0342
:10244000AB01BC01481959096A097B0980910B014C
:1024500090910C01A0910D01B0910E01B695A79538
:1024600097958795481759076A077B0790F0609101
:1024700069036F256093690388E00E9406020E9449
:10248000C70260936A0370936B0380936C0390930D
:102490006D0380916803882399F10E94C7028090A0
:1024A000640390906503A0906603B0906703AB014E
:1024B000BC01481959096A097B098091070190916B
:1024C0000801A0910901B0910A01B695A7959795C9
:1024D0008795481759076A077B0790F06091630357
:1024E0006F256093630389E00E9406020E94C70281
:1024F000609364037093650380936603909367030E
:1025000080910601882361F0109206010E94C702A3
:1025100060935D0370935E0380935F039093600309
:102520000E94C70280905D0390905E03A0905F03BD
:10253000B0906003681979098A099B0969397A435F
:102540008105910520F08AE090E00E94DD068091EF
:10255000610390916203209709F435CF0E949101A5
:10256000882309F430CF0E9400002DCF8CE194E045
:102570000C94110A0E94FC1208F481E00895E8947A
:1025800009C097FB3EF490958095709561957F4FBB
:102590008F4F9F4F9923A9F0F92F96E9BB27939569
:1025A000F695879577956795B795F111F8CFFAF479
:1025B000BB0F11F460FF1BC06F5F7F4F8F4F9F4FAA
:1025C00016C0882311F096E911C0772321F09EE808
:1025D000872F762F05C0662371F096E8862F70E06E
:1025E00060E02AF09A95660F771F881FDAF7880F48
:1025F0009695879597F90895990F0008550FAA0B9E
:10260000E0E8FEEF16161706E807F907C0F0121605
:102610001306E407F50798F0621B730B840B950B08
:1026200039F40A2661F0232B242B252B21F408955D
:102630000A2609F4A140A6958FEF811D811D0895FA
:102640000E9433130C94A4130E94961338F00E9436
:102650009D1320F0952311F00C948D130C9493137B
:1026600011240C94D8130E94B51370F3959FC1F3F5
:10267000950F50E0551F629FF001729FBB27F00D30
:10268000B11D639FAA27F00DB11DAA1F649F662785
:10269000B00DA11D661F829F2227B00DA11D621FD4
:1026A000739FB00DA11D621F839FA00D611D221F8E
:1026B000749F3327A00D611D231F849F600D211D72
:1026C000822F762F6A2F11249F5750409AF0F1F0F5
:1026D00088234AF0EE0FFF1FBB1F661F771F881F5E
:1026E00091505040A9F79E3F510580F00C948D13F6
:1026F0000C94D8135F3FE4F3983ED4F38695779516
:102700006795B795F795E7959F5FC1F7FE2B880F03
:10271000911D9695879597F9089597F99F6780E899
:1027200070E060E008959FEF80EC089500240A9423
:102730001616170618060906089500240A9412169C
:102740001306140605060895092E0394000C11F4CF
:10275000882352F0BB0F40F4BF2B11F460FF04C07C
:102760006F5F7F4F8F4F9F4F089557FD9058440FD5
:10277000551F59F05F3F71F04795880F97FB991FE0
:1027800061F09F3F79F0879508951216130614069D
:10279000551FF2CF4695F1DF08C01616170618062A
:1027A000991FF1CF86957105610508940895E89405
:1027B000BB2766277727CB0197F908952F923F9281
:1027C0004F925F926F927F928F929F92AF92BF9241
:1027D000CF92DF92EF92FF920F931F93CF93DF93ED
:1027E000CDB7DEB7CA1BDB0B0FB6F894DEBF0FBE4A
:1027F000CDBF09942A88398848885F846E847D8497
:102800008C849B84AA84B984C884DF80EE80FD8098
:102810000C811B81AA81B981CE0FD11D0FB6F8940E
:10282000DEBF0FBECDBFED0108955058BB27AA27CC
:102830000E942D140C94A4130E94961338F00E9449
:102840009D1320F039F49F3F19F426F40C94931350
:102850000EF4E095E7FB0C948D13E92F0E94B5135D
:1028600058F3BA17620773078407950720F079F4C5
:10287000A6F50C94D7130EF4E0950B2EBA2FA02DCD
:102880000B01B90190010C01CA01A0011124FF271D
:10289000591B99F0593F50F4503E68F11A16F04018
:1028A000A22F232F342F4427585FF3CF4695379517
:1028B0002795A795F0405395C9F77EF41F16BA0BDC
:1028C000620B730B840BBAF09150A1F0FF0FBB1F8A
:1028D000661F771F881FC2F70EC0BA0F621F731FD3
:1028E000841F48F4879577956795B795F7959E3F30
:1028F00008F0B0CF9395880F08F09927EE0F9795C1
:10290000879508950E9496140C94A4130E949D1319
:1029100058F00E94961340F029F45F3F29F00C9480
:102920008D1351110C94D8130C9493130E94B5136A
:1029300068F39923B1F3552391F3951B550BBB27EE
:10294000AA2762177307840738F09F5F5F4F220F33
:10295000331F441FAA1FA9F335D00E2E3AF0E0E82A
:1029600032D091505040E695001CCAF72BD0FE2F74
:1029700029D0660F771F881FBB1F26173707480708
:10298000AB07B0E809F0BB0B802DBF01FF279358C0
:102990005F4F3AF09E3F510578F00C948D130C94E4
:1029A000D8135F3FE4F3983ED4F386957795679507
:1029B000B795F7959F5FC9F7880F911D96958795F5
:1029C00097F90895E1E0660F771F881FBB1F621714
:1029D00073078407BA0720F0621B730B840BBA0BD2
:1029E000EE1F88F7E09508950E94BD1388F09F5769
:1029F00098F0B92F9927B751B0F0E1F0660F771F23
:102A0000881F991F1AF0BA95C9F714C0B13091F018
:102A10000E94D713B1E008950C94D713672F782F35
:102A20008827B85F39F0B93FCCF3869577956795DD
:102A3000B395D9F73EF490958095709561957F4F49
:102A40008F4F9F4F08950E94FC1208F48FEF089556
:102A50000E94FC12880B990B089597FB072E16F421
:102A6000009407D077FD09D00E94631507FC05D0BC
:102A70003EF4909581959F4F0895709561957F4F95
:102A80000895A1E21A2EAA1BBB1BFD010DC0AA1FAF
:102A9000BB1FEE1FFF1FA217B307E407F50720F0C7
:102AA000A21BB30BE40BF50B661F771F881F991F42
:102AB0001A9469F760957095809590959B01AC018B
:102AC000BD01CF010895AA1BBB1B51E107C0AA1F7E
:102AD000BB1FA617B70710F0A61BB70B881F991FBF
:102AE0005A95A9F780959095BC01CD010895EE0FF8
:102AF000FF1F0590F491E02D09940F931F93CF933E
:102B0000DF938230910510F482E090E0E09143047D
:102B1000F091440430E020E0B0E0A0E0309799F478
:102B20002115310509F44AC0281B390B2430310521
:102B3000D8F58A819B816115710589F1FB01938329
:102B40008283FE0111C040815181028113814817A7
:102B50005907E0F04817590799F4109761F0129659
:102B60000C93129713961C933296CF01DF91CF915D
:102B70001F910F9108950093430410934404F4CFE0
:102B80002115310551F04217530738F0A901DB0137
:102B90009A01BD01DF01F801C1CFEF01F9CF909398
:102BA000440480934304CDCFFE01E20FF31F8193D1
:102BB00091932250310939832883D7CF2091410442
:102BC00030914204232B41F42091150130911601DC
:102BD0003093420420934104209113013091140159
:102BE0002115310541F42DB73EB7409117015091A1
:102BF0001801241B350BE0914104F0914204E217C7
:102C0000F307A0F42E1B3F0B2817390778F0AC010F
:102C10004E5F5F4F2417350748F04E0F5F1F5093EC
:102C2000420440934104819391939FCFF0E0E0E010
:102C30009CCFCF93DF930097E9F0FC01329713828A
:102C40001282A0914304B0914404ED0130E020E0F1
:102C50001097A1F420813181820F931F20914104AC
:102C6000309142042817390709F061C0F0934204FB
:102C7000E0934104DF91CF910895EA01CE17DF0779
:102C8000E8F54A815B819E0141155105B1F7E901E3
:102C9000FB83EA8349915991C40FD51FEC17FD07B7
:102CA00061F4808191810296840F951FE9019983D7
:102CB0008883828193819B838A83F0E0E0E012968F
:102CC0008D919C9113970097B9F52D913C91119797
:102CD000CD010296820F931F20914104309142044E
:102CE0002817390739F6309751F51092440410929D
:102CF0004304B0934204A0934104BCCFD383C28366
:102D000040815181840F951FC817D90761F44E5F28
:102D10005F4F88819981480F591F518340838A8171
:102D20009B81938382832115310509F0B0CFF09305
:102D30004404E09343049ECFFD01DC01C0CF138225
:102D40001282D7CFB0E0A0E0E8EAF6E10C94E013FD
:102D50008C01009751F4CB010E947D158C01C801B4
:102D6000CDB7DEB7E0E10C94FC13FC01E60FF71FD2
:102D70009C0122503109E217F30708F49DC0D901E4
:102D8000CD91DC911197C617D70798F0C530D105C2
:102D900030F3CE0104978617970708F3C61BD70BAD
:102DA0002297C193D1936D937C93CF010E94191602
:102DB000D6CF5B01AC1ABD0A4C018C0E9D1EA091B2
:102DC0004304B0914404512C412CF12CE12C109778
:102DD00031F580914104909142048815990509F0DC
:102DE0005CC04616570608F058C0809113019091B8
:102DF0001401009741F48DB79EB74091170150918F
:102E00001801841B950BE817F90708F055C0F093DB
:102E10004204E0934104F90171836083A0CF8D9156
:102E20009C91119712966C90129713967C90139721
:102E3000A815B90559F56C0142E0C40ED11CCA149D
:102E4000DB0420F1AC014A195B09DA0112961597EF
:102E500080F06282738251834083D9016D937C93A9
:102E6000E114F10471F0D7011396FC93EE931297DD
:102E700076CF22968C0F9D1FF90191838083F301F9
:102E8000EFCFF0934404E093430469CF481659060A
:102E900008F42C017D01D3019ACFCB010E947D154E
:102EA0007C01009749F0AE01B8010E945F17C8018C
:102EB0000E941916870153CF10E000E050CFFB01AC
:102EC000DC0102C001900D9241505040D8F70895A6
:102ED000FB01DC0101900D920020E1F7089510E064
:102EE000C2E6D0E004C0FE010E9477152196C336E9
:102EF000D107C9F7F894FFCF0A000505050501E8D9
:102F0000030000E803000001000A000000450480FF
:102F1000000000400014005400000000002401A73D
:102F200001C5007101F600D400E80000000000C4F3
:102F3000059705DA066D0590057D056E0500000014
:102F400000DD07A701DA06060550756C7361207075
:102F50006173612073616C69722E2E2E006672653A
:102F60006375656E6369612064656C204C45443A05
:102F7000003E006E616E00696E66006F7666004C02
:102F8000656374757261204448543A2000542028C7
:102F900043293A0048202825293A2000486F6C61CF
:102FA00020004D616E656A6F206465204C45445376
:102FB00000436F6E7461646F72005573756172695E
:102FC0006F004F7063696F6E34006F7063696F6E6E
:102FD000350053616C6972206D656E7500417472C5
:102FE00061730053616C6972206465204C45443103
:102FF000004F4E2F4F4646004F4E2F4F46462066FD
:1030000072656375656E6369610073616C697220D6
:103010006465204C454432004F4E2F4F46462000F9
:10302000436F6E7461646F723A004C617A61726FC3
:1030300000457269636B0053657267696F00506188
:10304000636F00706F73696F6E3431006F707369F6
:103050006F6E34320020494E494349414E444F007F
:1030600020494E494349414E444F2E0020494E4984
:103070004349414E444F2E2E0020494E4943494179
:083080004E444F2E2E2E0000DD
:107800000C94343C0C94513C0C94513C0C94513CE1
:107810000C94513C0C94513C0C94513C0C94513CB4
:107820000C94513C0C94513C0C94513C0C94513CA4
:107830000C94513C0C94513C0C94513C0C94513C94
:107840000C94513C0C94513C0C94513C0C94513C84
:107850000C94513C0C94513C0C94513C0C94513C74
:107860000C94513C0C94513C11241FBECFEFD8E036
:10787000DEBFCDBF11E0A0E0B1E0ECE9FFE702C060
:1078800005900D92A230B107D9F712E0A2E0B1E065
:1078900001C01D92AD30B107E1F70E942D3D0C945F
:1078A000CC3F0C94003C982F959595959595959582
:1078B000905D8F708A307CF0282F295A8091C0000B
:1078C00085FFFCCF9093C6008091C00085FFFCCF60
:1078D0002093C6000895282F205DF0CF982F809127
:1078E000C00085FFFCCF9093C6000895EF92FF92F1
:1078F0000F931F93EE24FF2487018091C00087FD22
:1079000017C00894E11CF11C011D111D81E4E8164B
:1079100082E4F8068FE0080780E0180770F3E09132
:107920000401F091050109958091C00087FFE9CF1E
:107930008091C6001F910F91FF90EF9008950E94D3
:10794000763C982F8091C00085FFFCCF9093C600B5
:1079500091362CF490330CF09053892F089597555D
:10796000892F08951F930E949F3C182F0E949F3CCF
:107970001295107F810F1F9108951F93182F882350
:1079800021F00E94763C1150E1F71F9108951F935A
:10799000182F0E94763C803249F0809103018F5F5E
:1079A000809303018530C1F01F9108958091C0003C
:1079B00085FFFCCF84E18093C6008091C00085FFE5
:1079C000FCCF1093C6008091C00085FFFCCF80E102
:1079D0008093C6001F910895E0910401F091050184
:1079E00009951F9108950E94763C803241F0809164
:1079F00003018F5F80930301853081F008958091AA
:107A0000C00085FFFCCF84E18093C6008091C00058
:107A100085FFFCCF80E18093C6000895E0910401CA
:107A2000F09105010995089540E951E08823A1F0FE
:107A30002D9A28EE33E0FA013197F1F721503040CA
:107A4000D1F72D9828EE33E0FA013197F1F7215064
:107A50003040D1F7815061F708953F924F925F9285
:107A60006F927F928F929F92AF92BF92CF92DF924E
:107A7000EF92FF920F931F93CF93DF93000080E16B
:107A80008093C4001092C50088E18093C10086E015
:107A90008093C2005098589A259A81E00E94143D24
:107AA00024E1F22E9EE1E92E85E9D82E0FE0C02ECA
:107AB00010E1B12EAA24A394B1E49B2EA6E58A2E50
:107AC000F2E57F2EE0E26E2E79E4572E63E5462E36
:107AD00050E5352E0E94763C8033B1F18133B9F107
:107AE000803409F46FC0813409F476C0823409F41B
:107AF00085C0853409F488C0803531F1823521F1A3
:107B0000813511F1853509F485C0863509F48DC0BC
:107B1000843609F496C0843709F403C1853709F423
:107B200072C1863709F466C0809103018F5F80932C
:107B30000301853079F6E0910401F0910501099582
:107B40000E94763C803351F60E94F33CC3CF0E94E2
:107B5000763C803249F78091C00085FFFCCFF092DF
:107B6000C6008091C00085FFFCCF9092C600809136
:107B7000C00085FFFCCF8092C6008091C00085FFC9
:107B8000FCCF7092C6008091C00085FFFCCF609250
:107B9000C6008091C00085FFFCCF5092C600809146
:107BA000C00085FFFCCF4092C6008091C00085FFD9
:107BB000FCCF3092C6008091C00085FFFCCFB09210
:107BC000C60088CF0E94763C863808F4BDCF0E945C
:107BD000763C0E94F33C7ECF0E94763C803809F4CC
:107BE0009CC0813809F40BC1823809F43CC1883942
:107BF00009F48FC080E00E94C73C6CCF84E10E94F2
:107C0000BD3C0E94F33C66CF85E00E94BD3C0E94D3
:107C1000F33C60CF0E94763C809306010E94763C44
:107C2000809307010E94F33C55CF0E94763C80333D
:107C300009F41DC183E00E94BD3C80E00E94C73C66
:107C400049CF0E94763C809309020E94763C809343
:107C5000080280910C028E7F80930C020E94763C79
:107C6000853409F415C18091080290910902892B8D
:107C700089F000E010E00E94763CF801E85FFE4FDA
:107C800080830F5F1F4F80910802909109020817AF
:107C9000190788F30E94763C803209F045CF809125
:107CA0000C0280FF01C16091060170910701660F0F
:107CB000771F7093070160930601A0910802B091AD
:107CC00009021097C9F0E8E0F1E09B01AD014E0F09
:107CD0005F1FF999FECF32BD21BD819180BDFA9A17
:107CE000F99A2F5F3F4FE417F50799F76A0F7B1F4B
:107CF00070930701609306018091C00085FFFCCF5F
:107D0000F092C6008091C00085FFFCCFB092C60003
:107D1000E1CE83E00E94C73CDDCE82E00E94C73CFA
:107D2000D9CE0E94763C809309020E94763C8093D3
:107D300008028091060190910701880F991F909386
:107D40000701809306010E94763C853409F4A6C0A1
:107D500080910C028E7F80930C020E94763C8032D0
:107D600009F0B8CE8091C00085FFFCCFF092C6002C
:107D7000609108027091090261157105B9F140E046
:107D800050E080910C02A82FA170B82FB27011C0E2
:107D9000BB2309F45CC0E0910601F0910701319624
:107DA000F0930701E09306014F5F5F4F46175707B7
:107DB000E8F4AA2369F3F999FECF209106013091E6
:107DC000070132BD21BDF89A90B58091C00085FFB2
:107DD000FCCF9093C6002F5F3F4F30930701209355
:107DE00006014F5F5F4F4617570718F38091C00099
:107DF00085FDE5CE8091C00085FFF8CFE0CE81E023
:107E00000E94C73C67CE0E94763C803209F08CCE3F
:107E10008091C00085FFFCCFF092C6008091C00029
:107E200085FFFCCFE092C6008091C00085FFFCCFAB
:107E3000D092C6008091C00085FFFCCFC092C600E2
:107E40008091C00085FFFCCFB092C60043CEE09188
:107E50000601F091070194918091C00085FFFCCF4D
:107E60009093C6009CCF80E10E94C73C33CE0E9415
:107E7000763C0E94763C182F0E94763C112309F430
:107E800083C0113009F484C08FE00E94C73C22CE29
:107E900080910C02816080930C02E5CE80910C02EF
:107EA000816080930C0259CF809107018823880F4D
:107EB000880B8A2180930B02809106019091070123
:107EC000880F991F90930701809306018091080203
:107ED00080FF09C080910802909109020196909359
:107EE000090280930802F894F999FECF1127E091D6
:107EF0000601F0910701C8E0D1E08091080290915D
:107F00000902103091F40091570001700130D9F34B
:107F100003E000935700E89500915700017001308D
:107F2000D9F301E100935700E89509901990009169
:107F3000570001700130D9F301E000935700E89534
:107F40001395103498F011270091570001700130FB
:107F5000D9F305E000935700E895009157000170B0
:107F60000130D9F301E100935700E895329602976A
:107F700009F0C7CF103011F00296E5CF112480919F
:107F8000C00085FFB9CEBCCE8EE10E94C73CA2CD19
:0E7F900085E90E94C73C9ECDF894FFCF80008B
:00000001FF
