:020000040000FA
:100000000C9462000C948A000C948A000C948A0070
:100010000C948A000C948A000C948A000C948A0038
:100020000C948A000C948A000C948A000C948A0028
:100030000C948A000C94E8030C948A000C948A00B7
:100040000C949E030C948A000C946C030C9446034D
:100050000C948A000C948A000C948A000C948A00F8
:100060000C948A000C948A000000000024002700F1
:100070002A0000000000250028002B0000000000DE
:1000800023002600290004040404040404040202DA
:100090000202020203030303030301020408102007
:1000A0004080010204081020010204081020000012
:1000B0000008000201000003040700000000000027
:1000C0000000800511241FBECFEFD8E0DEBFCDBFFA
:1000D00011E0A0E0B1E0EEE5F1E102C005900D9283
:1000E000A432B107D9F721E0A4E2B1E001C01D922A
:1000F000A43DB207E1F710E0C2E6D0E004C02197CA
:10010000FE010E94CF05C136D107C9F70E940F0436
:100110000C94AD080C940000AF92BF92CF92DF9286
:10012000EF92FF920F931F93CF93DF936C017B01AC
:100130008B01040F151FEB015E01AE18BF08C0173D
:10014000D10759F06991D601ED91FC910190F081B0
:10015000E02DC6010995892B79F7C501DF91CF9173
:100160001F910F91FF90EF90DF90CF90BF90AF90D5
:100170000895FC01538D448D252F30E0842F90E0AD
:10018000821B930B541710F0CF9608950197089592
:10019000FC01918D828D981761F0A28DAE0FBF2F5B
:1001A000B11D5D968C91928D9F5F9F73928F90E0B1
:1001B00008958FEF9FEF0895FC01918D828D981720
:1001C00031F0828DE80FF11D858D90E008958FEF5D
:1001D0009FEF0895FC01918D228D892F90E0805C26
:1001E0009F4F821B91098F739927089587E391E0B0
:1001F0000E94EA0021E0892B09F420E0822F089573
:1002000080E090E0892B29F00E94F60081110C9487
:1002100000000895FC01A48DA80FB92FB11DA35AA9
:10022000BF4F2C91848D90E001968F739927848F16
:10023000A689B7892C93A089B1898C918370806439
:100240008C93938D848D981306C00288F389E02DDA
:1002500080818F7D80830895EF92FF920F931F938B
:10026000CF93DF93EC0181E0888F9B8D8C8D981369
:100270001AC0E889F989808185FF15C09FB7F89475
:10028000EE89FF896083E889F989808183708064C1
:1002900080839FBF81E090E0DF91CF911F910F910C
:1002A000FF90EF900895F62E0B8D10E00F5F1F4F1B
:1002B0000F731127E02E8C8D8E110CC00FB607FC2A
:1002C000FACFE889F989808185FFF5CFCE010E94B8
:1002D0000A01F1CFEB8DEC0FFD2FF11DE35AFF4F1B
:1002E000F0829FB7F8940B8FEA89FB898081806246
:1002F000CFCFCF93DF93EC01888D8823B9F0AA8903
:10030000BB89E889F9898C9185FD03C0808186FDD0
:100310000DC00FB607FCF7CF8C9185FFF2CF80811F
:1003200085FFEDCFCE010E940A01E9CFDF91CF9189
:100330000895833081F028F4813099F08230A9F05B
:1003400008958730A9F08830C9F08430B1F48091E5
:1003500080008F7D03C0809180008F778093800024
:10036000089584B58F7784BD089584B58F7DFBCFC4
:100370008091B0008F778093B00008958091B00095
:100380008F7DF9CFCF93DF93282F30E0F901E2552D
:10039000FF4F8491F901E656FF4FD491F901EA57D6
:1003A000FF4FC491CC23A1F081110E949901EC2F41
:1003B000F0E0EE0FFF1FE458FF4FA591B491EC91D0
:1003C000ED2381E090E009F480E0DF91CF91089582
:1003D00080E090E0FACF1F93CF93DF93282F30E097
:1003E000F901E255FF4F8491F901E656FF4FD49190
:1003F000F901EA57FF4FC491CC23A9F0162F8111C0
:100400000E949901EC2FF0E0EE0FFF1FEE58FF4F16
:10041000A591B4918FB7F894EC91111108C0D095C3
:10042000DE23DC938FBFDF91CF911F910895DE2BE8
:10043000F8CFCF93DF9390E0FC01E656FF4F249175
:100440008A579F4FFC0184918823D1F090E0880F58
:10045000991FFC01E859FF4FA591B491FC01EE589A
:10046000FF4FC591D49161110EC09FB7F8948C9144
:10047000E22FE0958E238C932881E223E8839FBFAF
:10048000DF91CF9108958FB7F894EC91E22BEC9324
:100490008FBFF6CF3FB7F8948091290190912A0140
:1004A000A0912B01B0912C0126B5A89B05C02F3F30
:1004B00019F00196A11DB11D3FBFBA2FA92F982F8A
:1004C0008827BC01CD01620F711D811D911D42E085
:1004D000660F771F881F991F4A95D1F708951F93BC
:1004E000CF93DF93182FC8E0D0E061E017FF60E002
:1004F00087E00E94EB01110F60E088E00E94EB01B1
:1005000061E088E00E94EB01219779F760E086E0E6
:100510000E94EB0161E086E0DF91CF911F910C9486
:10052000EB0180912F01909130010196853091056A
:1005300089F09093300180932F0180912F01909149
:1005400030018230910591F144F40197E1F08CEC97
:1005500086BD089581E090E0ECCF83309105B9F13C
:100560000497A9F761E083E00E94EB01E091340178
:100570000E2E000CFF0BE050FF4F80810E946F0297
:1005800060E082E010C061E082E00E94EB01E09157
:1005900031010E2E000CFF0BE050FF4F80810E94B6
:1005A0006F0260E085E00E94EB01D1CF61E085E061
:1005B0000E94EB01E09132010E2E000CFF0BE05087
:1005C000FF4F80810E946F0260E084E0ECCF61E029
:1005D00084E00E94EB01E09133010E2E000CFF0B32
:1005E000E050FF4F80810E946F0260E083E0DBCF2C
:1005F0008F929F92AF92BF920F931F93CF93DF93EF
:10060000CDB7DEB7A1970FB6F894DEBF0FBECDBF52
:1006100019A2423008F44AE08E010F5D1F4F842E6C
:10062000912CB12CA12CA50194010E94AD05E62FBF
:10063000B901CA01EA3044F5E05DD801EE938D01BD
:10064000232B242B252B79F790E080E0109769F07D
:10065000FD0101900020E9F73197AF014A1B5B0BC8
:10066000BD0187E391E00E948C00A1960FB6F8943B
:10067000DEBF0FBECDBFDF91CF911F910F91BF9015
:10068000AF909F908F900895E95CD7CF1F920F9203
:100690000FB60F9211242F933F934F935F936F9355
:1006A0007F938F939F93AF93BF93EF93FF9387E3D2
:1006B00091E00E940A01FF91EF91BF91AF919F914C
:1006C0008F917F916F915F914F913F912F910F90FB
:1006D0000FBE0F901F9018951F920F920FB60F929A
:1006E00011242F938F939F93EF93FF93E0914701F2
:1006F000F09148018081E0914D01F0914E0182FD21
:100700001BC09081809150018F5F8F7320915101A8
:10071000821741F0E0915001F0E0E95CFE4F958FC7
:1007200080935001FF91EF919F918F912F910F90A6
:100730000FBE0F901F9018958081F4CF1F920F92DB
:100740000FB60F9211242F933F938F939F93AF93E4
:10075000BF938091250190912601A0912701B0912E
:1007600028013091240123E0230F2D3758F50196FD
:10077000A11DB11D20932401809325019093260192
:10078000A0932701B09328018091290190912A011B
:10079000A0912B01B0912C010196A11DB11D809358
:1007A000290190932A01A0932B01B0932C01BF91B2
:1007B000AF919F918F913F912F910F900FBE0F900E
:1007C0001F90189526E8230F0296A11DB11DD2CFC8
:1007D0001F920F920FB60F9211242F933F934F93B6
:1007E0005F936F937F938F939F93AF93BF93EF9399
:1007F000FF93E0912D01F0912E010995FF91EF916A
:10080000BF91AF919F918F917F916F915F914F9128
:100810003F912F910F900FBE0F901F901895CF937F
:10082000DF9300D000D0CDB7DEB7789484B5826076
:1008300084BD84B5816084BD85B5826085BD85B584
:10084000816085BD80916E00816080936E00109202
:10085000810080918100826080938100809181007D
:10086000816080938100809180008160809380000E
:100870008091B10084608093B1008091B00081606C
:100880008093B00080917A00846080937A00809198
:100890007A00826080937A0080917A0081608093F0
:1008A0007A0080917A00806880937A001092C1006B
:1008B000E0914701F091480182E08083E09143019B
:1008C000F09144011082E0914501F09146018FECD6
:1008D000808310924F01E0914B01F0914C0186E032
:1008E0008083E0914901F0914A0180818061808399
:1008F000E0914901F0914A01808188608083E09114
:100900004901F0914A01808180688083E09149012A
:10091000F0914A0180818F7D808361E087E00E94B1
:10092000190261E088E00E94190261E086E00E94FD
:10093000190261E085E00E94190261E084E00E94F2
:10094000190261E083E00E94190261E082E00E94E6
:10095000190260E08AE00E94190260E089E00E94CA
:10096000190261E08AE00E94EB0161E089E00E94E7
:10097000EB011092300110922F0180E180938100F1
:100980001092800080E197E2909387008093860028
:1009900082E18093810081E992E090932E0180931F
:1009A0002D0181E080936F000CE111E0CE010196F2
:1009B0006C0190E0E92E90E0F92E89E00E94C201DE
:1009C000892B89F489E00E94C201892BD9F3809197
:1009D000350190913601181619062CF40197909361
:1009E0003601809335018AE00E94C201892B91F47F
:1009F0008AE00E94C201892BD9F380913501909140
:100A00003601803127E292072CF40196909336014B
:100A100080933501809136018F93809135018F93BA
:100A20001F930F93DF92CF920E94D50580903501DE
:100A300090903601092C000CAA08BB080F900F906B
:100A40000F900F900F900F904AE0C501B401B7FED0
:100A50000DC06DE287E391E00E942C0166277727A5
:100A6000CB01681979098A099B094AE00E94F802BA
:100A700042E050E061E271E087E391E00E948C0087
:100A800089818F70809331018A818F7080933201C8
:100A90008B818F70809333018C818F7080933401B0
:100AA0000E944A022B013C0182E3882E912CA12C4A
:100AB000B12C0E944A026419750986099709683E9B
:100AC000734081059105A8F381E0881A9108A10877
:100AD000B10898EE490E93E0591E611C711C8114F7
:100AE0009104A104B10429F7E114F10409F465CFDC
:100AF0000E94F600882309F460CF0E9400005DCFB9
:100B0000E7E3F1E01382128288EE93E0A0E0B0E028
:100B100084839583A683B7838EE091E0918380835D
:100B200085EC90E09587848784EC90E097878687B2
:100B300080EC90E0918B808B81EC90E0938B828BAA
:100B400082EC90E0958B848B86EC90E0978B868B83
:100B5000118E128E138E148E0895A1E21A2EAA1BE6
:100B6000BB1BFD010DC0AA1FBB1FEE1FFF1FA2175D
:100B7000B307E407F50720F0A21BB30BE40BF50B5A
:100B8000661F771F881F991F1A9469F760957095E3
:100B9000809590959B01AC01BD01CF010895EE0FAA
:100BA000FF1F0590F491E02D0994AEE0B0E0EBED6D
:100BB000F5E00C9484080D891E8986E08C831A83E5
:100BC00009838FEF9FE79E838D83AE01475E5F4F62
:100BD0006F89788DCE0101960E94F8052F813885A6
:100BE000020F131FF80110822E96E4E00C94A00867
:100BF000ABE0B0E0EEEFF5E00C9476087C013B0151
:100C00008A01FC0117821682838181FFC8C1CE014F
:100C100001965C01F7019381F30193FD859193FFA8
:100C200081913F01882309F453C1853239F493FD42
:100C3000859193FF81913F01853229F4B70190E0BE
:100C40000E94E807E7CF912C212C312CFFE1F3150E
:100C500038F08B3211F190F4803209F1833229F1AE
:100C600037FC3CC020ED280F2A3050F536FE20C05E
:100C70008AE0989E200D1124922E06C08D3291F0AC
:100C8000803371F7689430F8F30193FD859193FFF9
:100C900081913F018111DACF21C0689431F86894C5
:100CA00032F8F2CF689433F8EFCF689434F8ECCF91
:100CB000EAE02E9E200D1124222E689435F8E4CF10
:100CC0008E3229F436FC04C1689436F8DDCF8C36B8
:100CD00019F4689437F8D8CF8836B1F2982F9F7DF1
:100CE00095549330E0F08336A1F18337C1F1833519
:100CF00009F063C02801F2E04F0E511CF801C080DA
:100D0000D180692D70E036FC02C06FEF7FEFC60125
:100D10000E94D2074C01689437F882010AC00C5F28
:100D20001F4FFFE3F98388248394912C6501E89495
:100D300037F833FE2DC0522C8114910471F55520E3
:100D400009F468CFB70180E290E00E94E8075A9466
:100D5000F6CFF801808189830E5F1F4FE4CF280111
:100D6000F2E04F0E511CF801C080D180692D70E077
:100D700036FC02C06FEF7FEFC6010E94DD074C0119
:100D80008201D5CFB70180E290E00E94E8072A9463
:100D90002814190409F0B0F7CECFF60137FC85917D
:100DA00037FE81916F01B70190E00E94E807511072
:100DB0005A94F1E08F1A9108BFCF843619F0893622
:100DC00009F077C0F80137FE6BC0608171818281C4
:100DD00093810C5F1F4FF32DFF763F2E97FF09C0C5
:100DE00090958095709561957F4F8F4F9F4F689438
:100DF00037F82AE030E0A5010E941808C82ECA186A
:100E00008C2C432C36FE0CC0E89440F8C91440F4F6
:100E100034FE05C032FC03C0F32DFE7E4F2E892C1C
:100E200044FE95C0FE01EC0DF11D8081803309F078
:100E300087C0242D297E422E842D8870582E43FC95
:100E400095C040FE8FC09C2C821418F42C0C922C60
:100E5000981844FE91C0B70180E390E00E94E80733
:100E600042FE09C088E790E041FE02C088E590E0BC
:100E7000B7010E94E807C91408F48AC0CA94D12CAB
:100E80009FEFC91AD90ACA0CDB1CF60182916F01C7
:100E9000B70190E00E94E807AC14BD04B1F74FCF52
:100EA00060817181072E000C880B990B0E5F1F4F1C
:100EB00092CFD32CE894D4F82AE030E0853739F18A
:100EC000232D297FD22E8F3601F148F48835A9F0E1
:100ED000F701868197812B96E2E10C949208803786
:100EE00049F08837A9F7D4FE02C06894D2F820E10F
:100EF00030E00DC06894D4F8F6CF34FE03C0822FE2
:100F00008660D82E20E132E002C028E030E0F8010F
:100F1000D7FE0FC060817181828193810C5F1F4F6A
:100F2000A5010E941808C82ECA183D2CE89437F86D
:100F300067CF6081718190E080E00E5F1F4FF0CF3E
:100F400042FC02C0839478CF8394839475CF842D20
:100F5000867809F471CFF6CFB70180E290E00E9465
:100F6000E80783948214C0F3512C73CF522C581885
:100F7000821408F46ECFF8CF842D867809F47BCFE5
:100F80008BE241FE80E247FC8DE2B70190E071CF39
:100F9000B70180E390E00E94E8079A946CCF8FEF4E
:100FA0009FEF99CFFC010590615070400110D8F778
:100FB000809590958E0F9F1F0895FC0161507040A1
:100FC00001900110D8F7809590958E0F9F1F08957E
:100FD0000F931F93CF93DF93182F092FEB018B8172
:100FE00081FD09C01FEF0FEF812F902FDF91CF916F
:100FF0001F910F91089582FF14C02E813F818C8133
:101000009D81281739073CF4E881F981CF010196C9
:101010009983888310838E819F8101969F838E831D
:10102000E3CFE885F985812F0995892BA1F3DACFE4
:10103000FA01AA27283051F1203181F1E8946F9309
:101040006E7F6E5F7F4F8F4F9F4FAF4FB1E03ED0AF
:10105000B4E03CD0670F781F891F9A1FA11D680F4D
:10106000791F8A1F911DA11D6A0F711D811D911D80
:10107000A11D20D009F468943F912AE0269F1124F5
:101080003019305D3193DEF6CF010895462F477059
:10109000405D4193B3E00FD0C9F7F6CF462F4F70B4
:1010A000405D4A3318F0495D31FD4052419302D012
:1010B000A9F7EACFB4E0A6959795879577956795B8
:1010C000BA95C9F700976105710508959B01AC01B8
:1010D0000A2E06945795479537952795BA95C9F7DF
:1010E000620F731F841F951FA01D08952F923F92BA
:1010F0004F925F926F927F928F929F92AF92BF9228
:10110000CF92DF92EF92FF920F931F93CF93DF93D3
:10111000CDB7DEB7CA1BDB0B0FB6F894DEBF0FBE30
:10112000CDBF09942A88398848885F846E847D847D
:101130008C849B84AA84B984C884DF80EE80FD807F
:101140000C811B81AA81B981CE0FD11D0FB6F894F5
:10115000DEBF0FBECDBFED010895F894FFCF3F066F
:101160005B4F666D7D077F6F000000002C018C00D7
:10117000B9007901EA00C800DC0025303464000DB4
:021180000A0063
:107800000C94343C0C94513C0C94513C0C94513CE1
:107810000C94513C0C94513C0C94513C0C94513CB4
:107820000C94513C0C94513C0C94513C0C94513CA4
:107830000C94513C0C94513C0C94513C0C94513C94
:107840000C94513C0C94513C0C94513C0C94513C84
:107850000C94513C0C94513C0C94513C0C94513C74
:107860000C94513C0C94513C11241FBECFEFD8E036
:10787000DEBFCDBF11E0A0E0B1E0ECE9FFE702C060
:1078800005900D92A230B107D9F712E0A2E0B1E065
:1078900001C01D92AD30B107E1F70E942D3D0C945F
:1078A000CC3F0C94003C982F959595959595959582
:1078B000905D8F708A307CF0282F295A8091C0000B
:1078C00085FFFCCF9093C6008091C00085FFFCCF60
:1078D0002093C6000895282F205DF0CF982F809127
:1078E000C00085FFFCCF9093C6000895EF92FF92F1
:1078F0000F931F93EE24FF2487018091C00087FD22
:1079000017C00894E11CF11C011D111D81E4E8164B
:1079100082E4F8068FE0080780E0180770F3E09132
:107920000401F091050109958091C00087FFE9CF1E
:107930008091C6001F910F91FF90EF9008950E94D3
:10794000763C982F8091C00085FFFCCF9093C600B5
:1079500091362CF490330CF09053892F089597555D
:10796000892F08951F930E949F3C182F0E949F3CCF
:107970001295107F810F1F9108951F93182F882350
:1079800021F00E94763C1150E1F71F9108951F935A
:10799000182F0E94763C803249F0809103018F5F5E
:1079A000809303018530C1F01F9108958091C0003C
:1079B00085FFFCCF84E18093C6008091C00085FFE5
:1079C000FCCF1093C6008091C00085FFFCCF80E102
:1079D0008093C6001F910895E0910401F091050184
:1079E00009951F9108950E94763C803241F0809164
:1079F00003018F5F80930301853081F008958091AA
:107A0000C00085FFFCCF84E18093C6008091C00058
:107A100085FFFCCF80E18093C6000895E0910401CA
:107A2000F09105010995089540E951E08823A1F0FE
:107A30002D9A28EE33E0FA013197F1F721503040CA
:107A4000D1F72D9828EE33E0FA013197F1F7215064
:107A50003040D1F7815061F708953F924F925F9285
:107A60006F927F928F929F92AF92BF92CF92DF924E
:107A7000EF92FF920F931F93CF93DF93000080E16B
:107A80008093C4001092C50088E18093C10086E015
:107A90008093C2005098589A259A81E00E94143D24
:107AA00024E1F22E9EE1E92E85E9D82E0FE0C02ECA
:107AB00010E1B12EAA24A394B1E49B2EA6E58A2E50
:107AC000F2E57F2EE0E26E2E79E4572E63E5462E36
:107AD00050E5352E0E94763C8033B1F18133B9F107
:107AE000803409F46FC0813409F476C0823409F41B
:107AF00085C0853409F488C0803531F1823521F1A3
:107B0000813511F1853509F485C0863509F48DC0BC
:107B1000843609F496C0843709F403C1853709F423
:107B200072C1863709F466C0809103018F5F80932C
:107B30000301853079F6E0910401F0910501099582
:107B40000E94763C803351F60E94F33CC3CF0E94E2
:107B5000763C803249F78091C00085FFFCCFF092DF
:107B6000C6008091C00085FFFCCF9092C600809136
:107B7000C00085FFFCCF8092C6008091C00085FFC9
:107B8000FCCF7092C6008091C00085FFFCCF609250
:107B9000C6008091C00085FFFCCF5092C600809146
:107BA000C00085FFFCCF4092C6008091C00085FFD9
:107BB000FCCF3092C6008091C00085FFFCCFB09210
:107BC000C60088CF0E94763C863808F4BDCF0E945C
:107BD000763C0E94F33C7ECF0E94763C803809F4CC
:107BE0009CC0813809F40BC1823809F43CC1883942
:107BF00009F48FC080E00E94C73C6CCF84E10E94F2
:107C0000BD3C0E94F33C66CF85E00E94BD3C0E94D3
:107C1000F33C60CF0E94763C809306010E94763C44
:107C2000809307010E94F33C55CF0E94763C80333D
:107C300009F41DC183E00E94BD3C80E00E94C73C66
:107C400049CF0E94763C809309020E94763C809343
:107C5000080280910C028E7F80930C020E94763C79
:107C6000853409F415C18091080290910902892B8D
:107C700089F000E010E00E94763CF801E85FFE4FDA
:107C800080830F5F1F4F80910802909109020817AF
:107C9000190788F30E94763C803209F045CF809125
:107CA0000C0280FF01C16091060170910701660F0F
:107CB000771F7093070160930601A0910802B091AD
:107CC00009021097C9F0E8E0F1E09B01AD014E0F09
:107CD0005F1FF999FECF32BD21BD819180BDFA9A17
:107CE000F99A2F5F3F4FE417F50799F76A0F7B1F4B
:107CF00070930701609306018091C00085FFFCCF5F
:107D0000F092C6008091C00085FFFCCFB092C60003
:107D1000E1CE83E00E94C73CDDCE82E00E94C73CFA
:107D2000D9CE0E94763C809309020E94763C8093D3
:107D300008028091060190910701880F991F909386
:107D40000701809306010E94763C853409F4A6C0A1
:107D500080910C028E7F80930C020E94763C8032D0
:107D600009F0B8CE8091C00085FFFCCFF092C6002C
:107D7000609108027091090261157105B9F140E046
:107D800050E080910C02A82FA170B82FB27011C0E2
:107D9000BB2309F45CC0E0910601F0910701319624
:107DA000F0930701E09306014F5F5F4F46175707B7
:107DB000E8F4AA2369F3F999FECF209106013091E6
:107DC000070132BD21BDF89A90B58091C00085FFB2
:107DD000FCCF9093C6002F5F3F4F30930701209355
:107DE00006014F5F5F4F4617570718F38091C00099
:107DF00085FDE5CE8091C00085FFF8CFE0CE81E023
:107E00000E94C73C67CE0E94763C803209F08CCE3F
:107E10008091C00085FFFCCFF092C6008091C00029
:107E200085FFFCCFE092C6008091C00085FFFCCFAB
:107E3000D092C6008091C00085FFFCCFC092C600E2
:107E40008091C00085FFFCCFB092C60043CEE09188
:107E50000601F091070194918091C00085FFFCCF4D
:107E60009093C6009CCF80E10E94C73C33CE0E9415
:107E7000763C0E94763C182F0E94763C112309F430
:107E800083C0113009F484C08FE00E94C73C22CE29
:107E900080910C02816080930C02E5CE80910C02EF
:107EA000816080930C0259CF809107018823880F4D
:107EB000880B8A2180930B02809106019091070123
:107EC000880F991F90930701809306018091080203
:107ED00080FF09C080910802909109020196909359
:107EE000090280930802F894F999FECF1127E091D6
:107EF0000601F0910701C8E0D1E08091080290915D
:107F00000902103091F40091570001700130D9F34B
:107F100003E000935700E89500915700017001308D
:107F2000D9F301E100935700E89509901990009169
:107F3000570001700130D9F301E000935700E89534
:107F40001395103498F011270091570001700130FB
:107F5000D9F305E000935700E895009157000170B0
:107F60000130D9F301E100935700E895329602976A
:107F700009F0C7CF103011F00296E5CF112480919F
:107F8000C00085FFB9CEBCCE8EE10E94C73CA2CD19
:0E7F900085E90E94C73C9ECDF894FFCF80008B
:00000001FF
