:020000040000FA
:100000000C9462000C948A000C948A000C948A0070
:100010000C948A000C948A000C948A000C948A0038
:100020000C948A000C948A000C948A000C948A0028
:100030000C948A000C948A000C948A000C948A0018
:100040000C9497050C948A000C9465050C943F055C
:100050000C948A000C948A000C948A000C948A00F8
:100060000C94E1050C948A00000000002400270095
:100070002A0000000000250028002B0000000008D6
:10008000000201000003040700000000000000005F
:1000900000000000230026002900040404040404D6
:1000A0000404020202020202030303030303010227
:1000B00004081020408001020408102001020408F6
:1000C0001020410711241FBECFEFD8E0DEBFCDBF07
:1000D00011E0A0E0B1E0E2E2F5E102C005900D928E
:1000E000AA37B107D9F722E0AAE7B1E001C01D9213
:1000F000A53DB207E1F710E0C2E6D0E004C02197C9
:10010000FE010E94890AC136D107C9F70E948907FA
:100110000C948F0A0C940000AF92BF92CF92DF92A2
:10012000EF92FF920F931F93CF93DF936C017B01AC
:100130008B01040F151FEB015E01AE18BF08C0173D
:10014000D10759F06991D601ED91FC910190F081B0
:10015000E02DC6010995892B79F7C501DF91CF9173
:100160001F910F91FF90EF90DF90CF90BF90AF90D5
:100170000895FC01538D448D252F30E0842F90E0AD
:10018000821B930B541710F0CF9608950197089592
:10019000FC01918D828D981761F0A28DAE0FBF2F5B
:1001A000B11D5D968C91928D9F5F9F73928F90E0B1
:1001B00008958FEF9FEF0895FC01918D828D981720
:1001C00031F0828DE80FF11D858D90E008958FEF5D
:1001D0009FEF0895FC01918D228D892F90E0805C26
:1001E0009F4F821B91098F739927089580E292E0B7
:1001F0000E94EA0021E0892B09F420E0822F089573
:1002000080E090E0892B29F00E94F60081110C9487
:1002100000000895FC01A48DA80FB92FB11DA35AA9
:10022000BF4F2C91848D90E001968F739927848F16
:10023000A689B7892C93A089B1898C918370806439
:100240008C93938D848D981306C00288F389E02DDA
:1002500080818F7D80830895EF92FF920F931F938B
:10026000CF93DF93EC0181E0888F9B8D8C8D981369
:100270001AC0E889F989808185FF15C09FB7F89475
:10028000EE89FF896083E889F989808183708064C1
:1002900080839FBF81E090E0DF91CF911F910F910C
:1002A000FF90EF900895F62E0B8D10E00F5F1F4F1B
:1002B0000F731127E02E8C8D8E110CC00FB607FC2A
:1002C000FACFE889F989808185FFF5CFCE010E94B8
:1002D0000A01F1CFEB8DEC0FFD2FF11DE35AFF4F1B
:1002E000F0829FB7F8940B8FEA89FB898081806246
:1002F000CFCFCF93DF93EC01888D8823B9F0AA8903
:10030000BB89E889F9898C9185FD03C0808186FDD0
:100310000DC00FB607FCF7CF8C9185FFF2CF80811F
:1003200085FFEDCFCE010E940A01E9CFDF91CF9189
:10033000089590E0FC01E458FF4F2491FC01E25540
:10034000FF4F3491FC01E656FF4FE491EE23C9F0D4
:10035000222339F0233001F1A8F4213019F12230A1
:1003600029F1F0E0EE0FFF1FEE58FF4FA591B49179
:100370008FB7F894EC91611126C030953E233C93E1
:100380008FBF08952730A9F02830C9F0243049F7ED
:10039000809180008F7D03C0809180008F77809353
:1003A0008000DFCF84B58F7784BDDBCF84B58F7DB0
:1003B000FBCF8091B0008F778093B000D2CF809137
:1003C000B0008F7DF9CF3E2BDACFCF93DF9390E053
:1003D000FC01E255FF4F249186569F4FFC0184910A
:1003E0008823D1F090E0880F991FFC01E859FF4F56
:1003F000A591B491FC01EE58FF4FC591D4916111C4
:100400000EC09FB7F8948C91E22FE0958E238C93C9
:100410002881E223E8839FBFDF91CF9108958FB7B2
:10042000F894EC91E22BEC938FBFF6CF3FB7F894A2
:100430008091140290911502A0911602B0911702BA
:1004400026B5A89B05C02F3F19F00196A11DB11D2F
:100450003FBFBA2FA92F982F8827BC01CD01620F6B
:10046000711D811D911D42E0660F771F881F991F26
:100470004A95D1F708958F929F92AF92BF92CF92F3
:10048000DF92EF92FF924B015C010E9416026B011A
:100490007C010E9416026C197D098E099F09683E35
:1004A000734081059105A8F321E0821A9108A10803
:1004B000B10888EEC80E83E0D81EE11CF11C81143F
:1004C0009104A104B10429F7FF90EF90DF90CF9041
:1004D000BF90AF909F908F9008951F93CF93DF931D
:1004E000C1E0C093A401882399F1D091B800109184
:1004F000BA008091BC008A7B8093BC0060E082E1FE
:100500000E94990160E083E10E9499011092E90143
:10051000C093EB011092EA0161E082E10E9499012F
:1005200061E083E10E9499018091B9008E7F809300
:10053000B9008091B9008D7F8093B90088E48093E1
:10054000B80085E48093BC001093BA00D093B80043
:10055000DF91CF911F9108952091C501260F332778
:10056000331F21323105ECF42091E901FC0190E0C8
:1005700080E0243069F082E00895A091C5012191C6
:10058000AC014B555E4FA40FB52FB11D2C930196B6
:10059000861798F38091C501680F6093C50180E0CC
:1005A000089581E0089508958FEF9FEF08958FEFEC
:1005B0009FEF089580919E0190E09195819591091A
:1005C0000895CF92DF92EF92FF920F931F93CF93F4
:1005D000DF937C01CB018A0120919D01222389F0C8
:1005E000EB016B01C40ED51ECC15DD0569F06991D8
:1005F000D701ED91FC910190F081E02DC7010995A3
:10060000F3CF642F0E94AC02C801DF91CF911F91FC
:100610000F91FF90EF90DF90CF900895CF93DF93ED
:100620001F92CDB7DEB7698320919D012223F9F097
:1006300020919C01203258F021E030E0FC0133830E
:10064000228390E080E00F90DF91CF910895809118
:100650009B01E82FF0E0E558FE4F998190838F5F72
:1006600080939B0180939C0181E090E0ECCF61E05E
:10067000CE0101960E94AC02F7CFCF92DF92EF92AB
:10068000FF920F931F93CF93DF93FC01C48121E06E
:1006900020939D01C0937A0110929B0110929C01BE
:1006A0008385682B8DEB92E00E940E03D0919C0114
:1006B000D13208F092C00E9416026B017C01809139
:1006C000E901811165C082E08093E90181E08093B6
:1006D000EB018FEF8093E80110920D02D0930C0292
:1006E000ABE7B1E0ECEEF1E080E0D81385C010920A
:1006F0000E0280910E02CC0FC82BC0930E02809187
:10070000EA01813009F07CC01092EA010E941602D1
:100710006B017C0180910E028093BB008091A0014F
:100720009091A101A091A201B091A301892B8A2BE4
:100730008B2B99F00E9416020091A0011091A1014B
:100740002091A2013091A3016C197D098E099F09A6
:100750000617170728073907E0F18091BC0083FDD1
:10076000D9CF85EC8093BC000E9416026B017C01FE
:100770008091E901823009F445C08091E8018F3F02
:1007800061F18091E801803241F18091E80125C05A
:100790008091A0019091A101A091A201B091A3012B
:1007A000892B8A2B8B2B09F48ACF0E941602009189
:1007B000A0011091A1012091A2013091A3016C1917
:1007C0007D098E099F09061717072807390708F0C2
:1007D00076CF80919F010E946D0210929B01109232
:1007E0009C0110929D01DF91CF911F910F91FF907D
:1007F000EF90DF90CF9008959D9191938F5F75CF8B
:1008000085EEB0CF8091A0019091A101A091A201AD
:10081000B091A301892B8A2B8B2B09F4A9CF0E94BD
:1008200016020091A0011091A1012091A201309126
:10083000A3016C197D098E099F0906171707280760
:10084000390708F095CFC5CF089590E080E008956E
:100850008F929F92AF92BF920F931F93CF93DF938C
:10086000CDB7DEB7A1970FB6F894DEBF0FBECDBFF0
:1008700019A2423008F44AE08E010F5D1F4F842E0A
:10088000912CB12CA12CA50194010E94670AE62F9E
:10089000B901CA01EA3044F5E05DD801EE938D015B
:1008A000232B242B252B79F790E080E0109769F01B
:1008B000FD0101900020E9F73197AF014A1B5B0B66
:1008C000BD0189EC92E00E948C00A1960FB6F894CD
:1008D000DEBF0FBECDBFDF91CF911F910F91BF90B3
:1008E000AF909F908F900895E95CD7CFFC01019065
:1008F0000020E9F73197AF01481B590BBC0189EC87
:1009000092E00C948C000F931F93CF938C01C62F11
:100910000E943D036C2F6460C8010E943D036C2F50
:100920006B7FC8010E943D0383EC90E00197F1F7D3
:10093000CF911F910F9108950F931F93CF93DF9342
:100940008C01D62FC42F607F642B0E94830480E12A
:10095000D89FB00111246C2BC801DF91CF911F915A
:100960000F910C948304CF93DF93CDB7DEB7289714
:100970000FB6F894DEBF0FBECDBF98E0E0E0F1E027
:10098000DE01119601900D929A95E1F79091D102B6
:10099000981710F48FEF890F90E0880F991F21E0CE
:1009A00030E02C0F3D1F820F931FFC0160816068B7
:1009B00040E089EC92E028960FB6F894DEBF0FBEB7
:1009C000CDBFDF91CF910C949C0441E00E949C0428
:1009D00081E090E00895CF92DF92EF92FF926B0159
:1009E0007C0141E06DE289EC92E00E949C04662764
:1009F0007727CB016C197D098E099F094AE00E9477
:100A000028040196FF90EF90DF90CF90089585ED38
:100A10008093BC008091A0019091A101A091A201BE
:100A2000B091A3010796A11DB11D23E0B695A7952E
:100A3000979587952A95D1F72091BC0024FD03C096
:100A40001092E90108954091A0015091A101609197
:100A5000A2017091A301452B462B472B69F3009708
:100A6000A105B10541F025E32A95F1F700000197B2
:100A7000A109B109E1CF80919F010C946D021F92F1
:100A80000F920FB60F9211242F933F934F935F93C2
:100A90006F937F938F939F93AF93BF93EF93FF9346
:100AA00080E292E00E940A01FF91EF91BF91AF9125
:100AB0009F918F917F916F915F914F913F912F9176
:100AC0000F900FBE0F901F9018951F920F920FB6A8
:100AD0000F9211242F938F939F93EF93FF93E091A5
:100AE0003002F09131028081E0913602F0913702BC
:100AF00082FD1BC09081809139028F5F8F7320919E
:100B00003A02821741F0E0913902F0E0E05EFD4FD9
:100B1000958F80933902FF91EF919F918F912F9143
:100B20000F900FBE0F901F9018958081F4CF1F92E9
:100B30000F920FB60F9211242F933F938F939F9391
:100B4000AF93BF938091100290911102A091120275
:100B5000B091130230910F0223E0230F2D3758F587
:100B60000196A11DB11D20930F0280931002909356
:100B70001102A0931202B09313028091140290917B
:100B80001502A0911602B09117020196A11DB11D88
:100B90008093140290931502A0931602B09317024B
:100BA000BF91AF919F918F913F912F910F900FBE69
:100BB0000F901F90189526E8230F0296A11DB11DD6
:100BC000D2CF1F920F920FB60F9211242F933F9303
:100BD0004F935F936F937F938F939F93AF93BF9345
:100BE000EF93FF938091B900887F803609F44AC063
:100BF000F0F5883209F4A5C018F5803109F499C0E0
:100C0000B8F4882309F4F5C0883009F492C0FF9144
:100C1000EF91BF91AF919F918F917F916F915F9174
:100C20004F913F912F910F900FBE0F901F901895ED
:100C3000883109F486C0803251F78093E80114C0EE
:100C4000803409F49BC040F48033B9F38833F9F65B
:100C50008093E80185ECAEC0803509F483C0883507
:100C600009F494C0883499F60E940705D0CF8839DA
:100C700009F48AC038F5883729F050F4883611F025
:100C8000803729F683E08093E9011092E70155C08F
:100C9000883809F479C0803919F0803809F0B7CF65
:100CA0008091E701803208F06FC0E091E70181E0B8
:100CB0008E0F8093E7018091BB00F0E0E953FE4F77
:100CC00080833BC0803B39F0D0F4803A09F477C090
:100CD000883A09F09CCF84E08093E9011092C60124
:100CE0001092C501F0E0E0E009958091C501811105
:100CF0000FC081E08093C5011092A50109C0803C1E
:100D000009F4A8CF883C09F4A5CF883B09F07FCF30
:100D1000E091C60181E08E0F8093C601F0E0EB55B3
:100D2000FE4F80818093BB009091C6018091C501E8
:100D300029C080910E028093BB0085EC8093BC009B
:100D400066CF90910D0280910C02981758F5E091B2
:100D50000D0281E08E0F80930D02F0E0E451FE4F12
:100D60008081E9CFE0910D0281E08E0F80930D022A
:100D70008091BB00F0E0E451FE4F808390910D0222
:100D800080910C029817C8F285E8D8CFE0910D0247
:100D900081E08E0F80930D028091BB00F0E0E45162
:100DA000FE4F80838091EB0181115ECF81E08093C3
:100DB000EA0184EA8093BC001092E90128CF85EC17
:100DC0008093BC001092E9018091E701803230F4F9
:100DD000E091E701F0E0E953FE4F10826091E701F6
:100DE00070E087EC91E0F0E0E0E009951092E70117
:100DF0000ECF1092E80138CFCF92DF92EF92FF92A0
:100E00000F931F93E82FF92F05C0015011092109F5
:100E1000310961F1908196239417B9F305C001500F
:100E200011092109310911F1908196239413F7CF0B
:100E3000C12CD12CE12CF12C0AC08FEFC81AD80A92
:100E4000E80AF80A0C151D052E053F0579F080818A
:100E50008623841791F36C2D7D2D8E2D9F2D1F9150
:100E60000F91FF90EF90DF90CF90089560E070E0D9
:100E700080E090E01F910F91FF90EF90DF90CF9076
:100E80000895E0E2F2E01382128288EE93E0A0E09F
:100E9000B0E084839583A683B7832CE031E031836F
:100EA000208325EC30E03587248724EC30E0378739
:100EB000268720EC30E0318B208B21EC30E0338B27
:100EC000228B22EC30E0358B248B26EC30E0378B04
:100ED000268B118E128E138E148EEDEBF2E01382A0
:100EE000128284839583A683B7838EE191E09183F8
:100EF0008083E9ECF2E01382128280E391E0918337
:100F0000808387E2848384E1818784E082871386FB
:100F10000895789484B5826084BD84B5816084BD71
:100F200085B5826085BD85B5816085BD80916E0087
:100F3000816080936E0010928100809181008260B8
:100F400080938100809181008160809381008091F5
:100F500080008160809380008091B10084608093E4
:100F6000B1008091B00081608093B00080917A00E0
:100F7000846080937A0080917A00826080937A0006
:100F800080917A00816080937A0080917A008068F5
:100F900080937A001092C100E0913002F09131020A
:100FA00012E01083E0912C02F0912D021082E0916A
:100FB0002E02F0912F028FEC808310923802E09184
:100FC0003402F091350286E08083E0913202F091A4
:100FD0003302808180618083E0913202F09133029C
:100FE000808188608083E0913202F09133028081B9
:100FF00080688083E0913202F091330280818F7D9E
:10100000808361E083E00E94E50160E082E00E946D
:10101000E5018091CE0288608093CE0204E00093C7
:10102000D10262E370E080E090E00E943B026091B8
:10103000D40289EC92E00E943D0368EE73E080E008
:1010400090E00E943B0260E389EC92E00E948304FE
:10105000CBE4D6E4CE010197F1F760E389EC92E0AE
:101060000E9483042197F1F760E389EC92E00E94EB
:10107000830483E592E00197F1F760E289EC92E066
:101080000E9483046091CE02606240E089EC92E0AD
:101090000E949C040093CF0240E06CE089EC92E057
:1010A0000E949C0440E061E089EC92E00E949C0474
:1010B000CBE3DFE1CE010197F1F71093D00240E0DE
:1010C00066E089EC92E00E949C0440E062E089ECDA
:1010D00092E00E949C042197F1F7CFE0D0E043E238
:1010E000E42EF12C50EBC52E50E0D52E6CE9A62E47
:1010F00060E0B62E70E0872E70E0972E60E083E00F
:101100000E949901CE010197F1F761E083E00E940E
:101110009901C7010197F1F760E083E00E9499010E
:1011200060E082E00E94E501F6016491F50184919E
:10113000E82FF0E0EE0FFF1FE057FF4F85919491ED
:1011400000E412E42FE030E0462F0E94FC06611517
:1011500071058105910529F06F5F7F4F8F4F9F4F7C
:101160009F7095958795779567950E94DB092B0170
:101170003C012DEC3CEC48EE51E40E9431090E9408
:10118000A30960931C0270931D0280931E0290932A
:101190001F0228EF33ED43E952E4C301B2010E947C
:1011A00031090E94A3096093180270931902809379
:1011B0001A0290931B0280E00E94B30488E391E03E
:1011C0000E94760481E00E94B3048BE491E00E94C7
:1011D0007604609118027091190280911A02909120
:1011E0001B0297FF36C00E94EB0485E591E00E9448
:1011F000760482E00E94B30488E591E00E947604C0
:1012000060911C0270911D0280911E0290911F023C
:1012100097FF23C00E94EB0485E691E00E947604CC
:1012200083E00E94B30488E691E00E9476046AEFAE
:1012300070E080E090E00E943B028114910409F488
:101240005DCF0E94F600882309F458CF0E94000069
:1012500055CF4AE00E942804C8CF4AE00E942804E3
:10126000DBCF0E9445090C942D0A0E94260A58F0F3
:101270000E941F0A40F029F45F3F29F00C94160ADF
:1012800051110C94610A0C941C0A0E943E0A68F3E6
:101290009923B1F3552391F3951B550BBB27AA272F
:1012A00062177307840738F09F5F5F4F220F331F69
:1012B000441FAA1FA9F335D00E2E3AF0E0E832D031
:1012C00091505040E695001CCAF72BD0FE2F29D034
:1012D000660F771F881FBB1F261737074807AB0706
:1012E000B0E809F0BB0B802DBF01FF2793585F4F7B
:1012F0003AF09E3F510578F00C94160A0C94610A5E
:101300005F3FE4F3983ED4F3869577956795B7955C
:10131000F7959F5FC9F7880F911D9695879597F967
:101320000895E1E0660F771F881FBB1F62177307E0
:101330008407BA0720F0621B730B840BBA0BEE1FF5
:1013400088F7E09508950E94AA096894B1110C9459
:10135000610A08950E94460A88F09F5798F0B92FB5
:101360009927B751B0F0E1F0660F771F881F991FDA
:101370001AF0BA95C9F714C0B13091F00E94600A12
:10138000B1E008950C94600A672F782F8827B85F22
:1013900039F0B93FCCF3869577956795B395D9F732
:1013A0003EF490958095709561957F4F8F4F9F4F3C
:1013B0000895E89409C097FB3EF490958095709548
:1013C00061957F4F8F4F9F4F9923A9F0F92F96E991
:1013D000BB279395F695879577956795B795F11106
:1013E000F8CFFAF4BB0F11F460FF1BC06F5F7F4FA3
:1013F0008F4F9F4F16C0882311F096E911C07723B5
:1014000021F09EE8872F762F05C0662371F096E8BD
:10141000862F70E060E02AF09A95660F771F881F8C
:10142000DAF7880F9695879597F9089597F99F674A
:1014300080E870E060E008959FEF80EC089500245C
:101440000A941616170618060906089500240A9429
:1014500012161306140605060895092E0394000CAF
:1014600011F4882352F0BB0F40F4BF2B11F460FF3E
:1014700004C06F5F7F4F8F4F9F4F089557FD905867
:10148000440F551F59F05F3F71F04795880F97FB48
:10149000991F61F09F3F79F0879508951216130602
:1014A0001406551FF2CF4695F1DF08C01616170631
:1014B0001806991FF1CF8695710561050894089566
:1014C000E894BB2766277727CB0197F90895A1E217
:1014D0001A2EAA1BBB1BFD010DC0AA1FBB1FEE1FAE
:1014E000FF1FA217B307E407F50720F0A21BB30BF9
:1014F000E40BF50B661F771F881F991F1A9469F775
:1015000060957095809590959B01AC01BD01CF01D0
:101510000895EE0FFF1F0590F491E02D0994F894C3
:10152000FFCF0000400014005400000000002C0118
:101530008C00B9007901EA00C800DC00000000005E
:101540000E03E1022504D302DA02D702D40200001E
:101550000000E5048C00250424043D446973746193
:101560006E636961204D65646964613D0050756C0E
:1015700067616461733A00696E0043656E74696DFA
:101580006574726F733A00636D002D53616E612054
:0C15900044697374616E6369612D000092
:107E0000112484B714BE81FFF0D085E080938100F7
:107E100082E08093C00088E18093C10086E0809377
:107E2000C20080E18093C4008EE0C9D0259A86E02C
:107E300020E33CEF91E0309385002093840096BBD3
:107E4000B09BFECF1D9AA8958150A9F7CC24DD24C4
:107E500088248394B5E0AB2EA1E19A2EF3E0BF2EE7
:107E6000A2D0813461F49FD0082FAFD0023811F036
:107E7000013811F484E001C083E08DD089C08234E0
:107E800011F484E103C0853419F485E0A6D080C0E4
:107E9000853579F488D0E82EFF2485D0082F10E0AE
:107EA000102F00270E291F29000F111F8ED06801E7
:107EB0006FC0863521F484E090D080E0DECF843638
:107EC00009F040C070D06FD0082F6DD080E0C81688
:107ED00080E7D80618F4F601B7BEE895C0E0D1E017
:107EE00062D089930C17E1F7F0E0CF16F0E7DF06D8
:107EF00018F0F601B7BEE89568D007B600FCFDCFD4
:107F0000A601A0E0B1E02C9130E011968C91119780
:107F100090E0982F8827822B932B1296FA010C0160
:107F200087BEE89511244E5F5F4FF1E0A038BF0790
:107F300051F7F601A7BEE89507B600FCFDCF97BE46
:107F4000E89526C08437B1F42ED02DD0F82E2BD052
:107F50003CD0F601EF2C8F010F5F1F4F84911BD097
:107F6000EA94F801C1F70894C11CD11CFA94CF0C13
:107F7000D11C0EC0853739F428D08EE10CD085E9AC
:107F80000AD08FE07ACF813511F488E018D01DD067
:107F900080E101D065CF982F8091C00085FFFCCF94
:107FA0009093C60008958091C00087FFFCCF809118
:107FB000C00084FD01C0A8958091C6000895E0E648
:107FC000F0E098E1908380830895EDDF803219F02E
:107FD00088E0F5DFFFCF84E1DECF1F93182FE3DFCA
:107FE0001150E9F7F2DF1F91089580E0E8DFEE27F6
:047FF000FF270994CA
:027FFE00040479
:00000001FF
