:100000000C9462000C948A000C948A000C948A0070
:100010000C948A000C948A000C948A000C948A0038
:100020000C948A000C948A000C948A000C948A0028
:100030000C948A000C948A000C948A000C948A0018
:100040000C9484060C948A000C9452060C942C0692
:100050000C948A000C948A000C948A000C948A00F8
:100060000C94CE060C948A000000000024002700A7
:100070002A0000000000250028002B0000000000DE
:1000800023002600290004040404040404040202DA
:100090000202020203030303030301020408102007
:1000A0004080010204081020010204081020000012
:1000B0000008000201000003040700000000000027
:1000C0000000ED0711241FBECFEFD8E0DEBFCDBF8B
:1000D00011E0A0E0B1E0E0E1F3E102C005900D9293
:1000E000AC37B107D9F722E0ACE7B1E001C01D920F
:1000F000A63FB207E1F710E0C2E6D0E004C02197C6
:10010000FE010E948009C136D107C9F70E94350857
:100110000C9486090C94000008950895AF92BF9244
:10012000CF92DF92EF92FF920F931F93CF93DF93C3
:100130006C017B018B01040F151FEB015E01AE18F2
:10014000BF08C017D10759F06991D601ED91FC9114
:100150000190F081E02DC6010995892B79F7C50141
:10016000DF91CF911F910F91FF90EF90DF90CF9093
:10017000BF90AF900895FC01538D448D252F30E042
:10018000842F90E0821B930B541710F0CF960895A4
:1001900001970895FC01918D828D981761F0A28DD1
:1001A000AE0FBF2FB11D5D968C91928D9F5F9F7397
:1001B000928F90E008958FEF9FEF0895FC01918D4D
:1001C000828D981731F0828DE80FF11D858D90E0BA
:1001D00008958FEF9FEF0895FC01918D228D892F57
:1001E00090E0805C9F4F821B91098F73992708953F
:1001F00081E492E00E94EC0021E0892B09F420E0E8
:10020000822F089580E090E0892B29F00E94F80069
:1002100081110C9400000895FC01A48DA80FB92F42
:10022000B11DA35ABF4F2C91848D90E001968F731E
:100230009927848FA689B7892C93A089B1898C913D
:10024000837080648C93938D848D981306C002888C
:10025000F389E02D80818F7D80830895EF92FF9256
:100260000F931F93CF93DF93EC0181E0888F9B8DD9
:100270008C8D98131AC0E889F989808185FF15C093
:100280009FB7F894EE89FF896083E889F9898081B6
:100290008370806480839FBF81E090E0DF91CF9185
:1002A0001F910F91FF90EF900895F62E0B8D10E0A7
:1002B0000F5F1F4F0F731127E02E8C8D8E110CC016
:1002C0000FB607FCFACFE889F989808185FFF5CF61
:1002D000CE010E940C01F1CFEB8DEC0FFD2FF11D33
:1002E000E35AFF4FF0829FB7F8940B8FEA89FB899E
:1002F00080818062CFCFCF93DF93EC01888D8823FC
:10030000B9F0AA89BB89E889F9898C9185FD03C078
:10031000808186FD0DC00FB607FCF7CF8C9185FF5D
:10032000F2CF808185FFEDCFCE010E940C01E9CF95
:10033000DF91CF910895833081F028F4813099F0D6
:100340008230A9F008958730A9F08830C9F0843050
:10035000B1F4809180008F7D03C0809180008F7701
:1003600080938000089584B58F7784BD089584B507
:100370008F7DFBCF8091B0008F778093B000089580
:100380008091B0008F7DF9CFCF93DF93282F30E09D
:10039000F901E255FF4F8491F901E656FF4FD491E0
:1003A000F901EA57FF4FC491CC23A1F081110E94BB
:1003B0009B01EC2FF0E0EE0FFF1FE458FF4FA591DB
:1003C000B491EC91ED2381E090E009F480E0DF91BD
:1003D000CF91089580E090E0FACF1F93CF93DF9301
:1003E000282F30E0F901E255FF4F8491F901E656DC
:1003F000FF4FD491F901EA57FF4FC491CC23A9F0E4
:10040000162F81110E949B01EC2FF0E0EE0FFF1FD1
:10041000EE58FF4FA591B4918FB7F894EC9111115C
:1004200008C0D095DE23DC938FBFDF91CF911F9161
:100430000895DE2BF8CFCF93DF9390E0FC01E656D2
:10044000FF4F24918A579F4FFC0184918823D1F05C
:1004500090E0880F991FFC01E859FF4FA591B491D6
:10046000FC01EE58FF4FC591D49161110EC09FB7AA
:10047000F8948C91E22FE0958E238C932881E223CF
:10048000E8839FBFDF91CF9108958FB7F894EC91E7
:10049000E22BEC938FBFF6CF3FB7F89480913302F5
:1004A00090913402A0913502B091360226B5A89BF6
:1004B00005C02F3F19F00196A11DB11D3FBFBA2FF6
:1004C000A92F982F8827BC01CD01620F711D811DB6
:1004D000911D42E0660F771F881F991F4A95D1F73B
:1004E00008958F929F92AF92BF92CF92DF92EF9238
:1004F000FF924B015C010E944C026B017C010E9447
:100500004C026C197D098E099F09683E7340810574
:100510009105A8F321E0821A9108A108B10888EE9C
:10052000C80E83E0D81EE11CF11C81149104A104C3
:10053000B10429F7FF90EF90DF90CF90BF90AF907C
:100540009F908F90089508952091BD01260F332725
:10055000331F21323105ECF420910602FC0190E0BA
:1005600080E0243069F082E00895A091BD012191DE
:10057000AC0143565E4FA40FB52FB11D2C930196CD
:10058000861798F38091BD01680F6093BD0180E0EC
:10059000089581E008951092060281E0809305029B
:1005A0001092E00161E082E10E94ED0161E083E1EF
:1005B0000E94ED01E9EBF0E080818E7F80838081F5
:1005C0008D7F808388E48093B80085E48093BC00AD
:1005D0000895CF93DF9391E090939C018823B9F025
:1005E000C091B800D091BA008091BC008A7B809302
:1005F000BC0060E082E10E94ED0160E083E10E94C6
:10060000ED010E94CB02D093BA00C093B800DF91F5
:10061000CF9108950895E0913E0280913D02E81740
:1006200030F4F0E0E458FE4F808190E008958FEFC1
:100630009FEF089590913E0280913D022FEF3FEF92
:10064000981748F4E92FF0E0E458FE4F208130E09D
:100650009F5F90933E02C901089580913D02909161
:100660003E02891B990B0895CF92DF92EF92FF9281
:100670000F931F93CF93DF937C01CB018A012091CD
:100680000C02222389F0EB016B01C40ED51ECC15A0
:10069000DD0569F06991D701ED91FC910190F08140
:1006A000E02DC7010995F3CF642F0E94A402C80171
:1006B000DF91CF911F910F91FF90EF90DF90CF903E
:1006C0000895CF93DF931F92CDB7DEB76983209152
:1006D0000C022223F9F020913B02203258F021E055
:1006E00030E0FC013383228390E080E00F90DF91C3
:1006F000CF91089580913C02E82FF0E0E35FFD4F39
:10070000998190838F5F80933C0280933B0281E0CC
:1007100090E0ECCF61E0CE0101960E94A402F7CFF9
:10072000CF92DF92EF92FF920F931F93CF93DF93BD
:10073000FC01C48121E020930C02C0932D02109291
:100740003C0210923B028385682B8EED92E00E9462
:100750006103D0913B02D13208F092C00E944C025A
:100760006B017C0180910602811165C082E080935B
:10077000060281E0809305028FEF809304021092BD
:100780000302D0930202ADE0B2E0E2EEF1E080E0DD
:10079000D81385C01092E1018091E101CC0FC82BE4
:1007A000C093E1018091E001813009F07CC010929A
:1007B000E0010E944C026B017C018091E101809379
:1007C000BB008091080290910902A0910A02B091A9
:1007D0000B02892B8A2B8B2B99F00E944C020091E3
:1007E00008021091090220910A0230910B026C1943
:1007F0007D098E099F090617170728073907E0F1B9
:100800008091BC0083FDD9CF85EC8093BC000E9411
:100810004C026B017C0180910602823009F445C0D4
:10082000809104028F3F61F180910402803241F196
:100830008091040225C08091080290910902A09144
:100840000A02B0910B02892B8A2B8B2B09F48ACFD9
:100850000E944C02009108021091090220910A02A4
:1008600030910B026C197D098E099F090617170735
:100870002807390708F076CF809107020E94E90225
:1008800010923C0210923B0210920C02DF91CF9129
:100890001F910F91FF90EF90DF90CF9008959D9161
:1008A00091938F5F75CF85EEB0CF809108029091C4
:1008B0000902A0910A02B0910B02892B8A2B8B2B83
:1008C00009F4A9CF0E944C0200910802109109027C
:1008D00020910A0230910B026C197D098E099F0943
:1008E000061717072807390708F095CFC5CF90E0FE
:1008F00080E008958F929F92AF92BF920F931F93C3
:10090000CF93DF93CDB7DEB7A1970FB6F894DEBFD4
:100910000FBECDBF19A2423008F44AE08E010F5D30
:100920001F4F842E912CB12CA12CA50194010E9463
:100930005E09E62FB901CA01EA3044F5E05DD8014D
:10094000EE938D01232B242B252B79F790E080E06B
:10095000109769F0FD0101900020E9F73197AF0190
:100960004A1B5B0BBD018AEE92E00E948E00A196AD
:100970000FB6F894DEBF0FBECDBFDF91CF911F91B0
:100980000F91BF90AF909F908F900895E95CD7CF63
:10099000FC0101900020E9F73197AF01481B590B8A
:1009A000BC018AEE92E00C948E000F931F93CF93BC
:1009B0008C01C62F0E9490036C2F6460C8010E94B6
:1009C00090036C2F6B7FC8010E94900383EC90E032
:1009D0000197F1F7CF911F910F9108950F931F93F6
:1009E000CF93DF938C01D62FC42F607F642B0E949E
:1009F000D50480E1D89FB00111246C2BC801DF9190
:100A0000CF911F910F910C94D504CF93DF93CDB765
:100A1000DEB728970FB6F894DEBF0FBECDBF98E0C3
:100A2000E0E0F1E0DE01119601900D929A95E1F778
:100A30009091F202981710F48FEF890F90E0880FD1
:100A4000991F21E030E02C0F3D1F820F931FFC0106
:100A50006081606840E08AEE92E028960FB6F894D4
:100A6000DEBF0FBECDBFDF91CF910C94EE0441E00D
:100A70000E94EE0481E090E00895CF92DF92EF9221
:100A8000FF926C01990FEE08FF08F7FE16C041E0D7
:100A90006DE28AEE92E00E94EE0466277727CB0192
:100AA0006C197D098E099F094AE00E947A0401961B
:100AB000FF90EF90DF90CF9008954AE0C701B60114
:100AC000FF90EF90DF90CF900C947A0480E00E942A
:100AD000050588E391E00E94C80481E00E940505B5
:100AE0008AE491E00E94C80482E00E94050589E53D
:100AF00091E00E94C80480913F02909140020E94C0
:100B00003D0583E00E94050586E691E00C94C8044B
:100B1000CF93DF93823028F09091EF02986090930A
:100B2000EF028093F20262E370E080E090E00E94C6
:100B300071026091F5028AEE92E00E94900368EEE5
:100B400073E080E090E00E94710260E38AEE92E040
:100B50000E94D504CBE4D6E4CE010197F1F760E31F
:100B60008AEE92E00E94D5042197F1F760E38AEEC5
:100B700092E00E94D50483E592E00197F1F760E2EC
:100B80008AEE92E00E94D5046091EF02606240E03C
:100B90008AEE92E00E94EE0484E08093F00240E04E
:100BA0006CE08AEE92E00E94EE0440E061E08AEEA2
:100BB00092E00E94EE04CBE3DFE1CE010197F1F772
:100BC00082E08093F10240E066E08AEE92E00E94CB
:100BD000EE0440E062E08AEE92E00E94EE0421978B
:100BE000F1F7DF91CF91089585ED8093BC0080915E
:100BF000080290910902A0910A02B0910B02079697
:100C0000A11DB11D23E0B695A795979587952A95C7
:100C1000D1F72091BC0024FD03C010920602089574
:100C2000409108025091090260910A0270910B02F2
:100C3000452B462B472B69F30097A105B10541F0E1
:100C400025E32A95F1F700000197A109B109E1CF49
:100C5000809107020C94E9021F920F920FB60F9237
:100C600011242F933F934F935F936F937F938F93B1
:100C70009F93AF93BF93EF93FF9381E492E00E9421
:100C80000C01FF91EF91BF91AF919F918F917F9157
:100C90006F915F914F913F912F910F900FBE0F90E9
:100CA0001F9018951F920F920FB60F9211242F9339
:100CB0008F939F93EF93FF93E0915102F091520233
:100CC0008081E0915702F091580282FD1BC0908113
:100CD00080915A028F5F8F7320915B02821741F0DF
:100CE000E0915A02F0E0EF5BFD4F958F80935A023E
:100CF000FF91EF919F918F912F910F900FBE0F90C9
:100D00001F9018958081F4CF1F920F920FB60F920B
:100D100011242F933F938F939F93AF93BF93809111
:100D20002F0290913002A0913102B09132023091A5
:100D30002E0223E0230F2D3758F50196A11DB11D7A
:100D400020932E0280932F0290933002A0933102C1
:100D5000B09332028091330290913402A091350217
:100D6000B09136020196A11DB11D8093330290937C
:100D70003402A0933502B0933602BF91AF919F9198
:100D80008F913F912F910F900FBE0F901F9018954C
:100D900026E8230F0296A11DB11DD2CF1F920F92FC
:100DA0000FB60F9211242F933F934F935F936F933E
:100DB0007F938F939F93AF93BF93EF93FF93809114
:100DC000B900887F803609F44AC0F0F5883209F40A
:100DD000A7C018F5803109F49BC0B8F4882309F442
:100DE000F9C0883009F494C0FF91EF91BF91AF91A1
:100DF0009F918F917F916F915F914F913F912F9133
:100E00000F900FBE0F901F901895883109F488C07D
:100E1000803251F78093040214C0803409F49DC0DD
:100E200040F48033B9F38833F9F68093040285ECFB
:100E3000B0C0803509F485C0883509F496C088347F
:100E400099F60E94F405D0CF883909F48CC038F5A2
:100E5000883729F050F4883611F0803729F683E07E
:100E6000809306021092DF0157C0883809F47BC0D6
:100E7000803919F0803809F0B7CF8091DF018032D6
:100E800008F071C0E091DF0181E08E0F8093DF01F7
:100E90008091BB00F0E0E154FE4F80833DC0803B79
:100EA00039F0E0F4803A09F479C0883A09F09CCF2F
:100EB00084E0809306021092BE011092BD01E09181
:100EC0003902F0913A0209958091BD0181110FC05C
:100ED00081E08093BD0110929D0109C0803C09F41E
:100EE000A6CF883C09F4A3CF883B09F07DCFE091E1
:100EF000BE0181E08E0F8093BE01F0E0E356FE4F0D
:100F000080818093BB009091BE018091BD0129C07A
:100F10008091E1018093BB0085EC8093BC0064CF9D
:100F20009091030280910202981758F5E091030214
:100F300081E08E0F80930302F0E0EE51FE4F80813E
:100F4000E9CFE091030281E08E0F8093030280914C
:100F5000BB00F0E0EE51FE4F808390910302809140
:100F600002029817C8F285E8D8CFE091030281E029
:100F70008E0F809303028091BB00F0E0EE51FE4F94
:100F800080838091050281115CCF81E08093E00134
:100F900084EA8093BC001092060226CF85EC8093F1
:100FA000BC00109206028091DF01803230F4E091A3
:100FB000DF01F0E0E154FE4F10826091DF0170E04C
:100FC000E0913702F09138028FEB91E00995109291
:100FD000DF010ACF1092040234CFE1E4F2E0138281
:100FE000128288EE93E0A0E0B0E084839583A6832C
:100FF000B7832CE031E03183208325EC30E0358766
:10100000248724EC30E03787268720EC30E0318BD2
:10101000208B21EC30E0338B228B22EC30E0358BBF
:10102000248B26EC30E0378B268B118E128E138E9C
:10103000148EEEEDF2E01382128284839583A683F0
:10104000B7838EE191E091838083EAEEF2E0138230
:10105000128280E391E09183808387E2848384E13C
:10106000818784E0828713860895789484B58260AE
:1010700084BD84B5816084BD85B5826085BD85B53C
:10108000816085BD80916E00816080936E001092BA
:101090008100809181008260809381008091810035
:1010A00081608093810080918000816080938000C6
:1010B0008091B10084608093B1008091B000816024
:1010C0008093B00080917A00846080937A00809150
:1010D0007A00826080937A0080917A0081608093A8
:1010E0007A0080917A00806880937A001092C10023
:1010F00061E08DE00E941B0284E00E94880510924E
:101100003E0210923D0210923C0210923B020E945D
:10111000CB028CE890E090933A02809339028DE8FC
:1011200090E090933802809337021092EF02809102
:10113000F4020E94880588E08093F50260E08AEE60
:1011400092E00E94900380E00E94050588E391E010
:101150000E94C80481E00E9405058AE491E00E9493
:10116000C80482E00E94050589E591E00E94C80458
:1011700080913F02909140020E943D0583E00E94D1
:10118000050586E691E00E94C80460E08AE00E94BE
:101190001B0260E089E00E941B0261E08AE00E947D
:1011A000ED0161E089E00E94ED01E0915102F091D2
:1011B000520282E08083E0914D02F0914E02108253
:1011C000E0914F02F09150028FEC8083109259020F
:1011D000E0915502F091560286E08083E09153023F
:1011E000F0915402808180618083E0915302F091FC
:1011F0005402808188608083E0915302F091540210
:10120000808180688083E0915302F0915402808154
:101210008F7D8083C0E0D0E089E00E94C401892BEB
:10122000D9F461E08DE00E94ED0189E00E94C401E3
:10123000892BD9F380913F0290914002181619062C
:101240003CF401979093400280933F020E94660510
:1012500060E08DE00E94ED018AE00E94C401892BCC
:10126000E1F461E08DE00E94ED018AE00E94C4019A
:10127000892BD9F380913F0290914002803127E27F
:1012800092073CF401969093400280933F020E94A3
:10129000660560E08DE00E94ED0162E370E080E0B1
:1012A00090E00E947102209709F4B6CF0E94F800E6
:1012B000882309F4B1CF0E940000AECFA1E21A2E1C
:1012C000AA1BBB1BFD010DC0AA1FBB1FEE1FFF1FEA
:1012D000A217B307E407F50720F0A21BB30BE40B3A
:1012E000F50B661F771F881F991F1A9469F7609581
:1012F0007095809590959B01AC01BD01CF0108953B
:10130000EE0FFF1F0590F491E02D0994F894FFCFA4
:101310000000400014005400000000002E018E0068
:10132000BB007B01EC00CA00DE000000000061038E
:10133000340377040A032D031A030B030000000093
:1013400037058E007704A3022020203D3D50524FE8
:10135000594543544F20333D3D002020202020207C
:10136000436F6E7461646F72002020202020546FE0
:1013700074616C3A200070726573696F6E61206CE5
:0C1380006F7320626F746F6E6573000065
:00000001FF
