:020000040000FA
:100000000C9463000C9479050C9452050C948B00AD
:100010000C948B000C948B000C948B000C948B0034
:100020000C948B000C948B000C948B000C94BB06EE
:100030000C948B000C948B000C948B000C948B0014
:100040000C9408050C948B000C94D6040C94B0040A
:100050000C948B000C948B000C948B000C948B00F4
:100060000C94A0050C948B000000000023002600D7
:10007000290000000000240027002A0000000000E2
:10008000250028002B0004040404040404040202D4
:100090000202020203030303030301020408102007
:1000A0004080010204081020010204081020000012
:1000B0000008000201000003040700000000000027
:1000C00000007707680A11241FBECFEFD8E0DEBF1B
:1000D000CDBF11E0A0E0B1E0E2E1FDE102C005909A
:1000E0000D92A032B107D9F722E0A0E2B1E001C041
:1000F0001D92A937B207E1F710E0C2E6D0E004C0D4
:100100002197FE010E94840CC136D107C9F70E94D5
:1001100005080C947C0E0C940000CF92DF92EF92B5
:10012000FF92DC01A03282E0B807D4F5A53BB1050F
:1001300014F0A4EBB0E04091730228E830E0241BF7
:10014000310947FD3395220F331F220F331F6901F9
:10015000330FEE08FF084091740228E532E0241BBB
:10016000310947FD3395220F331F220F331F032E12
:10017000000C440B550B2C193D094E095F09B7FFC4
:1001800002C0B0E0A0E00E94D20B24EB30E040E0DF
:1001900050E00E94A80BC20ED31EE41EF51ED6012D
:1001A000E0917202EC3080F52091730288E890E0D3
:1001B000821B910927FD9395880F991F880F991F1E
:1001C000A817B90784F02091740288E592E0821B99
:1001D000910927FD9395880F991F880F991FA817DC
:1001E000B9070CF4CD010297880F991F4FB7F89407
:1001F0002E2F30E0F901EE0FFF1FE20FF31FE95B36
:10020000FD4F928381834FBFFF90EF90DF90CF909F
:100210000895AF92BF92CF92DF92EF92FF920F9329
:100220001F93CF93DF936C017B018B01040F151F8C
:10023000EB015E01AE18BF08C017D10759F06991F4
:10024000D601ED91FC910190F081E02DC601099558
:10025000892B79F7C501DF91CF911F910F91FF9005
:10026000EF90DF90CF90BF90AF900895FC01538D39
:10027000448D252F30E0842F90E0821B930B541780
:1002800010F0CF96089501970895FC01918D828D0D
:10029000981761F0A28DAE0FBF2FB11D5D968C91A6
:1002A000928D9F5F9F73928F90E008958FEF9FEFE5
:1002B0000895FC01918D828D981731F0828DE80FA1
:1002C000F11D858D90E008958FEF9FEF0895FC015B
:1002D000918D228D892F90E0805C9F4F821B910928
:1002E0008F73992708958AEA91E00E94670121E0BF
:1002F000892B09F420E0822F0895FC01A48DA80F1A
:10030000B92FB11DA35ABF4F2C91848D90E0019657
:100310008F739927848FA689B7892C93A089B18977
:100320008C91837080648C93938D848D981306C018
:100330000288F389E02D80818F7D80830895EF927C
:10034000FF920F931F93CF93DF93EC0181E0888F8F
:100350009B8D8C8D98131AC0E889F989808185FF5F
:1003600015C09FB7F894EE89FF896083E889F98901
:1003700080818370806480839FBF81E090E0DF9103
:10038000CF911F910F91FF90EF900895F62E0B8D56
:1003900010E00F5F1F4F0F731127E02E8C8D8E1111
:1003A0000CC00FB607FCFACFE889F989808185FF78
:1003B000F5CFCE010E947D01F1CFEB8DEC0FFD2F2B
:1003C000F11DE35AFF4FF0829FB7F8940B8FEA8933
:1003D000FB8980818062CFCFCF93DF93EC01888D42
:1003E0008823B9F0AA89BB89E889F9898C9185FDB0
:1003F00003C0808186FD0DC00FB607FCF7CF8C913E
:1004000085FFF2CF808185FFEDCFCE010E947D0177
:10041000E9CFDF91CF910895833081F028F48130C6
:1004200099F08230A9F008958730A9F08830C9F09A
:100430008430B1F4809180008F7D03C08091800072
:100440008F7780938000089584B58F7784BD089559
:1004500084B58F7DFBCF8091B0008F778093B00003
:1004600008958091B0008F7DF9CF1F93CF93DF93D4
:10047000282F30E0F901E255FF4F8491F901E6564B
:10048000FF4FD491F901EA57FF4FC491CC23A9F053
:10049000162F81110E940C02EC2FF0E0EE0FFF1FCF
:1004A000E458FF4FA591B4918FB7F894EC911111D6
:1004B00008C0D095DE23DC938FBFDF91CF911F91D1
:1004C0000895DE2BF8CFCF93DF9390E0FC01E65642
:1004D000FF4F24918A579F4FFC0184918823D1F0CC
:1004E00090E0880F991FFC01EE58FF4FA591B49141
:1004F000FC01E458FF4FC591D49161110EC09FB724
:10050000F8948C91E22FE0958E238C932881E2233E
:10051000E8839FBFDF91CF9108958FB7F894EC9156
:10052000E22BEC938FBFF6CF3FB7F89480919B01FD
:1005300090919C01A0919D01B0919E0126B5A89B30
:1005400005C02F3F19F00196A11DB11D3FBFBA2F65
:10055000A92F982F8827BC01CD01620F711D811D25
:10056000911D42E0660F771F881F991F4A95D1F7AA
:1005700008958F929F92AF92BF92CF92DF92EF92A7
:10058000FF920E9494024B015C0185E0C82ED12CA1
:10059000E12CF12C0E949402681979098A099B09BF
:1005A000683E734081059105A8F321E0C21AD10885
:1005B000E108F10888EE880E83E0981EA11CB11CAA
:1005C000C114D104E104F10429F7FF90EF90DF900A
:1005D000CF90BF90AF909F908F90089508952091F5
:1005E0004C01260F3327331F21323105ECF42091C3
:1005F0007001FC0190E080E0243069F082E0089511
:10060000A0914C012191AC01445D5E4FA40FB52F28
:10061000B11D2C930196861798F380914C01680FB9
:1006200060934C0180E0089581E0089508958FEF74
:100630009FEF08958FEF9FEF08958091250190E03F
:100640009195819591090895CF93DF93CB01EA01AC
:10065000642F0E94EF02CE01DF91CF910895CF93D6
:10066000DF931F92CDB7DEB7698361E0CE010196BB
:100670000E94EF0281E090E00F90DF91CF9108950A
:1006800090E080E00895CF92DF92EF92FF92CF93B7
:10069000DF938FB7F894C0909701D0909801E090C5
:1006A0009901F0909A018FBF8091200190912101D2
:1006B000A0912201B0912301A7019601281B390BBB
:1006C0004A0B5B0BDA01C9010697A105B10508F4D5
:1006D00046C0E2EBF0E08491EEE9F0E0D491EAE884
:1006E000F0E0C491CC2309F441C081110E940C02B6
:1006F000EC2FF0E0EE0FFF1FE859FF4FA591B491EA
:10070000EC91DE2399F18091A5019091A6010197CA
:100710009093A6018093A5018091A5019091A601D7
:1007200097FD07C08091A5019091A601853B910599
:100730001CF58091A5019091A60197FD20C08091A4
:10074000A5019091A6019093A6018093A501C09266
:100750002001D0922101E0922201F0922301DF9149
:10076000CF91FF90EF90DF90CF9008958091A501F9
:100770009091A6010196CCCF84EB90E0E4CF90E07D
:1007800080E0E1CFCF93DF93EC0180916C029091F8
:100790006D02009759F020916E0230916F022C1774
:1007A0003D0720F081E0DF91CF910895BE016F5F9A
:1007B0007F4F0E94AF0D009789F090936D02809358
:1007C0006C02D0936F02C0936E0220917002309140
:1007D0007102232B39F7FC011082E4CF80E0E3CFD4
:1007E000EF92FF920F931F93CF93DF9300D0CDB77B
:1007F000DEB7EE24E3948AEA91E00E946701892B38
:1008000059F18AEA91E00E944501F82E89831A8203
:1008100000917002109171020F5F1F4FC8010E947A
:10082000C203882399F020916C0230916D0280916F
:10083000700290917102BE016F5F7F4F820F931F14
:100840000E94750E10937102009370028AE0F812F4
:10085000D2CFE092A901CFCF0F900F90DF91CF912F
:100860001F910F91FF90EF9008950E9473018111E5
:100870000C94F00308951F93CF93DF9385ED80933D
:10088000BC008091280190912901A0912A01B0918A
:100890002B010796A11DB11D23E0B695A79597954D
:1008A00087952A95D1F72091BC0024FD03C01092B2
:1008B000700152C0409128015091290160912A0194
:1008C00070912B01452B462B472B69F30097A1050F
:1008D000B10541F025E32A95F1F700000197A10940
:1008E000B109E1CF80912701C1E0C093260188239F
:1008F00099F1D091B8001091BA008091BC008A7B28
:100900008093BC0060E082E10E94350260E083E1F8
:100910000E94350210927001C09372011092710111
:1009200061E082E10E94350261E083E10E943502CC
:100930008091B9008E7F8093B9008091B9008D7F3E
:100940008093B90088E48093B80085E48093BC006C
:100950001093BA00D093B800DF91CF911F91089502
:100960001F920F920FB60F9211242F933F934F9324
:100970005F936F937F938F939F93AF93BF93EF9307
:10098000FF938AEA91E00E947D01FF91EF91BF9170
:10099000AF919F918F917F916F915F914F913F9117
:1009A0002F910F900FBE0F901F9018951F920F92CE
:1009B0000FB60F9211242F938F939F93EF93FF9372
:1009C000E091BA01F091BB018081E091C001F0910A
:1009D000C10182FD1BC090818091C3018F5F8F7325
:1009E0002091C401821741F0E091C301F0E0E65587
:1009F000FE4F958F8093C301FF91EF919F918F914F
:100A00002F910F900FBE0F901F9018958081F4CFFB
:100A10001F920F920FB60F9211242F933F938F9333
:100A20009F93AF93BF938091970190919801A0916C
:100A30009901B0919A013091960123E0230F2D374F
:100A400058F50196A11DB11D209396018093970141
:100A500090939801A0939901B0939A0180919B0182
:100A600090919C01A0919D01B0919E010196A11DC4
:100A7000B11D80939B0190939C01A0939D01B09325
:100A80009E01BF91AF919F918F913F912F910F90B8
:100A90000FBE0F901F90189526E8230F0296A11DF8
:100AA000B11DD2CF1F920F920FB60F9211242F9328
:100AB0003F934F935F936F937F938F939F93AF93E6
:100AC000BF93EF93FF93E0910201F0910301099529
:100AD000FF91EF91BF91AF919F918F917F916F9116
:100AE0005F914F913F912F910F900FBE0F901F90EC
:100AF00018951F920F920FB60F9211242F933F93C8
:100B00004F935F936F937F938F939F93AF93BF9315
:100B1000EF93FF93E0910001F09101010995FF919E
:100B2000EF91BF91AF919F918F917F916F915F9165
:100B30004F913F912F910F900FBE0F901F901895DE
:100B40001F920F920FB60F9211242F933F934F9342
:100B50005F936F937F938F939F93AF93BF93EF9325
:100B6000FF938091B900887F803609F44AC0F0F580
:100B7000883209F4A5C018F5803109F499C0B8F499
:100B8000882309F4F5C0883009F492C0FF91EF91F1
:100B9000BF91AF919F918F917F916F915F914F9195
:100BA0003F912F910F900FBE0F901F901895883195
:100BB00009F486C0803251F780936F0114C08034ED
:100BC00009F49BC040F48033B9F38833F9F680937D
:100BD0006F0185ECAEC0803509F483C0883509F417
:100BE00094C0883499F60E943B04D0CF883909F428
:100BF0008AC038F5883729F050F4883611F08037EC
:100C000029F683E08093700110926E0155C08838F8
:100C100009F479C0803919F0803809F0B7CF809194
:100C20006E01803208F06FC0E0916E0181E08E0F9E
:100C300080936E018091BB00F0E0E25BFE4F808309
:100C40003BC0803B39F0D0F4803A09F477C0883A51
:100C500009F09CCF84E08093700110924D011092B6
:100C60004C01F0E0E0E0099580914C0181110FC04A
:100C700081E080934C0110922C0109C0803C09F462
:100C8000A8CF883C09F4A5CF883B09F07FCFE0913D
:100C90004D0181E08E0F80934D01F0E0E45DFE4F49
:100CA00080818093BB0090914D0180914C0129C0BF
:100CB000809195018093BB0085EC8093BC0066CF4A
:100CC0009091940180919301981758F5E0919401C7
:100CD00081E08E0F80939401F0E0ED58FE4F80810B
:100CE000E9CFE091940181E08E0F8093940180918F
:100CF000BB00F0E0ED58FE4F80839091940180910D
:100D000093019817C8F285E8D8CFE091940181E06B
:100D10008E0F809394018091BB00F0E0ED58FE4F60
:100D200080838091720181115ECF81E08093710197
:100D300084EA8093BC001092700128CF85EC8093E8
:100D4000BC001092700180916E01803230F4E0910D
:100D50006E01F0E0E25BFE4F108260916E0170E088
:100D60008EE491E0F0E0E0E0099510926E010ECF84
:100D700010926F0138CF1F920F920FB60F9211246D
:100D80002F933F934F935F936F937F938F939F9393
:100D9000AF93BF93CF93DF93EF93FF9380912401A1
:100DA000C0916B02D0E087FF24C0109285001092A2
:100DB0008400809124018F5F80932401809124011D
:100DC000082E000C990B8C179D0724F480912401A8
:100DD0008C30C4F180918400909185000496803419
:100DE0009C4908F47AC08091840090918500049613
:100DF00076C080912401082E000C990B8C179D075A
:100E0000C4F6E09124018E2FEE0F990BFC01EE0F3A
:100E1000FF1FE80FF91FE95BFD4F808186FFC9CFF7
:100E2000E09124018E2FEE0F990BFC01EE0FFF1FB6
:100E3000E80FF91FE95BFD4F808160E08F730E942E
:100E40003502B7CF2091840030918500E0912401D4
:100E50008E2FEE0F990BFC01EE0FFF1FE80FF91F0D
:100E6000E95BFD4F81819281820F931F90938900EE
:100E700080938800E09124018E2FEE0F990BFC01E6
:100E8000EE0FFF1FE80FF91FE95BFD4F808186FF22
:100E900011C0E09124018E2FEE0F990BFC01EE0F93
:100EA000FF1FE80FF91FE95BFD4F808161E08F7341
:100EB0000E943502FF91EF91DF91CF91BF91AF91E9
:100EC0009F918F917F916F915F914F913F912F9162
:100ED0000F900FBE0F901F90189580E49CE990939F
:100EE0008900809388008FEF80932401E3CF1092D4
:100EF000AD011092AC0188EE93E0A0E0B0E08093E9
:100F0000AE019093AF01A093B001B093B10181E124
:100F100091E09093AB018093AA0185EC90E09093CF
:100F2000B7018093B60184EC90E09093B90180936F
:100F3000B80180EC90E09093BB018093BA0181EC02
:100F400090E09093BD018093BC0182EC90E090937F
:100F5000BF018093BE0186EC90E09093C101809325
:100F6000C0011092C3011092C4011092C5011092E9
:100F7000C60180916B028C30D8F591E0980F909368
:100F80006B028093720290E0FC01EE0FFF1FE80FEE
:100F9000F91FE95BFD4F88EB9BE092838183109200
:100FA0006D0210926C0210926F0210926E021092FB
:100FB00071021092700290E080E00E94C2032091C2
:100FC0006C0230916D02811117C02115310519F0A5
:100FD000C9010E94260D10926D0210926C021092AF
:100FE00071021092700210926F0210926E020895B8
:100FF0008FEF80937202D3CF109271021092700221
:101000006FE171E0C9010C94750E789484B582602B
:1010100084BD84B5816084BD85B5826085BD85B59C
:10102000816085BD80916E00816080936E0010921A
:101030008100809181008260809381008091810095
:101040008160809381008091800081608093800026
:101050008091B10084608093B1008091B000816084
:101060008093B00080917A00846080937A008091B0
:101070007A00826080937A0080917A008160809308
:101080007A0080917A00806880937A001092C10083
:1010900083E493E0909301018093000180916900C3
:1010A0008C7F80936900E89AE091BA01F091BB01CE
:1010B00082E08083E091B601F091B7011082E09167
:1010C000B801F091B9018FEC80831092C201E091D8
:1010D000BE01F091BF0186E08083E091BC01F091F8
:1010E000BD01808180618083E091BC01F091BD01F0
:1010F000808188608083E091BC01F091BD01808196
:1011000080688083E091BC01F091BD0180818F7D7A
:10111000808361E08BE00E94630261E08AE00E94CC
:10112000630261E089E00E94630261E088E00E945E
:10113000630260E082E00E94630260E084E00E945B
:10114000630260E083E00E94630260E085E00E9449
:10115000630284E190E00E94C203809172028C30AD
:1011600008F051C061E086E00E9463028091720243
:10117000282F30E0F901EE0FFF1FE20FF31FE95BAC
:10118000FD4F9081907C9660908310927302109234
:1011900074022CE0622F0E94780C829FB00111240F
:1011A00030E020E0AB01420F531FFA01EE0FFF1FAA
:1011B000E40FF51FE95BFD4F908196FD16C02F5F90
:1011C0003F4F2C30310571F781110FC01092800014
:1011D00082E0809381001092850010928400B19A81
:1011E00080916F00826080936F00E09172028E2F79
:1011F00090E0FC01EE0FFF1FE80FF91FE95BFD4FC8
:1012000080818064808390E080E00E948D008091E6
:10121000A901882309F465C080916C0290916D0248
:10122000009791F10E94710AEB017093A8016093FD
:10123000A701653B710520F47093A6016093A50199
:10124000C93CD1052CF10E94B902BE01685C71094C
:10125000072E000C880B990B0E94AF0A21E63BE099
:1012600046EB5FE30E94EA0A0E94420C7093A401DD
:101270006093A30161E0C13CD10521F0C23CD105DE
:1012800091F460E085E00DC060E070E0CB01CCCF70
:1012900061E0CE3BD10521F0CF3BD10559F760E0AD
:1012A00083E00E9435021092A90190E080E00E9444
:1012B000C20320916C0230916D02811193C02115FF
:1012C000310519F0C9010E94260D10926D0210928D
:1012D0006C02109271021092700210926F021092C2
:1012E0006E022091A5013091A6018091A1019091FB
:1012F000A20128173907E1F08091A5019091A6017C
:10130000809304018091A5019091A6019093A20180
:101310008093A1018091A5019091A6010E948D006A
:1013200043E050E064E071E08AEA91E00E94090144
:101330000091A3011091A401C0919F01D091A0013F
:10134000C017D1070CF058C061E08BE00E94350255
:1013500061E08AE00E94350260E089E00E94350287
:1013600060E088E00E9435020E94B90260E08BE0F4
:101370000E94350261E08AE00E94350261E089E066
:101380000E94350260E088E00E9435020E94B902A6
:1013900060E08BE00E94350260E08AE00E94350246
:1013A00061E089E00E94350261E088E00E94350238
:1013B0000E94B90261E08BE00E94350260E08AE0A1
:1013C0000E94350260E089E00E94350261E088E019
:1013D0000E9435020E94B9022196D093A001C093C9
:1013E0009F01A6CF10927102109270026FE171E01E
:1013F000C9010E94750E75CFC0919F01D091A001C7
:1014000060E08BE00C171D070CF04CC00E94350209
:1014100060E08AE00E94350261E089E00E943502C6
:1014200061E088E00E9435020E94B90260E08BE032
:101430000E94350261E08AE00E94350261E089E0A5
:101440000E94350260E088E00E9435020E94B902E5
:1014500061E08BE00E94350261E08AE00E94350283
:1014600060E089E00E94350260E088E00E94350279
:101470000E94B90261E08BE00E94350260E08AE0E0
:101480000E94350260E089E00E94350261E088E058
:101490000E9435020E94B9022197D093A001C09307
:1014A0009F01AACF0E94350260E08AE00E943502C7
:1014B00060E089E00E94350260E088E00E94350229
:1014C0000E947301882309F4A2CE0E94F0039FCEEC
:1014D00080916C0290916D02009711F00C94260D92
:1014E00008951F93FC0199278827BC01E894119166
:1014F0001032E9F3193010F01E30C8F31B3251F0EE
:101500001D3249F4689406C00E94980A610F711D4B
:10151000811D911D119110531A30B0F33EF4909536
:101520008095709561957F4F8F4F9F4F1F910895C4
:10153000592F482F372F262F660F771F881F991F87
:10154000660F771F881F991F620F731F841F951FD7
:10155000660F771F881F991F0895E89409C097FBAD
:101560003EF490958095709561957F4F8F4F9F4F7A
:101570009923A9F0F92F96E9BB279395F6958795BE
:1015800077956795B795F111F8CFFAF4BB0F11F481
:1015900060FF1BC06F5F7F4F8F4F9F4F16C0882328
:1015A00011F096E911C0772321F09EE8872F762F5E
:1015B00005C0662371F096E8862F70E060E02AF09F
:1015C0009A95660F771F881FDAF7880F969587958B
:1015D00097F908950E94FD0A0C946E0B0E94600B0F
:1015E00038F00E94670B20F0952311F00C94570BF4
:1015F0000C945D0B11240C94A20B0E947F0B70F3D2
:10160000959FC1F3950F50E0551F629FF001729FA7
:10161000BB27F00DB11D639FAA27F00DB11DAA1FB6
:10162000649F6627B00DA11D661F829F2227B00D03
:10163000A11D621F739FB00DA11D621F839FA00D8E
:10164000611D221F749F3327A00D611D231F849FDE
:10165000600D211D822F762F6A2F11249F57504035
:101660009AF0F1F088234AF0EE0FFF1FBB1F661FB0
:10167000771F881F91505040A9F79E3F510580F079
:101680000C94570B0C94A20B5F3FE4F3983ED4F3F9
:10169000869577956795B795F795E7959F5FC1F71D
:1016A000FE2B880F911D9695879597F9089597F9C8
:1016B0009F6780E870E060E008959FEF80EC0895F8
:1016C00000240A9416161706180609060895002421
:1016D0000A9412161306140605060895092E03949B
:1016E000000C11F4882352F0BB0F40F4BF2B11F40F
:1016F00060FF04C06F5F7F4F8F4F9F4F089557FD6E
:101700009058440F551F59F05F3F71F04795880F6F
:1017100097FB991F61F09F3F79F087950895121606
:1017200013061406551FF2CF4695F1DF08C01616B2
:1017300017061806991FF1CF869571056105089463
:101740000895E894BB2766277727CB0197F908957A
:10175000052E97FB1EF400940E94BF0B57FD07D087
:101760000E94110C07FC03D04EF40C94BF0B509553
:101770004095309521953F4F4F4F5F4F089590957D
:101780008095709561957F4F8F4F9F4F08950E9470
:10179000330CA59F900DB49F900DA49F800D911DBB
:1017A00011240895B7FF0C94C70B0E94C70B821B2E
:1017B000930B08952F923F924F925F926F927F9278
:1017C0008F929F92AF92BF92CF92DF92EF92FF9251
:1017D0000F931F93CF93DF93CDB7DEB7CA1BDB0BFD
:1017E0000FB6F894DEBF0FBECDBF09942A883988A2
:1017F00048885F846E847D848C849B84AA84B984A9
:10180000C884DF80EE80FD800C811B81AA81B981B4
:10181000CE0FD11D0FB6F894DEBF0FBECDBFED01C8
:101820000895A1E21A2EAA1BBB1BFD010DC0AA1F21
:10183000BB1FEE1FFF1FA217B307E407F50720F039
:10184000A21BB30BE40BF50B661F771F881F991FB4
:101850001A9469F760957095809590959B01AC01FD
:10186000BD01CF010895A29FB001B39FC001A39F06
:10187000700D811D1124911DB29F700D811D1124C9
:10188000911D08950E94490C6894B1110C94A20B0B
:1018900008950E94870B88F09F5798F0B92F9927D9
:1018A000B751B0F0E1F0660F771F881F991F1AF04B
:1018B000BA95C9F714C0B13091F00E94A10BB1E004
:1018C00008950C94A10B672F782F8827B85F39F003
:1018D000B93FCCF3869577956795B395D9F73EF4E4
:1018E00090958095709561957F4F8F4F9F4F08958C
:1018F000991B79E004C0991F961708F0961B881F62
:101900007A95C9F780950895EE0FFF1F0590F49121
:10191000E02D09940F931F93CF93DF9382309105AD
:1019200010F482E090E0E0917702F091780230E0EC
:1019300020E0B0E0A0E0309799F42115310509F4DA
:101940004AC0281B390B24303105D8F58A819B8188
:101950006115710589F1FB0193838283FE0111C03A
:10196000408151810281138148175907E0F04817DF
:10197000590799F4109761F012960C9312971396E9
:101980001C933296CF01DF91CF911F910F91089553
:101990000093770210937802F4CF2115310551F0AE
:1019A0004217530738F0A901DB019A01BD01DF019D
:1019B000F801C1CFEF01F9CF9093780280937702BD
:1019C000CDCFFE01E20FF31F819391932250310995
:1019D00039832883D7CF2091750230917602232B4B
:1019E00041F42091090130910A013093760220934D
:1019F000750220910701309108012115310541F44C
:101A00002DB73EB740910B0150910C01241B350BB3
:101A1000E0917502F0917602E217F307A0F42E1B15
:101A20003F0B2817390778F0AC014E5F5F4F241742
:101A3000350748F04E0F5F1F5093760240937502B2
:101A4000819391939FCFF0E0E0E09CCFCF93DF9321
:101A50000097E9F0FC01329713821282A09177027D
:101A6000B0917802ED0130E020E01097A1F42081E0
:101A70003181820F931F20917502309176022817D1
:101A8000390709F061C0F0937602E0937502DF91A7
:101A9000CF910895EA01CE17DF07E8F54A815B810F
:101AA0009E0141155105B1F7E901FB83EA83499194
:101AB0005991C40FD51FEC17FD0761F48081918106
:101AC0000296840F951FE90199838883828193810F
:101AD0009B838A83F0E0E0E012968D919C911397AE
:101AE0000097B9F52D913C911197CD010296820F87
:101AF000931F20917502309176022817390739F625
:101B0000309751F51092780210927702B0937602D6
:101B1000A0937502BCCFD383C28340815181840FCF
:101B2000951FC817D90761F44E5F5F4F888199816F
:101B3000480F591F518340838A819B8193838283FD
:101B40002115310509F0B0CFF0937802E0937702C8
:101B50009ECFFD01DC01C0CF13821282D7CFB0E04F
:101B6000A0E0E5EBFDE00C94DC0B8C01009751F458
:101B7000CB010E948A0C8C01C801CDB7DEB7E0E131
:101B80000C94F80BFC01E60FF71F9C012250310961
:101B9000E217F30708F49DC0D901CD91DC911197AC
:101BA000C617D70798F0C530D10530F3CE0104979A
:101BB0008617970708F3C61BD70B2297C193D193BB
:101BC0006D937C93CF010E94260DD6CF5B01AC1A9A
:101BD000BD0A4C018C0E9D1EA0917702B091780237
:101BE000512C412CF12CE12C109731F5809175028C
:101BF000909176028815990509F05CC04616570643
:101C000008F058C08091070190910801009741F4B5
:101C10008DB79EB740910B0150910C01841B950B21
:101C2000E817F90708F055C0F0937602E0937502C3
:101C3000F90171836083A0CF8D919C9111971296C9
:101C40006C90129713967C901397A815B90559F5C7
:101C50006C0142E0C40ED11CCA14DB0420F1AC01BB
:101C60004A195B09DA011296159780F06282738235
:101C700051834083D9016D937C93E114F10471F099
:101C8000D7011396FC93EE93129776CF22968C0F82
:101C90009D1FF90191838083F301EFCFF0937802C8
:101CA000E093770269CF4816590608F42C017D01AC
:101CB000D3019ACFCB010E948A0C7C01009749F096
:101CC000AE01B8010E946C0EC8010E94260D87016A
:101CD00053CF10E000E050CFFB01DC0102C00190C7
:101CE0000D9241505040D8F70895FB01DC0101905E
:101CF0000D920020E1F7089510E0C2E6D0E004C0A4
:101D0000FE010E94840C2196C336D107C9F7F894CE
:101D1000FFCFEE02EE0200FFFF000079028000001C
:101D20000000009F0109013601EC016701450159DE
:021D30000100B0
:107E0000112484B714BE81FFF0D085E080938100F7
:107E100082E08093C00088E18093C10086E0809377
:107E2000C20080E18093C4008EE0C9D0259A86E02C
:107E300020E33CEF91E0309385002093840096BBD3
:107E4000B09BFECF1D9AA8958150A9F7CC24DD24C4
:107E500088248394B5E0AB2EA1E19A2EF3E0BF2EE7
:107E6000A2D0813461F49FD0082FAFD0023811F036
:107E7000013811F484E001C083E08DD089C08234E0
:107E800011F484E103C0853419F485E0A6D080C0E4
:107E9000853579F488D0E82EFF2485D0082F10E0AE
:107EA000102F00270E291F29000F111F8ED06801E7
:107EB0006FC0863521F484E090D080E0DECF843638
:107EC00009F040C070D06FD0082F6DD080E0C81688
:107ED00080E7D80618F4F601B7BEE895C0E0D1E017
:107EE00062D089930C17E1F7F0E0CF16F0E7DF06D8
:107EF00018F0F601B7BEE89568D007B600FCFDCFD4
:107F0000A601A0E0B1E02C9130E011968C91119780
:107F100090E0982F8827822B932B1296FA010C0160
:107F200087BEE89511244E5F5F4FF1E0A038BF0790
:107F300051F7F601A7BEE89507B600FCFDCF97BE46
:107F4000E89526C08437B1F42ED02DD0F82E2BD052
:107F50003CD0F601EF2C8F010F5F1F4F84911BD097
:107F6000EA94F801C1F70894C11CD11CFA94CF0C13
:107F7000D11C0EC0853739F428D08EE10CD085E9AC
:107F80000AD08FE07ACF813511F488E018D01DD067
:107F900080E101D065CF982F8091C00085FFFCCF94
:107FA0009093C60008958091C00087FFFCCF809118
:107FB000C00084FD01C0A8958091C6000895E0E648
:107FC000F0E098E1908380830895EDDF803219F02E
:107FD00088E0F5DFFFCF84E1DECF1F93182FE3DFCA
:107FE0001150E9F7F2DF1F91089580E0E8DFEE27F6
:047FF000FF270994CA
:027FFE00040479
:00000001FF
