:020000040000FA
:100000000C945E000C9486000C9486000C94860080
:100010000C9486000C9486000C9486000C94860048
:100020000C9486000C9486000C9486000C94860038
:100030000C9486000C9486000C9486000C94860028
:100040000C94BB020C9486000C942B030C940503B7
:100050000C9486000C9486000C9486000C94860008
:100060000C9486000C9486000000000024002700F9
:100070002A0000000000250028002B0004040404CE
:100080000404040402020202020203030303030342
:10009000010204081020408001020408102001021F
:1000A00004081020000000080002010000030407FB
:1000B00000000000000000005D03CE0411241FBEFC
:1000C000CFEFD8E0DEBFCDBF21E0A2E4B1E001C0B8
:1000D0001D92AF3FB207E1F711E0A0E0B1E0EEE31F
:1000E000FEE002C005900D92A234B107D9F710E0EE
:1000F000CDE5D0E004C02197FE010E941105CC356A
:10010000D107C9F70E949B030C9412070C940000BE
:10011000E1EBF0E02491EDE9F0E09491E9E8F0E022
:10012000E491EE23C9F0222339F0233001F1A8F441
:10013000213019F1223029F1F0E0EE0FFF1FEE58C7
:10014000FF4FA591B4912FB7F894EC91811126C07F
:1001500090959E239C932FBF08952730A9F02830B7
:10016000C9F0243049F7209180002F7D03C02091F1
:1001700080002F7720938000DFCF24B52F7724BD18
:10018000DBCF24B52F7DFBCF2091B0002F772093BC
:10019000B000D2CF2091B0002F7DF9CF9E2BDACFC7
:1001A000AF92BF92CF92DF92EF92FF920F931F9385
:1001B000CF93DF936C017B018B01040F151FEB01C3
:1001C0005E01AE18BF08C017D10759F06991D6017A
:1001D000ED91FC910190F081E02DC6010995892BEC
:1001E00079F7C501DF91CF911F910F91FF90EF90AB
:1001F000DF90CF90BF90AF90089542E050E068E16B
:1002000071E08CE491E00C94D000FC01538D448D9E
:10021000252F30E0842F90E0821B930B541710F0B1
:10022000CF96089501970895FC01918D828D9817BE
:1002300061F0A28DAE0FBF2FB11D5D968C91928D96
:100240009F5F9F73928F90E008958FEF9FEF0895C7
:10025000FC01918D828D981731F0828DE80FF11D90
:10026000858D90E008958FEF9FEF0895FC01918DAB
:10027000228D892F90E0805C9F4F821B91098F73A4
:10028000992708958CE491E00E94360121E0892BA2
:1002900009F420E0822F0895FC01A48DA80FB92F46
:1002A000B11DA35ABF4F2C91848D90E001968F739E
:1002B0009927848FA689B7892C93A089B1898C91BD
:1002C000837080648C93938D848D981306C002880C
:1002D000F389E02D80818F7D80830895EF92FF92D6
:1002E0000F931F93CF93DF93EC0181E0888F9B8D59
:1002F0008C8D98131AC0E889F989808185FF15C013
:100300009FB7F894EE89FF896083E889F989808135
:100310008370806480839FBF81E090E0DF91CF9104
:100320001F910F91FF90EF900895F62E0B8D10E026
:100330000F5F1F4F0F731127E02E8C8D8E110CC095
:100340000FB607FCFACFE889F989808185FFF5CFE0
:10035000CE010E944C01F1CFEB8DEC0FFD2FF11D72
:10036000E35AFF4FF0829FB7F8940B8FEA89FB891D
:1003700080818062CFCFCF93DF93EC01888D88237B
:10038000B9F0AA89BB89E889F9898C9185FD03C0F8
:10039000808186FD0DC00FB607FCF7CF8C9185FFDD
:1003A000F2CF808185FFEDCFCE010E944C01E9CFD5
:1003B000DF91CF910895E091F501F091F601DC0114
:1003C0006D917C913097D9F061157105A9F48091F8
:1003D000F9019091FA01892BA9F0808190E00895AC
:1003E000FC0184819581892B69F0DB018C9190E07F
:1003F0009195819591090895CF010C94020761159B
:10040000710571F790E080E00895FC018081918191
:10041000009711F00C94B30508950F931F93CF9399
:10042000DF93EC0188819981009759F02A813B8103
:100430002617370730F081E0DF91CF911F910F91A0
:1004400008958B016F5F7F4F0E943C06009759F023
:10045000998388831B830A832C813D81232B59F741
:10046000FC011082E8CF80E0E7CFFF920F931F934B
:10047000CF93DF9300D0CDB7DEB7FF24F3948CE4A5
:1004800091E00E943601892B61F18CE491E00E9499
:1004900014018E3219F4F0924201F1CF89831A824D
:1004A0000091F9011091FA010F5F1F4FB80185EF1C
:1004B00091E00E940D02882311F32091F501309103
:1004C000F6018091F9019091FA01BE016F5F7F4FB3
:1004D000820F931F0E940B071093FA010093F901FA
:1004E000CECF0F900F90DF91CF911F910F91FF9082
:1004F00008950E94420181110C9435020895EF92F3
:10050000FF920F931F93CF93DF93EC017B018A013E
:10051000BA010E940D0228813981811114C0211570
:10052000310519F0C9010E94B305198218821D8294
:100530001C821B821A82CE01DF91CF911F910F91F5
:10054000FF90EF9008951D830C83B701C9010E94AD
:100550000B07F1CFFC0111821082138212821582E7
:100560001482FB0101900020E9F73197AF01461B8F
:10057000570B0C947F021F920F920FB60F9211240B
:100580002F933F938F939F93AF93BF938091480195
:1005900090914901A0914A01B0914B0130914701DE
:1005A00023E0230F2D3758F50196A11DB11D20938F
:1005B00047018093480190934901A0934A01B09369
:1005C0004B018091430190914401A0914501B0916C
:1005D00046010196A11DB11D8093430190934401F2
:1005E000A0934501B0934601BF91AF919F918F9128
:1005F0003F912F910F900FBE0F901F90189526E8F6
:10060000230F0296A11DB11DD2CF1F920F920FB6DC
:100610000F9211242F933F934F935F936F937F9388
:100620008F939F93AF93BF93EF93FF938CE491E0ED
:100630000E944C01FF91EF91BF91AF919F918F91DB
:100640007F916F915F914F913F912F910F900FBECE
:100650000F901F9018951F920F920FB60F921124B2
:100660002F938F939F93EF93FF93E0915C01F09111
:100670005D018081E0916201F091630182FD1BC008
:100680009081809165018F5F8F7320916601821741
:1006900041F0E0916501F0E0E45BFE4F958F8093BF
:1006A0006501FF91EF919F918F912F910F900FBE58
:1006B0000F901F9018958081F4CFECE4F1E0138245
:1006C000128288EE93E0A0E0B0E084839583A68355
:1006D000B7838AE091E09183808385EC90E09587F1
:1006E000848784EC90E09787868780EC90E0918BFC
:1006F000808B81EC90E0938B828B82EC90E0958BE9
:10070000848B86EC90E0978B868B118E128E138EE5
:10071000148E6AE171E085EF91E00E94AA026BE11C
:1007200071E08FEE91E00E94AA0265E271E089EE2D
:1007300091E00C94AA02CF93DF9300D000D000D0B8
:10074000CDB7DEB7789484B5826084BD84B581600E
:1007500084BD85B5826085BD85B5816085BD80918C
:100760006E00816080936E00109281008091810004
:1007700082608093810080918100816080938100FC
:10078000809180008160809380008091B1008460BE
:100790008093B1008091B00081608093B00080911F
:1007A0007A00846080937A0080917A0082608093DE
:1007B0007A0080917A00816080937A0080917A003B
:1007C000806880937A001092C100EDE9F0E02491F6
:1007D000E9E8F0E08491882399F090E0880F991F70
:1007E000FC01E859FF4FA591B491FC01EE58FF4F71
:1007F000859194918FB7F894EC91E22BEC938FBF95
:10080000E0915C01F0915D0182E08083E0915C0108
:10081000F0915D011082E0915801F0915901108230
:10082000E0915A01F0915B0180E1808310926401B4
:10083000E0916001F091610186E08083E0915E01CA
:10084000F0915F01808180618083E0915E01F09191
:100850005F01808188608083E0915E01F0915F019B
:10086000808180688083E0915E01F0915F018081EA
:100870008F7D808368EC70E085EF91E00E940D022F
:100880002091F9013091FA018091F3019091F401E6
:100890002817390749F48FEE91E00E94DB01892B7C
:1008A00019F481E00E9488002091F9013091FA0149
:1008B0008091ED019091EE012817390749F489EEF6
:1008C00091E00E94DB01892B19F480E00E948800EE
:1008D00080914201882309F44CC00E94FD001A82D5
:1008E00019821C821B821E821D8244E150E06DE24F
:1008F00071E0CE0101960E947F02E090F501F09038
:10090000F601E114F104E9F10091F9011091FA0105
:1009100001151105B1F08D819E81080F191FB801D5
:10092000CE0101960E940D02882359F129813A8156
:100930008D819E81B701820F931F0E940B071E833A
:100940000D834D815E8169817A818CE491E00E9402
:10095000D0000E94FD00CE0101960E94050250E0E9
:1009600040E06AE171E085EF91E00E947F02109221
:1009700042010E944201882309F482CF0E9435027D
:100980007FCF89819A81009711F00E94B3051A8266
:1009900019821E821D821C821B82D3CF89EE91E0B8
:1009A0000E9405028FEE91E00E94050285EF91E022
:1009B0000C9405022F923F924F925F926F927F921A
:1009C0008F929F92AF92BF92CF92DF92EF92FF925F
:1009D0000F931F93CF93DF93CDB7DEB7CA1BDB0B0B
:1009E0000FB6F894DEBF0FBECDBF09942A883988B0
:1009F00048885F846E847D848C849B84AA84B984B7
:100A0000C884DF80EE80FD800C811B81AA81B981C2
:100A1000CE0FD11D0FB6F894DEBF0FBECDBFED01D6
:100A20000895EE0FFF1F0590F491E02D09940F93A8
:100A30001F93CF93DF938230910510F482E090E012
:100A4000E091FD01F091FE0130E020E0B0E0A0E097
:100A5000309799F42115310509F44AC0281B390B48
:100A600024303105D8F58A819B816115710589F1A2
:100A7000FB0193838283FE0111C040815181028179
:100A8000138148175907E0F04817590799F4109750
:100A900061F012960C93129713961C933296CF0125
:100AA000DF91CF911F910F9108950093FD01109355
:100AB000FE01F4CF2115310551F04217530738F0EC
:100AC000A901DB019A01BD01DF01F801C1CFEF01EE
:100AD000F9CF9093FE018093FD01CDCFFE01E20F8F
:100AE000F31F819391932250310939832883D7CF03
:100AF0002091FB013091FC01232B41F42091020154
:100B0000309103013093FC012093FB0120910001FF
:100B1000309101012115310541F42DB73EB74091C7
:100B2000040150910501241B350BE091FB01F0916C
:100B3000FC01E217F307A0F42E1B3F0B281739071F
:100B400078F0AC014E5F5F4F2417350748F04E0F29
:100B50005F1F5093FC014093FB01819391939FCFC2
:100B6000F0E0E0E09CCFCF93DF930097E9F0FC0149
:100B7000329713821282A091FD01B091FE01ED0126
:100B800030E020E01097A1F420813181820F931F83
:100B90002091FB013091FC012817390709F061C051
:100BA000F093FC01E093FB01DF91CF910895EA01FE
:100BB000CE17DF07E8F54A815B819E01411551059B
:100BC000B1F7E901FB83EA8349915991C40FD51F1D
:100BD000EC17FD0761F4808191810296840F951FC7
:100BE000E90199838883828193819B838A83F0E0E2
:100BF000E0E012968D919C9113970097B9F52D9195
:100C00003C911197CD010296820F931F2091FB0119
:100C10003091FC012817390739F6309751F51092B9
:100C2000FE011092FD01B093FC01A093FB01BCCF2B
:100C3000D383C28340815181840F951FC817D90780
:100C400061F44E5F5F4F88819981480F591F51832E
:100C500040838A819B81938382832115310509F02A
:100C6000B0CFF093FE01E093FD019ECFFD01DC01CA
:100C7000C0CF13821282D7CFB0E0A0E0E2E4F6E06A
:100C80000C94DC048C01009751F4CB010E941705F1
:100C90008C01C801CDB7DEB7E0E10C94F804FC018B
:100CA000E60FF71F9C0122503109E217F30708F401
:100CB0009DC0D901CD91DC911197C617D70798F047
:100CC000C530D10530F3CE0104978617970708F396
:100CD000C61BD70B2297C193D1936D937C93CF0101
:100CE0000E94B305D6CF5B01AC1ABD0A4C018C0E35
:100CF0009D1EA091FD01B091FE01512C412CF12CC3
:100D0000E12C109731F58091FB019091FC01881541
:100D1000990509F05CC04616570608F058C0809146
:100D2000000190910101009741F48DB79EB7409169
:100D3000040150910501841B950BE817F90708F091
:100D400055C0F093FC01E093FB01F90171836083CE
:100D5000A0CF8D919C91119712966C90129713963B
:100D60007C901397A815B90559F56C0142E0C40EA3
:100D7000D11CCA14DB0420F1AC014A195B09DA0169
:100D80001296159780F06282738251834083D90155
:100D90006D937C93E114F10471F0D7011396FC93E9
:100DA000EE93129776CF22968C0F9D1FF9019183B7
:100DB0008083F301EFCFF093FE01E093FD0169CF53
:100DC0004816590608F42C017D01D3019ACFCB01B6
:100DD0000E9417057C01009749F0AE01B8010E94FE
:100DE000F906C8010E94B305870153CF10E000E067
:100DF00050CFFB01DC0102C001900D9241505040E8
:100E0000D8F70895FB01DC018D9101908019011044
:100E1000D9F3990B0895FB01DC0101900D9200209C
:100E2000E1F7089510E0CDE5D0E004C0FE010E9496
:100E300011052196CE35D107C9F7F894FFCF0000F0
:100E4000FF018000000000006E01D0000501BB0121
:100E50003601140128010D0A00656E63656E646930
:100E6000646F006170616761646F00436164656E07
:100E70006120696E74726F6475636964613A200001
:107E0000112484B714BE81FFF0D085E080938100F7
:107E100082E08093C00088E18093C10086E0809377
:107E2000C20080E18093C4008EE0C9D0259A86E02C
:107E300020E33CEF91E0309385002093840096BBD3
:107E4000B09BFECF1D9AA8958150A9F7CC24DD24C4
:107E500088248394B5E0AB2EA1E19A2EF3E0BF2EE7
:107E6000A2D0813461F49FD0082FAFD0023811F036
:107E7000013811F484E001C083E08DD089C08234E0
:107E800011F484E103C0853419F485E0A6D080C0E4
:107E9000853579F488D0E82EFF2485D0082F10E0AE
:107EA000102F00270E291F29000F111F8ED06801E7
:107EB0006FC0863521F484E090D080E0DECF843638
:107EC00009F040C070D06FD0082F6DD080E0C81688
:107ED00080E7D80618F4F601B7BEE895C0E0D1E017
:107EE00062D089930C17E1F7F0E0CF16F0E7DF06D8
:107EF00018F0F601B7BEE89568D007B600FCFDCFD4
:107F0000A601A0E0B1E02C9130E011968C91119780
:107F100090E0982F8827822B932B1296FA010C0160
:107F200087BEE89511244E5F5F4FF1E0A038BF0790
:107F300051F7F601A7BEE89507B600FCFDCF97BE46
:107F4000E89526C08437B1F42ED02DD0F82E2BD052
:107F50003CD0F601EF2C8F010F5F1F4F84911BD097
:107F6000EA94F801C1F70894C11CD11CFA94CF0C13
:107F7000D11C0EC0853739F428D08EE10CD085E9AC
:107F80000AD08FE07ACF813511F488E018D01DD067
:107F900080E101D065CF982F8091C00085FFFCCF94
:107FA0009093C60008958091C00087FFFCCF809118
:107FB000C00084FD01C0A8958091C6000895E0E648
:107FC000F0E098E1908380830895EDDF803219F02E
:107FD00088E0F5DFFFCF84E1DECF1F93182FE3DFCA
:107FE0001150E9F7F2DF1F91089580E0E8DFEE27F6
:047FF000FF270994CA
:027FFE00040479
:00000001FF
